:020000040800F2
:100000000004002041020008910300085103000889
:100010005103000851030008510300085103000870
:100020005103000851030008510300085103000860
:10003000510300085103000851030008010400089F
:100040005103000851030008510300085103000840
:100050005103000851030008510300085103000830
:10006000510300081115000851150008A1150008DA
:1000700051190008510300085103000851030008FA
:100080005103000851030008510300085103000800
:1000900051030008510300085103000851030008F0
:1000A000510300085103000851030008C11C000857
:1000B00051030008510300085103000851030008D0
:1000C00030B583B001F03CF900F022FA204800215D
:1000D00001F0EEF990208021C0058900822201F014
:1000E0007FFD90208021C005C900822201F078FDAB
:1000F00018480321032201F073FD002498214900D0
:100100004022154B0094154800F022FD982149002B
:100110004022134B0094134800F01AFD01F068FFD1
:10012000114D03E0FA20800000F032FD002C07D0D2
:10013000237F0E2BF6D1201C00F06AFD0024F1E78E
:100140009621281CC900402201F06AFF041CE9E73F
:10015000E809002000080048C1260008A00B002084
:1001600091260008D00C0020302D0008C046C04663
:10017000002934D00123002210B488422CD301245A
:100180002407A14204D2814202D209011B01F8E7EF
:10019000E400A14204D2814202D249005B00F8E7A8
:1001A000884201D3401A1A434C08A04202D3001BD4
:1001B0005C0822438C08A04202D3001B9C08224307
:1001C000CC08A04202D3001BDC082243002803D045
:1001D0001B0901D00909E3E7101C10BC7047002877
:1001E00001D00020C04307B4024802A14018029089
:1001F00003BDC0461D0000000029F0D003B5FFF785
:10020000B9FF0EBC4243891A1847C04600000000DF
:100210007047C04600000000000000000000000021
:100220007047C046C046C046C046C046C046C046ED
:10023000FEE7C046C046C046C046C046C046C046AF
:1002400072B63448051C80F30988022383F31488AE
:10025000BFF36F8F304B314A934209D21C1DD11C22
:10026000091B890889002E4A611804C38B42FCD1FE
:100270002C4B834209D21A1DE91C891A890889006E
:100280005118274A04C38B42FCD101F0F1FD264AE4
:10029000264B9A420BD2D043C01880080130244923
:1002A00080000023CC58D45004338342FAD1214B30
:1002B000214A934209D2181DD11C091A89088900C4
:1002C0004118002204C38B42FCD1FFF7A9FF1B4D4C
:1002D0001B4B9D420AD2EE43F618B60801360024A5
:1002E000A300EB5801349847B442F9D1FFF7E8FE78
:1002F000144D154B9D420AD2EE43F618B60801364E
:100300000024A300EB5801349847B442F9D1FFF719
:100310008FFFC046000800200000002000040020DD
:100320005555555500040020000800201C080020E9
:10033000682E000820080020000E0020C0000008E1
:10034000C0000008C0000008C0000008C046C04649
:10035000FEE7C046C046C046C046C046C046C0468E
:1003600072B6FEE7C046C046C046C046C046C0465C
:1003700000F05EF900F08CFB00F07AF98022024B6D
:1003800012065A60FEE7C04600ED00E0C046C046D7
:10039000EFF30983203383F3098862B67047C046C0
:1003A0000F3019D072B6EFF309831A1C203A82F38A
:1003B00009880F4880225204203B8169DA61CA7F94
:1003C000002A0AD100688968806888425241D2B206
:1003D000002A0AD1074A9A617047026889689268C0
:1003E000914292415242002AF4D0034A9A61F3E7C3
:1003F000440900207C03000871030008C046C04681
:1004000010B5744600F094F972B600F051F900F09E
:10041000BFF800F06DF962B600F0AAF9201CFFF7F2
:10042000BFFF10BDC046C046C046C046C046C0461D
:10043000F0B544464D4656465F46F0B46B46CB6039
:10044000C3689D46F0BCA046A946B246BB46F0BD77
:1004500008B500F00DF962B6281CA04700F0C8FBF3
:1004600008BDC046C046C046C046C046C046C0469D
:1004700082080F4B920070B5D2180324C0239B0052
:100480000440D558E400FF26A640B543A1402C1CEB
:100490000C43D4501F23034001229A40131C4009EF
:1004A000034A80008018C02252008350036070BD50
:1004B00000E100E0C046C046C046C046C046C04657
:1004C0008308084A10B59B0003249B1820409A69B2
:1004D000C000FF248440A2438140101C084398615F
:1004E00010BDC04600ED00E0C046C046C046C04654
:1004F000024B034A9B699A61FEE7C046440900200B
:10050000F0270008C046C046C046C046C046C046A8
:1005100000B5164A164B83B0DA600A200021FFF7B7
:10052000CFFF0B208021FFF7CBFF00F0C1F900F0D7
:100530006FF900F025FE00F063FE40210D4800F049
:10054000B7FA0D4B98610123037700F059F862B6B2
:10055000094B0A4A9B69C0219A610023009301223A
:10056000074B084800F0F4FA03B000BD0000FA059C
:1005700000ED00E0E00800204409002060280008A9
:10058000F104000820080020C046C046C046C0460E
:10059000F8B500F00DF9154B9B69DA7F002A01D000
:1005A000013ADA771A6A01321A62114BDA681C686A
:1005B0000132DA609C4218D0A268013AA260002A97
:1005C00013D100271D1C2268E668E76053601A609B
:1005D00000F08EF862B62069B04772B600F068F895
:1005E0002C682B1CA268002AEDD0F8BD440900201D
:1005F00034090020C046C046C046C046C046C0467A
:1006000008B5074B1B68002B03D1064B1B68002B5A
:1006100004D0054A054B1A60FFF7A2FE08BDC0468C
:10062000280900202C09002010280008300900208B
:10063000084B10B51B68084C002B02D12368002B17
:1006400004D0064A064B1A60FFF78AFE0123236096
:1006500010BDC046280900202C09002018280008D9
:1006600030090020C046C046C046C046C046C0460D
:10067000084B10B51B68084C002B05D12368002BD4
:1006800002DD0023236010BD044A054B1A60FFF70A
:1006900067FEF6E7280900202C0900202028000822
:1006A00030090020C046C046C046C046C046C046CD
:1006B000084B10B51B68084C002B02DD2368002B8B
:1006C00004D0064A064B1A60FFF74AFE0123236056
:1006D00010BDC046280900202C0900202828000849
:1006E00030090020C046C046C046C046C046C0468D
:1006F000084B10B51B68084C002B05DD2368002B48
:1007000002DD0023236010BD044A054B1A60FFF789
:1007100027FEF6E7280900202C09002030280008D1
:1007200030090020C046C046C046C046C046C0464C
:1007300010B572B6084C2368002B03DB074A126819
:10074000002A05D0064B074A1A60FFF709FE236806
:100750000133236062B610BD280900202C09002057
:100760003009002038280008C046C046C046C046B0
:1007700010B572B6084C2368002B03DD074A1268D7
:10078000002A05D0064B074A1A60FFF7E9FD2368E7
:10079000013B236062B610BD280900202C0900200F
:1007A0003009002040280008C046C046C046C04668
:1007B00008B5074B1B68002B04DB064B1B68002B9E
:1007C00000DD08BD044A054B1A60FFF7C9FDF8E7D4
:1007D000280900202C0900204828000830090020A2
:1007E00008B5074B1B68002B04D1064B1B68002B78
:1007F00000DD08BD044A054B1A60FFF7B1FDF8E7BC
:10080000280900202C090020502800083009002069
:10081000044B012252429A6000225B601B60DA6046
:100820007047C04634090020C046C046C046C04696
:10083000F8B5051C161C1F1C0C1CFFF7B9FF0C4952
:100840002F610B68EE609A68944204D91B68A41A61
:100850009A68A242FAD35A682B606A605D6015609C
:10086000AC608B4202D09A68141B9C60F8BDC046F5
:1008700034090020C046C046C046C046C046C046F7
:1008800010B5041CFFF794FF2368074A934203D076
:100890009868A16842189A606268136023685A6079
:1008A0000023E36010BDC04634090020C046C046A6
:1008B000034B00225B601B609A605B611B617047A9
:1008C00044090020C046C046C046C046C046C04697
:1008D00010B5041CFFF76CFF00232377A268064BBA
:1008E0001B6899689142FBD25A6823606260201CA1
:1008F0005C60146010BDC04644090020C046C0467C
:1009000010B5041C72B6FFF7D3FE237F032B16D05D
:100910000FD9052B01D00D2B04D1226863681A6012
:100920002268536001235B426362201CFFF7D0FF03
:1009300001E0002BF6D1FFF7DBFE62B610BD636A63
:100940009A6801329A60226863681A60226853606C
:10095000E8E7C046C046C046C046C046C046C0469E
:1009600010B5041CFFF73CFF074B14229969186867
:10097000CA7702680C771A60536098610123037785
:10098000FFF756FD10BDC04644090020C046C046D2
:1009900070B50C1C86B0061CFFF722FF631C13D039
:1009A0000C4D01A8AB69211C0B4AFFF741FF301C1D
:1009B000FFF7D6FF049B002B02D001A8FFF760FFD2
:1009C000AB69586A06B070BD301CFFF7C9FF014D16
:1009D000F6E7C0464409002001090008C046C046A9
:1009E00038B5041C0D1CFFF7FBFE6562094DA268BB
:1009F000A86983689A4209D9FFF76AFF0123011C9D
:100A00002377201CAC61FFF713FD38BD201CFFF7D6
:100A10005FFFFAE744090020C046C046C046C04612
:100A200038B5094C2368A5691A68281C54602260EF
:100A300001221A77A3611423EB77FFF749FF291CE2
:100A4000A069FFF7F5FC38BD44090020C046C04648
:100A50000D4B10B518689969026853601A60986167
:100A60000123037700230B778A68031C00E01B68CF
:100A70009C689442FBD85A680B604A6059601160C8
:100A8000FFF7D6FC10BDC04644090020C046C04652
:100A900008B5054B9B69DB7F002B02D0FFF7D8FF21
:100AA00008BDFFF7BDFFFBE744090020C046C04674
:100AB0000223037700234377C36383630362836165
:100AC0001422094BC277012282775A69036181603F
:100AD00042615861031C283301641061836204334E
:100AE0000363C3627047C04644090020C046C04645
:100AF000F8B50F1C041C151C1E1CFFF759FE391CF1
:100B0000069B24396118E1604B610F4B0E610B624B
:100B10000223237700236377E363A3632362A36144
:100B200014220A4BE2770122A2775A69A560236159
:100B300062615C61231C283325641461A362043361
:100B4000201C2363E362F8BD51040008440900201F
:100B5000F0B5071C83B00E1C151C1C1C72B6FFF7E9
:100B600067FD089B2A1C0093311C231C381CFFF7CF
:100B7000BFFF0021041CFFF733FFFFF779FD62B6CA
:100B8000201C03B0F0BDC046C046C046C046C046AB
:100B900010B5041C72B6FFF74BFD211C0620FFF7B1
:100BA000F7FEFFF765FD62B610BDC046C046C04601
:100BB00038B50D4B9C696062251CA06A2835A84297
:100BC00006D00368A362FFF783FEA06AA842F8D1AB
:100BD000637F9A0704D1226963691A6122695361AC
:100BE0000E20FFF7BDFE38BD44090020C046C046B8
:100BF00010B5041C72B6FFF71BFD201CFFF7D8FFD1
:100C000010BDC046C046C046C046C046C046C046ED
:100C100038B5041C72B6FFF70BFDA57F013DEDB2A0
:100C2000A577FFF725FD62B6002D02D1237F0E2B9D
:100C300000D038BD637F03221340012B0BD0022B61
:100C4000F7D122696369606C1A612269211C5361C2
:100C500000F066FBEDE722696369201C1A612269D6
:100C6000536100F01DFBE4E7C046C046C046C046E5
:100C7000F0B583B00C1C171C1E1C00F0D1FA051E29
:100C800016D072B6FFF7D4FC089B3A1C0093211CC7
:100C9000331C281CFFF72CFF012343770021041C81
:100CA000FFF79EFEFFF7E4FC62B6201C03B0F0BD28
:100CB0000020FBE7C046C046C046C046C046C0460E
:100CC00000234060006083607047C046C046C04655
:100CD000304B70B5051C9C69FFF782FDA8680028A1
:100CE00053D0A26881688A4207D9037F8260042BAF
:100CF00032D0052B1CD0002B12D02B1C03E09A689D
:100D0000A668B24202D31B689D42F8D15A6823609C
:100D1000626004205C6014606562FFF721FE70BDB4
:100D200043680168196002685360FFF7D1FDE4E78A
:100D300043680168196001684B60416A0B1C02E05E
:100D40009E68964202D31B689942F9D15A680360A3
:100D5000426058601060D0E7436806681E60016812
:100D60004B60416A0B1C02E09E68964202D31B68EE
:100D70009942F9D15A6803604260586010608868EF
:100D8000A26881689142B0D3B7E7E16BAC60E960DB
:100D9000E563C4E744090020C046C046C046C046DB
:100DA00010B5041C72B6FFF743FC201CFFF790FF40
:100DB000FFF75EFC62B610BDC046C046C046C046E6
:100DC00038B5154B9D6972B6FFF732FCEC6BE368E2
:100DD0002068EB63A0421CD0296C002B09D01A6854
:100DE0009A4203D09268914200D2111CDB68002B1A
:100DF000F5D10368A96023605C60C36BA060E36009
:100E00000021C463FFF7ECFDFFF732FC62B6201C43
:100E100038BD0023A360F7E744090020C046C04660
:100E200038B5041C0D1CFFF7C3FCA16B237F2943BD
:100E3000A163082B0CD0092B00D038BD636A194080
:100E40008B42FAD1201CFFF743FD00234362F4E7F5
:100E5000636A0B42F1D0201CFFF73AFD0023436286
:100E6000EBE7C046C046C046C046C046C046C04686
:100E700070B5051C0E1CFFF79BFC2C68A54209D021
:100E8000E36860683343E360A168FFF7C9FF246843
:100E9000A542F5D170BDC046C046C046C046C0465A
:100EA00008B500290BD0074B9B695862426818604F
:100EB0005A60436013600D20FFF76AFD08BD0120F2
:100EC0004042FBE744090020C046C046C046C04639
:100ED00010B5C361029B002441618161C160891822
:100EE0004060006084600161036210BDC046C0467E
:100EF00038B5041C0D1CFFF75BFC6369A2699342C3
:100F00001CD0A2680132A2605A1C62611D70626925
:100F100023699A420BD22068A0420DD00368236057
:100F20005C60FFF7D5FC00234362002038BDE36816
:100F300020686361A042F1D10020F7E7A268002A8F
:100F4000E0D004204042F1E7C046C046C046C0465B
:100F500070B5041C0E1C72B6FFF76AFBE369002B28
:100F600008D0201C984705E0201C311CFFF798FF93
:100F7000051E0DDBA368002BF6D0A269013BA36020
:100F8000531CA36115782269934201D3E368A361DE
:100F9000FFF76EFB62B6281C70BDC046C046C04657
:100FA000F0B54E469146C26957464546E0B4041C2A
:100FB0008A461E1C904672B6FFF73AFB002743464E
:100FC000002B08D0201CC04705E0201C311CFFF777
:100FD00067FF00281AD1A568002DF6D0A369013D4E
:100FE0005A1CA261A5601B785246D355A369226999
:100FF000934201D3E368A361FFF73AFB62B601377E
:10100000B94506D072B6FFF713FBD8E7FFF730FB00
:1010100062B6381C1CBC90469946A246F0BDC0463C
:10102000C361009B41618161C160891840600060BB
:101030008260016103627047C046C046C046C04638
:10104000F8B5041C0F1C161C72B6FFF7F1FA05E088
:10105000201C311CFFF724FF051E18DBA368002BA2
:10106000F6D0013BA36063695A1C62611F7062691C
:1010700023699A4201D3E2686261E369002B01D0DF
:10108000201C9847FFF7F4FA62B60020F8BDFFF77E
:10109000EFFA62B6281CF9E7C046C046C046C04613
:1010A00038B5041CFFF784FBA36962699A4217D024
:1010B000A2680132A2605A1CA2611D7823699A427B
:1010C0000BD22068A04206D0036823605C60FFF763
:1010D000FFFB00234362281C38BDE368A361F0E7EF
:1010E000A268002AE5D003204042F5E7C046C0468A
:1010F000F0B557464E464546E0B4161CC269041C7E
:101100000F1C9A46914672B6FFF792FA0023984652
:10111000A568002D21D06269013D531CA560636163
:101120003B787D1C1370626923699A4201D3E2689F
:1011300062614B46002B01D0201CC847FFF798FA8C
:1011400062B60122013E9044002E0FD072B6FFF726
:101150006FFA2F1CA568002DDDD1201C5146FFF72A
:101160009FFE0028D4D0FFF783FA62B640461CBC2D
:1011700090469946A246F0BDC046C046C046C0460D
:1011800005490723054A073199431160044A9A43E8
:10119000044B1A607047C046000E0020640900200E
:1011A0000020002060090020C046C046C046C0465E
:1011B00010B5041CFFF7FCFA0723E21D9A43064909
:1011C000064B09681868091A8A4202D882181A6000
:1011D00010BD0020FCE7C046600900206409002023
:1011E00010B5041C72B6FFF723FA201CFFF7E0FFCE
:1011F000041CFFF73DFA62B6201C10BDC046C04675
:1012000008B50548054B036000238360C3601030B8
:10121000FFF756FD08BDC04668090020E11100082F
:10122000F8B5071E33D0381CCE1D07233D1C1030E7
:101230009E430835FFF7B4FD03E063689E4211D971
:10124000251C2C68002CF8D1FFF7BAFD3B68002B59
:101250001FD0301C0830984700281AD0076046601D
:101260000830F8BD321C08329A4207D9216829603B
:101270002760FFF7A5FD201C0830F2E721689B1BC3
:10128000A218083B116053602A606660F0E7024FC5
:10129000C9E70020E5E7C04668090020C046C0460F
:1012A00038B5041C083C2068051C08351030FFF7D1
:1012B00077FD2B1CAB4204D0A34202D31B68AB4288
:1012C000FAD11A68002A03D0944201D3131CF1E723
:1012D000616822601C600A1C08322068A2188242E1
:1012E00008D05A68111C083159188C420ED0FFF7EB
:1012F00067FD38BD506812680918083161602260C6
:101300005A68111C083159188C42F0D16168246860
:10131000521808325A601C60E9E7C046C046C04611
:1013200038B5041C0D1C72B6FFF782F9FFF740FABE
:1013300023682B602560FFF79BF962B638BDC04675
:1013400008B500F0BDF9054800F0EAFB00F008F828
:1013500000F086F800F094FD08BDC046F0280008B3
:1013600008B500F03DFA08BDC046C046C046C046BC
:1013700008B501230370002343608360C3600361E9
:1013800043611830FFF79CFC08BDC046C046C0460C
:1013900038B5041C0D1C72B6FFF74AF9201C6560B5
:1013A00000F056FA02232370FFF762F962B638BDE7
:1013B000F8B5041C0D1C171C1E1C72B6FFF738F97B
:1013C000FFF7F6F903232370201CA760E660256170
:1013D00000F06EFAFFF74CF962B6F8BDC046C046A1
:1013E00008B50C30FFF7DCFD08BDC046C046C0465E
:1013F00008B501230C305B42FFF7D2FD08BDC046A3
:1014000008B53030FFF774FE08BDC046C046C04680
:1014100008B5012330305B42FFF76AFE08BDC046C5
:1014200008B50C30FFF794FD08BDC046C046C04665
:1014300008B501210C304942FFF78AFD08BDC046BE
:1014400008B53030FFF7FCFD08BDC046C046C046B9
:1014500008B5012230305242FFF7F2FD08BDC04608
:1014600008B500F0B5FC08BDC046C046C046C04641
:1014700030B5151C0D4A041C04C083B00B1C606001
:101480000122201C211C22720C30543100941022A5
:10149000FFF71EFD201C211C303064310094102207
:1014A0002B1CFFF7BDFD03B030BDC04680280008EF
:1014B00038B5041C0D1C72B6FFF7BAF8201C291CA5
:1014C00000F09EFC02232372FFF7D2F862B638BD0B
:1014D00038B5041C0D1CFFF76BF96369002B07D0AE
:1014E000201C0C30291CFFF703FD00280BDB38BD46
:1014F000201D0421FFF7BCFC201C0C30291CFFF729
:10150000F7FC0028F3DA201D8021FFF7B1FCEEE79D
:1015100010B57446FFF70CF9084B0F211A681140FB
:10152000074A59601368002B01D050689847FFF7AD
:101530001FF9201CFEF734FF10BDC046000002401A
:1015400088090020C046C046C046C046C046C046C6
:1015500010B57446FFF7ECF80F4B19680906090F30
:1015600007D00A015A600D4A9368002B01D0D06859
:101570009847094B19680905090F07D00A025A60F4
:10158000064A1369002B01D050699847FFF7F0F81D
:10159000201CFEF705FF10BD000002408809002056
:1015A00010B57446FFF7C4F80F4B19680904090F0A
:1015B00007D00A035A600D4A9369002B01D0D06905
:1015C0009847094B19680903090F07D00A045A60A4
:1015D000064A136A002B01D0506A9847FFF7C8F8F3
:1015E000201CFEF7DDFE10BD00000240880900202F
:1015F0000B4A002313600B4A0B4913600B4A13601C
:101600000B600B4993600B600A4913610B600A4938
:1016100093610B601362094B012252425A6070477A
:10162000B0090020080002401C0002408809002088
:1016300030000240440002405800024000000240D6
:10164000F0B54F4680B4194C8C46477A111C0122E4
:10165000161C2568BE4099460123354220D1144B03
:10166000FF00F9503543DF194B467B6025606B0660
:1016700003D0104B5C6922435A6103680F221C6837
:1016800094431C60057A4468AA40226000221A60D4
:10169000002909D063469901807AFEF7E9FE00230C
:1016A000181C04BC9146F0BD0023F9E7B0090020E6
:1016B0008809002000100240C046C046C046C0460F
:1016C0001D4B10B51A69012252421A6100221A619B
:1016D000D9681A480143D96019481A49DA60486044
:1016E00007208A600860D869802149050143D961D3
:1016F000154980200C68400020430860196AC0200A
:101700008000084080218900884203D0802149025E
:1017100019621A62084B8022196A1202114207D11B
:10172000186A8021890001431962196A0A431A6202
:10173000FFF75EFF10BDC04600100240FFFFBFFF75
:101740007FBB000010E000E000700040C046C046D3
:1017500020480123026802211343036003681D4AE5
:101760001942FBD01368F9210B401360002353602A
:101770000C20536817491842FBD14A6A01231343CE
:101780004B6202204B6A134A1842FBD0A1239B03F1
:1017900053600023D3621363116880235B040B43FF
:1017A00080201360800413680A490342FBD00A4B6F
:1017B00011221A604A68022313434B600C204B68C5
:1017C000044A0340082BFAD1916901230B4393612A
:1017D0007047C0460010024000200240C046C0468C
:1017E00038B5124D124C281CFFF7C2FD114B802159
:1017F000EB62114B0C202B63AC62FEF739FE0F4BF2
:101800008022996992000A439A61A368A2688023A2
:101810001B061343A360221C9368002BFCDB074BC1
:10182000074A99690A409A6138BDC046B409002048
:1018300000240140A02800088A2500000010024072
:10184000FFFDFFFFC046C046C046C046C046C0467A
:10185000037810B5041C012B00D010BD0F4B98422B
:1018600007D0A26A01239360012113681942FCD0BA
:10187000F3E702210A4A231CC06AFFF7E1FEE36A8C
:10188000084A1B689A60084B8022996992000A43B3
:101890009A618022054B52011A61E2E7B4090020E7
:1018A000311A000840240140001002400024014089
:1018B000026930B51378016BC468002B03D0012C8A
:1018C00021D924231943C36A85681B68DD605588C4
:1018D0006C435C6019601C68012121431960836AB4
:1018E00055691968196090215960116919629169E7
:1018F0005D61D268996205490A43DA6099680422F9
:101900000A439A6030BD20231943DCE7032000001E
:10191000C36A10B519680F220C6894430C605968AB
:101920001B7A9A400A60826A9368590700D410BDF6
:10193000916810230B439360102193681942FCD1E6
:10194000F5E7C046C046C046C046C046C046C04691
:1019500070B57646FEF7ECFE314B324C1D681D60CB
:101960002369002B03D0EB0607D42B062ED4FEF7F9
:10197000FFFE301CFEF714FD70BDE36A1B685B6858
:10198000002BF2D0201CFFF7C3FF23699B68002BBC
:1019900007D005222270201C012198472378052BAF
:1019A0003AD00023236172B6FEF782FE1D4C6069B7
:1019B000002806D00023636101235B424362FEF7E7
:1019C00087FFFEF795FE62B62B06D0D5201CFFF7E9
:1019D0009FFF23699B68002B07D005222270201CE3
:1019E000022198472378052B13D00023236172B678
:1019F000FEF75EFE0B4B5869002806D000225A61A4
:101A000001235B424362FEF763FFFEF771FE62B69D
:101A1000ADE702232370E8E702232370C1E7C04645
:101A200000240140B4090020C046C046C046C0465C
:101A300070B5041C080722D42369002B13D002259B
:101A40000D4211D01E78002E42D05D68002D0AD0C4
:101A5000E268012A38D9598852085143A3684900DD
:101A60005918201CA84770BD4807FCD55B68002B9F
:101A7000F9D0E068A1684208201C9847F3E7201CD1
:101A8000FFF746FF23699B68002B07D005222270D1
:101A9000201C002198472378052B12D000232361B6
:101AA00072B6FEF705FE6069002806D00023636168
:101AB00001235B424362FEF70BFFFEF719FE62B69D
:101AC000D1E702232370E9E7A168201CA847CAE7F1
:101AD000201CFFF71DFF23695B68002B17D0042231
:101AE0002270201CA168E26898472378042B0BD051
:101AF00072B6FEF7DDFD60690028DED00023636169
:101B00004362FEF7E5FED8E725702661F0E7257011
:101B10002361EDE7C046C046C046C046C046C04649
:101B20002A4BBC225969D2030A435A614268902366
:101B3000DB055A6082689A60C268DA6002695A619D
:101B400042691A6282695A6202681A60026A204B0C
:101B50005A60426A9A60826ADA60C26A5A61026BAB
:101B60001A62426B5A62C2691A60C26B194B5A60A0
:101B7000026C9A60426CDA60826C5A61C26C1A62C2
:101B8000026D5A62826B1A60826D134B5A60C26D8D
:101B90009A60026EDA60426E5A61826E1A62C26E9A
:101BA0005A62426D1A60426F0C4B5A60826F9A60A3
:101BB000C26FDA60802282585A61842282581A6287
:101BC000882282585A62026F1A60704700100240E1
:101BD0000004004800080048000C004800140048B9
:101BE000F0B556464D465F464446F0B403275607C7
:101BF000D506540617405205120F072383B0A40FD1
:101C0000924600229946F60FAD0F0194131C2BE06B
:101C1000026AA243444622430262446801229A4077
:101C200094433443446082685C0090460322A2409F
:101C3000D243444614402C4384609446C268141C2A
:101C400062461440019A1443C4600468221C64462E
:101C500022403A43026049081CD0019A7600920063
:101C6000AD000192BF00013301240C42F3D04A467B
:101C70001A40920054469440A0460F249440A44633
:101C8000072BC5D9426A141C62469443424614434A
:101C90004462C2E703B03CBC90469946A246AB46BC
:101CA000F0BDC046C046C046C046C046C046C0465D
:101CB000024B802219680A431A60704700380140BD
:101CC000F8B54F464646C0B4F046FEF731FD3E4EED
:101CD000756F2F68EC692C62220738D1E3052AD48E
:101CE000A2061CD480233B4201D0234251D163067B
:101CF0000CD572B6FEF7DCFC301D1021FFF7B8F8EA
:101D0000FEF7F6FC62B640239F432F60FEF730FDDE
:101D10004046FEF745FB0CBC90469946F8BD72B6AE
:101D2000FEF7C6FC696A301CC9B2FFF7D1FBFEF7AB
:101D3000DFFC62B6D6E772B6FEF7BAFC8021301D32
:101D40008900FFF795F8FEF7D3FC62B6C8E72307D2
:101D5000DB0FDB019946E30703D54A4620231A43EC
:101D60009146A30703D54A4640231A439146630789
:101D700004D580234A465B001A43914672B6FEF7AB
:101D800097FC301D4946FFF773F8FEF7B1FC62B6C9
:101D9000A4E772B6FEF78CFC301C3030FFF780F9F8
:101DA000002805DB80B22885FEF7A2FC62B69EE71C
:101DB000301D0821FFF75CF8C0233A1C9A434023EA
:101DC00013432B60F0E7C046E8090020C046C04638
:101DD00010B5054C0021201C044AFFF749FB044BB9
:101DE0006367044BA36710BDE8090020B11C00081D
:101DF00000380140006CDC02C046C046C046C04608
:101E000070B5061C0C1E28D0337A012B17D0B06F8A
:101E10002168FEF7ADF9A268756F4023134380B2C5
:101E2000E268A8816B6001231343AB6062682E23D4
:101E3000FF3313432B6001235B422B6270BD084BC1
:101E40009E42E4D1074B80229969D2010A439A61EC
:101E50001B20C021FEF70CFBD9E7034CD4E7C0469A
:101E6000E809002000100240E0280008C046C046F3
:101E700008B5FFF76DFC08BDC046C046C046C04669
:101E80007047C046C046C046C046C046C046C04671
:101E90000EB400B582B003AA08CA191C019200F062
:101EA0004FFA02B008BC03B01847C046C046C0464F
:101EB00008B5002904DD0549054AFFF7E9FF08BD1B
:101EC000044B0549DA68FFF7E3FFF8E780290008CB
:101ED0008C2900083409002094290008C046C04617
:101EE00010B5041C82B0002905DD1849184AFFF717
:101EF000CFFF02B010BD1749174AFFF7C9FF201CDA
:101F00001649174AFFF7C4FF201C1649164AFFF767
:101F1000BFFF201C1549164AFFF7BAFF201C1549C0
:101F2000154AFFF7B5FF201C1449154AFFF7B0FF0B
:101F3000201C1449144AFFF7ABFF144B201C0093DC
:101F40001349144A144BFFF7A3FFD2E78029000876
:101F50009C290008A4290008B8290008C8290008FD
:101F6000DC290008242A0008382A0008402A000832
:101F7000542A0008602A0008742A00088C2A0008E5
:101F8000A02A0008D82A0008EC2A00082C2B0008F8
:101F9000042B00081C2B0008282B0008C046C04654
:101FA00070B5041C0D1C002817D028600E4E201C94
:101FB000311C00F0FDFB2418201C311C00F0C8FB74
:101FC00000280ED0431C2B60002303702378002BC5
:101FD00001D1002070BD201CFCE70C68002CE5D16D
:101FE000F7E72860F2E7C046382B0008C046C04635
:101FF000014B1B607047C046640A0020C046C046C3
:1020000010B5041C72B6FEF713FB00210348FEF75F
:102010002FFF201CFEF7CCFD10BDC046640A002037
:1020200000B583B00090034B0020FEF721FE03B003
:1020300000BDC046F1200008C046C046C046C046AC
:10204000F0B5474680B4013A82B06D465218041C80
:102050000F1C0E1C073590462368201C5B68291C4A
:1020600001229847002819D0297804292DD0082961
:1020700019D00D292FD01F29EED94645ECD2226860
:10208000201C926890472B78201C33702368291CF1
:102090005B680122013698470028E5D1012002B093
:1020A00004BC9046F0BDBE42D6D02368201C9B687D
:1020B0009847236820219B68201C9847236829782B
:1020C0009B68201C9847013EC6E7201C0649FFF785
:1020D000DFFE0120E3E7201C0449FFF7D9FE0023BF
:1020E00033700020DBE7C0463C2B0008E82A0008DC
:1020F000F0B556465F4644464D46F0B44268634BE1
:1021000006689B699346624A97B09A61301C6149A0
:10211000FFF7BEFE604B614A98469246301C41462E
:10212000FFF7B6FE301C06A94022FFF789FF002802
:1021300030D1694606A8FFF733FF6946071C002027
:10214000002401ADFFF72CFF00280AD0042C1AD080
:10215000A300E850694600200134FFF721FF002862
:10216000F4D1A300E850002FD8D0381C514600F01D
:10217000C7FA00281DD1002C10D0301C4849524607
:10218000FFF786FECAE7301C4649FFF781FE0023B1
:102190002B61C3E7301C4449FFF77AFE0020FFF7AC
:1021A0002FFF002017B03CBC90469946A246AB4694
:1021B000F0BD381C3D4900F0A3FA002807D1301CBF
:1021C000002C1CD03649394AFFF762FEA6E7384B8F
:1021D00018689946002806D13AE0082399444A46EF
:1021E0001068002834D0391C00F08AFA0028F4D195
:1021F0004A465368301C211C2A1C98478EE72D49FB
:10220000FFF746FE2A4C2268002A0BD02A4D0834DC
:10221000301C291C0834FFF73BFE231C083B1A68BE
:10222000002AF5D15B46002B0DD05B461A68002AC8
:1022300009D0214D5C46301C291C0834FFF728FECC
:102240002268002AF7D1301C1C49FFF721FE65E700
:102250005B46002B10D0186800280DD0D94605E049
:10226000082399444A461068002805D0391C00F01C
:1022700047FA0028F4D1BBE7301C11493A1CFFF79C
:1022800007FE301C0F49FFF703FE47E74409002013
:10229000402B0008482B0008602B00088C2B0008FE
:1022A00080290008742B0008682B0008942B000874
:1022B000000800209C2B0008B42B0008E82A000826
:1022C000B82B0008BC2B0008C046C046C046C0461C
:1022D000F0B5454690460B2257464E4682469146FB
:1022E000D144E0B40E1C0F1C4D46301C4146FDF796
:1022F00083FF0C1C3034392C00DD0734013DE4B27F
:10230000301C41462C70FDF733FF4146061C381C3B
:10231000FDF72EFF071EE8D14A465046531BC3184F
:1023200001E06C780135047001309842F9D11CBC91
:1023300090469946A246F0BDC046C046C046C0463B
:10234000F0B55F46564644464D46F0B489B00C1C85
:1023500069461531071C05A88346081A161C019109
:1023600003902178651C00290AD025290FD03B68ED
:102370002C1C9B68381C98472178651C0029F4D1D7
:1023800009B03CBC90469946A246AB46F0BD627887
:102390002D2A00D1D5E0002002902E2A00D1B7E0EE
:1023A00020218846302A00D1B2E02C1C002506E00E
:1023B00033780436AA0055196D002278ED18131CE5
:1023C000303BDBB20134092BF4D92A2AF0D00020AB
:1023D00000902E2A00D1A0E0DF2313404C2B00D127
:1023E0008FE0131C443BDBB2342B00D983E06A48F6
:1023F0009B00C3589F460A22316858460436FFF7AF
:1024000067FF5946411A8946DA464B46ED1AEB43B7
:102410000298DB171D4000284BD16D42002D10D0D3
:1024200051460B782D2B00D193E0231C444698464F
:102430003B68381C9B68211C01359847002DF7D15B
:1024400044463B68381C1B6851464A46984788E713
:102450000822D1E7316858460436002900DA8AE0BC
:102460000A22CCE73268301D9246002A00D189E06A
:10247000009A002A6AD051460B78002B00D184E0E4
:10248000009A5346111C514401E08B4203D00133A2
:102490001A78002AF9D15146591A89464B46ED1A45
:1024A000EB43061C02982022DB1790461D400028B3
:1024B000B3D03B68381C1B6851464A469847002DEC
:1024C00000D14EE7231C444698463B68381C9B6865
:1024D000211C013D9847002DF7D1444641E7336860
:1024E00003985A4620211370814604368846DA46FE
:1024F0008BE7102280E703985B461A708146DA4624
:1025000083E72378002B00D16BE701341A1C68E7BE
:1025100030236A789846013547E7002105E0337893
:1025200004368A005118490059180134631E1A787C
:10253000131C303BDBB2092BF3D92A2AEFD00091D0
:102540004AE70123A51CA278029326E7134B0093C8
:1025500091E74246302A00D067E701239A443B685E
:10256000381C9B682D2198470120231C404244467B
:10257000814498465CE72D23037068464942153034
:102580000A223CE706498A4672E700212022061CFF
:102590008946904639E7C046D02B0008FF7F0000EF
:1025A000B02C0008C046C046C046C046C046C04623
:1025B000014B01221A607047680A0020C046C046DD
:1025C0007047C046C046C046C046C046C046C0462A
:1025D00010B5074C84B0201C0021FEF7D9FE201C4A
:1025E00004496A460823FEF7E3FE04B010BDC04666
:1025F000B4090020C02C0008C046C046C046C046F2
:102600000EB400B582B003AA08CA191C0192FFF7E4
:1026100097FE02B008BC03B01847C046C046C0468B
:1026200070B5124B124CE022520482B01A60201C8A
:102630001049FFF7E5FF0023982100930E480F4B48
:1026400049004022FEF784FA0D4D2B68002B07D17C
:102650000C4E201C311CFFF7D3FF2B68002BF8D049
:10266000201C0949FFF7CCFF02B070BD08270140CC
:10267000E8090020E02C0008700A0020D12500089D
:10268000680A00200C2D0008002D0008C046C04636
:10269000084B70B59B69084A8025AD00074C9A61CC
:1026A0002E1C6683FA20FEF773FA2583FA20FEF7C4
:1026B0006FFAF6E744090020402D000800080048A2
:1026C000094B70B59B69094A80256D00084C9A61D9
:1026D0002E1CFA2066834000FEF75AFAFA20258362
:1026E0004000FEF755FAF4E7440900204C2D00089D
:1026F00000080048C046C046C046C046C046C04666
:10270000114BF0B51E68032500230AE0CA5CB71818
:102710007F782F40012F12D0A41A13D10133002A41
:1027200010D0C25CB4186778141C2F40012FEDD173
:10273000CA5C2034B7187F782F40012FECD12032AB
:10274000A41AEBD0201CF0BD1808002000000000E7
:1027500070B50478061C002C21D00D78002D18D0FF
:10276000A54211D00B1C01E094420CD001331A7821
:10277000002AF9D101363478002CEFD11D780020E1
:10278000002D04D170BD251C0020002DFAD0301C76
:10279000F8E7013634780B1C002CDFD1EEE700207F
:1027A000F0E7C0460000000000000000000000004C
:1027B00070B50478002C14D00E78002E11D0051CB2
:1027C000B44209D00B1C01E0944205D001331A78C1
:1027D000002AF9D1281A70BD01352C78002CEFD1D0
:1027E000F8E70020F7E7C046000000000000000006
:1027F00069646C650000000000000000000000003B
:1028000053562331000000005356233200000000CD
:1028100053562333000000005356233400000000B9
:1028200053562335000000005356233600000000A5
:102830005356233700000000535623380000000091
:102840005356233900000000535623313000000056
:10285000535623313100000000000000000000004A
:102860006D61696E0016C011040448080C1014183C
:10287000001C1D1E1F2000000000000000000000C2
:1028800011140008F1130008511400083114000855
:10289000411400082114000801140008E113000885
:1028A0000800024004000240000009001C00024031
:1028B0000400024004010A0030000240040002400B
:1028C00008020A0044000240040002400C030B000E
:1028D000580002400400024010040B0000000000F9
:1028E0000096000000000000004000000000000012
:1028F0000000002800000000000000FC5455556551
:10290000FFFF0000000000000000000000000000C9
:1029100000000000F003000055555555FFFF000072
:1029200000000000000000000000050000000000A2
:1029300000000FF055555005FFFC0000000000009E
:102940000000000000000000000000000000000087
:1029500055555555FFFF0000000000000000000025
:102960000000000000000000000000005055555518
:10297000FFFF000000000000000000000000000059
:1029800055736167653A2025730D0A007379737476
:10299000696D6500256C750D0A000000696E666F33
:1029A000000000004B65726E656C3A2020202020EC
:1029B000202025730D0A0000322E372E30756E73DD
:1029C0007461626C65000000436F6D70696C6572C4
:1029D0003A202020202025730D0A00004743432081
:1029E000342E382E332032303133313132392028F1
:1029F00072656C6561736529205B41524D2F656D71
:102A00006265646465642D345F382D6272616E6343
:102A100068207265766973696F6E2032303536349E
:102A2000315D000041726368697465637475726535
:102A30003A2025730D0A000041524D76362D4D0087
:102A4000436F72652056617269616E743A20257316
:102A50000D0A0000436F727465782D4D3000000040
:102A6000506F727420496E666F3A202020202573C3
:102A70000D0A0000507265656D7074696F6E207488
:102A800068726F756768204E4D490000506C617424
:102A9000666F726D3A202020202025730D0A0000F9
:102AA00053544D33324630353178782F46303631F5
:102AB000787820456E747279204C6576656C204D6F
:102AC000656469756D2044656E7369747920646509
:102AD0007669636573000000426F6172643A20207A
:102AE00020202020202025730D0A0000535420535D
:102AF000544D333246302D446973636F7665727975
:102B0000000000004275696C642074696D653A20AC
:102B100020202573257325730D0A00004D61722056
:102B20002035203230313400202D200031393A3127
:102B3000323A323500000000200900005E440000F7
:102B40007368656C6C0000000D0A43686962694F28
:102B5000532F5254205368656C6C0D0A000000001E
:102B600063683E20000000000D0A6C6F676F75748B
:102B700000000000746F6F206D616E7920617267D4
:102B8000756D656E74730D0A0000000065786974D8
:102B90000000000068656C7000000000436F6D6D00
:102BA000616E64733A2068656C7020657869742082
:102BB000000000002573200025730000203F0D0A4F
:102BC0000000000000000000000000000000000005
:102BD00054240008F6240008F6240008F62400080F
:102BE000F624000854240008F6240008F6240008FF
:102BF000F6240008F6240008F624000850240008F3
:102C0000F6240008F6240008F6240008F62400083C
:102C1000F6240008F6230008F6240008F62400082D
:102C2000F2240008F6240008F6240008F624000820
:102C3000F6240008F6240008F6240008F62400080C
:102C4000F6240008F6240008F6240008DE24000814
:102C500054240008F6240008F6240008F62400088E
:102C6000F624000854240008F6240008F62400087E
:102C7000F6240008F6240008F62400085024000872
:102C8000F6240008F6240008F6240008642400084E
:102C9000F6240008F6230008F6240008F6240008AD
:102CA000F224000800000000000000000000000006
:102CB000286E756C6C290000000000000000000008
:102CC00000000100B1250008C12500080000000037
:102CD00000000000000000000004000000000000F0
:102CE00054656D706572617475726520436F6E76A0
:102CF000657273696F6E205374617274656400004D
:102D0000444F4F4F4F4F4F4E45000000776169745D
:102D1000696E670048656C6C6F20576F726C640059
:102D2000582D0008212600080000000000000000C7
:102D3000E8090020202D000800000000000000002D
:102D4000626C696E6B65723200000000626C696EC5
:102D50006B6572310000000074656D70000000004A
:102D6000002020202020202020202828282828205B
:102D70002020202020202020202020202020202053
:102D800020881010101010101010101010101010BB
:102D900010040404040404040404041010101010AB
:102DA0001010414141414141010101010101010175
:102DB00001010101010101010101010110101010C7
:102DC0001010424242424242020202020202020247
:102DD000020202020202020202020202101010109B
:102DE00020000000000000000000000000000000C3
:102DF00000000000000000000000000000000000D3
:102E000000000000000000000000000000000000C2
:102E100000000000000000000000000000000000B2
:102E200000000000000000000000000000000000A2
:102E30000000000000000000000000000000000092
:102E40000000000000000000000000000000000082
:102E50000000000000000000000000000000000072
:042E6000000000006E
:102E68009C290008E11E00088C290008B11E0008F2
:0C2E78000000000000000000602D0008B9
:0400000508000241AC
:00000001FF
