:020000040800F2
:100000000004002011080008610900082109000807
:100010002109000821090008210900082109000818
:100020002109000821090008210900082109000808
:10003000210900082109000821090008D109000848
:1000400021090008210900082109000821090008E8
:1000500021090008210900082109000821090008D8
:1000600021090008A11B0008E11B0008311C000841
:10007000E11F000871250008A125000821090008DA
:1000800021090008210900082109000821090008A8
:10009000210900082109000821090008412300085E
:1000A000210900082109000821090008412600084B
:1000B0002109000821090008210900082109000878
:1000C00030B583B001F024FC00F00AFD2048002187
:1000D00001F01EFD90208021C0058900822202F0DF
:1000E000C7F890208021C005C900822202F0C0F824
:1000F00018480321032202F0BBF80024982149008C
:100100004022154B0094154801F00AF89821490047
:100110004022134B0094134801F002F802F028FC2F
:10012000114D03E0FA20800001F01AF8002C07D0EE
:10013000237F0E2BF6D1201C01F052F80024F1E7AA
:100140009621281CC900402202F02AFC041CE9E781
:100150006C0A00200008004861310008280C0020CB
:1001600031310008580D0020B0380008C046C046A4
:10017000002934D00123002210B488422CD301245A
:100180002407A14204D2814202D209011B01F8E7EF
:10019000E400A14204D2814202D249005B00F8E7A8
:1001A000884201D3401A1A434C08A04202D3001BD4
:1001B0005C0822438C08A04202D3001B9C08224307
:1001C000CC08A04202D3001BDC082243002803D045
:1001D0001B0901D00909E3E7101C10BC7047002877
:1001E00001D00020C04307B4024802A14018029089
:1001F00003BDC0461D0000000029F0D003B5FFF785
:10020000B9FF0EBC4243891A1847C04600000000DF
:100210007047C04600000000000000000000000021
:10022000F0B55F4656464D464446F0B4460245009A
:10023000C00F85B00F1C760A2D0E804641D0FF2DD1
:1002400026D08024240400212643F6007F3D8946E1
:100250008B46F90F7C027800640A000E00918A46F2
:100260003CD0FF2834D080231B041C430023E4002F
:100270007F380193009F4346019A7B4049469C4644
:1002800011430F2900D970E0754F89007F58BF4690
:10029000002E3ED10822022391469B46D9E75A46BA
:1002A000341CC24601920199022937D0032900D19A
:1002B000CEE0012900D0AAE053460B4000220026E0
:1002C00032E0002E19D10421012289469346C0E76D
:1002D000221C531E9A4102320192CBE7012701975B
:1002E000002CC7D0201C00F063FA431F9C407623EB
:1002F0005B420021181A0191BCE7301C00F058FA4B
:100300007625431F9E406D4200232D1A99469B4639
:100310009FE70C23032199468B469AE7D446012395
:1003200067463B40FF2200267602D205700ADB07B3
:100330001043184305B03CBC90469946A246AB46D4
:10034000F0BD0023474EFF22EEE700220026EBE738
:100350008020C00306423BD0044239D1061C26430C
:100360007602760A009BFF22DEE7281A03907601C8
:100370006401A64239D3361B1A2201230120311C05
:100380005B007600002901DBB44201D8361B034331
:10039000013A002AF3DC741EA641341C1C43039A64
:1003A0007F32002A27DD630704D00F232340042B6C
:1003B00000D00434270103D52B4B039A1C40803214
:1003C000FE2A0BDD012361460B40FF220026ABE72E
:1003D00006437602760A4346FF22A5E7A4010123DD
:1003E0006746660AD2B23B409EE7039F1B22013F4D
:1003F00003970023C2E77E23039F5B42DB1B1B2B7B
:1004000007DD012361460B40002200268CE7D4461D
:10041000C5E7221CDA40039B9E339C40231C5C1ED4
:10042000A34113435A0704D00F221A40042A00D0D4
:1004300004335F0105D5012361460B4001220026EC
:1004400072E79E01624601231340760A00226BE7A1
:100450008026F60326437602760A5346FF2263E798
:10046000B0320008FFFF7F00FFFFFFF70000000031
:10047000F0B55F4656464D464446F0B44402460049
:1004800083B00F1C640A360EC50F002E41D0FF2E1C
:1004900022D080231B0400201C43E4007F3E8246C0
:1004A0008046391C4B007F02C90F7F0A1B0E8B460A
:1004B0003BD0FF2B34D0802212041743FF007F3B38
:1004C00000215A466A40019252460A430F2A62D8D6
:1004D0007A48920082589746002C3FD10822022386
:1004E00092469846DDE70195404602282AD1019AB6
:1004F00001251540FF2300246402DB05600AED0797
:100500001843284303B03CBC90469946A246AB46EC
:10051000F0BD002C27D10420012282469046C0E77E
:10052000391C4A1E91410231CBE70121002FC8D06E
:10053000381C00F03DF9431F9F4076235B421B1A95
:100540000021BEE7032800D1ADE001284ED101987B
:1005500042461040C5B200230024CDE70C230320FF
:100560009A4680469DE7201C00F022F97626431F1C
:100570009C4076420023361A9A46984691E7002519
:100580004F4CFF23B8E75B463C1C01938846ABE722
:100590003C1C8846A8E7250C24043A0C240C3F0494
:1005A000F6183F0C211C231C794353436F435543DA
:1005B000FB180A0C9B18B1469F4202D980225202B6
:1005C000AD1809041A04090C521894011B0C611E81
:1005D0008C41920EED181443AD012C43230105D537
:1005E000012263080120144081441C434B467F33A1
:1005F000002B2DDD600704D00F222240042A00D0FA
:100600000434220103D52F4B1C404B468033FE2B74
:1006100017DD019B01251D400024FF236CE780208E
:10062000C003044208D0074206D1041C3C436402C4
:10063000640A5D46FF235FE704436402640AFF2304
:100640005AE70198A4010125640ADBB2054053E78B
:100650007E235B424A469B1A1B2B05DD019B01252D
:100660001D400024002347E7221CDA404B469E33FE
:100670009C40231C5C1EA3411343580704D00F2247
:100680001A40042A00D004335A0105D5019B0125E4
:100690001D40002401232FE701989C010125640AD5
:1006A0000540002328E78027FF03019B3C436402A9
:1006B00001251D40640AFF231EE7C046F0320008F2
:1006C000FFFF7F00FFFFFFF70000000000000000B9
:1006D0004302590A4300C20F1B0E00207E2B0DDD82
:1006E0009D2B0CDC802000040143952B0ADC962016
:1006F000C31AD9404842002A00D1081C7047034B56
:10070000D018FBE7963B9940F4E7C046FFFFFF7F18
:1007100010B5041E33D000F04BF89E231B1A962B05
:1007200009DC083884406402640ADBB26402DB0539
:10073000600A184310BD992B0ADD0522121A211CEC
:10074000D1400A1C011C1B318C40611E8C4114439A
:10075000052801DD421F9440144A2240610704D05D
:100760000F210C40042C00D0043251010AD59F23E4
:10077000181AFF2816D09401640AC3B2D6E70023E2
:100780000024D3E7D208FF2B03D05402640ADBB263
:10079000CCE7002A06D08024E40314436402640AF0
:1007A000FF23C3E7FF230024C0E7C046FFFFFFFB92
:1007B0001C2101231B04984201D3000C10391B0A91
:1007C000984201D3000A08391B09984201D3000955
:1007D000043902A2105C40187047C04604030202AC
:1007E0000101010100000000000000000000000005
:1007F0007047C046C046C046C046C046C046C04618
:10080000FEE7C046C046C046C046C046C046C046D9
:1008100072B63448051C80F30988022383F31488D8
:10082000BFF36F8F304B314A934209D21C1DD11C4C
:10083000091B890889002E4A611804C38B42FCD128
:100840002C4B834209D21A1DE91C891A8908890098
:100850005118274A04C38B42FCD101F0C9FF264A34
:10086000264B9A420BD2D043C0188008013024494D
:1008700080000023CC58D45004338342FAD1214B5A
:10088000214A934209D2181DD11C091A89088900EE
:100890004118002204C38B42FCD1FFF7A9FF1B4D76
:1008A0001B4B9D420AD2EE43F618B60801360024CF
:1008B000A300EB5801349847B442F9D1FFF700FC8C
:1008C000144D154B9D420AD2EE43F618B608013678
:1008D0000024A300EB5801349847B442F9D1FFF744
:1008E0008FFFC04600080020000000200004002008
:1008F0005555555500040020000800201C08002014
:10090000283A000820080020880E0020C0000008B7
:10091000C0000008C0000008C0000008C046C04673
:10092000FEE7C046C046C046C046C046C046C046B8
:1009300072B6FEE7C046C046C046C046C046C04686
:1009400000F05EF900F08CFB00F07AF98022024B97
:1009500012065A60FEE7C04600ED00E0C046C04601
:10096000EFF30983203383F3098862B67047C046EA
:100970000F3019D072B6EFF309831A1C203A82F3B4
:1009800009880F4880225204203B8169DA61CA7FBE
:10099000002A0AD100688968806888425241D2B230
:1009A000002A0AD1074A9A617047026889689268EA
:1009B000914292415242002AF4D0034A9A61F3E7ED
:1009C000440900204C09000841090008C046C046FF
:1009D00010B5744600F094F972B600F051F900F0C9
:1009E000BFF800F06DF962B600F0AAF9201CFFF71D
:1009F000BFFF10BDC046C046C046C046C046C04648
:100A0000F0B544464D4656465F46F0B46B46CB6063
:100A1000C3689D46F0BCA046A946B246BB46F0BDA1
:100A200008B500F00DF962B6281CA04700F0C8FB1D
:100A300008BDC046C046C046C046C046C046C046C7
:100A400082080F4B920070B5D2180324C0239B007C
:100A50000440D558E400FF26A640B543A1402C1C15
:100A60000C43D4501F23034001229A40131C400919
:100A7000034A80008018C02252008350036070BD7A
:100A800000E100E0C046C046C046C046C046C04681
:100A90008308084A10B59B0003249B1820409A69DC
:100AA000C000FF248440A2438140101C0843986189
:100AB00010BDC04600ED00E0C046C046C046C0467E
:100AC000024B034A9B699A61FEE7C0464409002035
:100AD00030330008C046C046C046C046C046C04687
:100AE00000B5164A164B83B0DA600A200021FFF7E2
:100AF000CFFF0B208021FFF7CBFF00F0C1F900F002
:100B00006FF900F025FE00F063FE40210D4800F073
:100B1000B7FA0D4B98610123037700F059F862B6DC
:100B2000094B0A4A9B69C0219A6100230093012264
:100B3000074B084800F0F4FA03B000BD0000FA05C6
:100B400000ED00E0E008002044090020A033000888
:100B5000C10A000820080020C046C046C046C04662
:100B6000F8B500F00DF9154B9B69DA7F002A01D02A
:100B7000013ADA771A6A01321A62114BDA681C6894
:100B80000132DA609C4218D0A268013AA260002AC1
:100B900013D100271D1C2268E668E76053601A60C5
:100BA00000F08EF862B62069B04772B600F068F8BF
:100BB0002C682B1CA268002AEDD0F8BD4409002047
:100BC00034090020C046C046C046C046C046C046A4
:100BD00008B5074B1B68002B03D1064B1B68002B85
:100BE00004D0054A054B1A60FFF7A2FE08BDC046B7
:100BF000280900202C09002050330008300900206B
:100C0000084B10B51B68084C002B02D12368002B41
:100C100004D0064A064B1A60FFF78AFE01232360C0
:100C200010BDC046280900202C09002058330008B8
:100C300030090020C046C046C046C046C046C04637
:100C4000084B10B51B68084C002B05D12368002BFE
:100C500002DD0023236010BD044A054B1A60FFF734
:100C600067FEF6E7280900202C0900206033000801
:100C700030090020C046C046C046C046C046C046F7
:100C8000084B10B51B68084C002B02DD2368002BB5
:100C900004D0064A064B1A60FFF74AFE0123236080
:100CA00010BDC046280900202C0900206833000828
:100CB00030090020C046C046C046C046C046C046B7
:100CC000084B10B51B68084C002B05DD2368002B72
:100CD00002DD0023236010BD044A054B1A60FFF7B4
:100CE00027FEF6E7280900202C09002070330008B1
:100CF00030090020C046C046C046C046C046C04677
:100D000010B572B6084C2368002B03DB074A126843
:100D1000002A05D0064B074A1A60FFF709FE236830
:100D20000133236062B610BD280900202C09002081
:100D30003009002078330008C046C046C046C0468F
:100D400010B572B6084C2368002B03DD074A126801
:100D5000002A05D0064B074A1A60FFF7E9FD236811
:100D6000013B236062B610BD280900202C09002039
:100D70003009002080330008C046C046C046C04647
:100D800008B5074B1B68002B04DB064B1B68002BC8
:100D900000DD08BD044A054B1A60FFF7C9FDF8E7FE
:100DA000280900202C090020883300083009002081
:100DB00008B5074B1B68002B04D1064B1B68002BA2
:100DC00000DD08BD044A054B1A60FFF7B1FDF8E7E6
:100DD000280900202C090020903300083009002049
:100DE000044B012252429A6000225B601B60DA6071
:100DF0007047C04634090020C046C046C046C046C1
:100E0000F8B5051C161C1F1C0C1CFFF7B9FF0C497C
:100E10002F610B68EE609A68944204D91B68A41A8B
:100E20009A68A242FAD35A682B606A605D601560C6
:100E3000AC608B4202D09A68141B9C60F8BDC0461F
:100E400034090020C046C046C046C046C046C04621
:100E500010B5041CFFF794FF2368074A934203D0A0
:100E60009868A16842189A606268136023685A60A3
:100E70000023E36010BDC04634090020C046C046D0
:100E8000034B00225B601B609A605B611B617047D3
:100E900044090020C046C046C046C046C046C046C1
:100EA00010B5041CFFF76CFF00232377A268064BE4
:100EB0001B6899689142FBD25A6823606260201CCB
:100EC0005C60146010BDC04644090020C046C046A6
:100ED00010B5041C72B6FFF7D3FE237F032B16D088
:100EE0000FD9052B01D00D2B04D1226863681A603D
:100EF0002268536001235B426362201CFFF7D0FF2E
:100F000001E0002BF6D1FFF7DBFE62B610BD636A8D
:100F10009A6801329A60226863681A602268536096
:100F2000E8E7C046C046C046C046C046C046C046C8
:100F300010B5041CFFF73CFF074B14229969186891
:100F4000CA7702680C771A605360986101230377AF
:100F5000FFF756FD10BDC04644090020C046C046FC
:100F600070B50C1C86B0061CFFF722FF631C13D063
:100F70000C4D01A8AB69211C0B4AFFF741FF301C47
:100F8000FFF7D6FF049B002B02D001A8FFF760FFFC
:100F9000AB69586A06B070BD301CFFF7C9FF014D40
:100FA000F6E7C04644090020D10E0008C046C046FE
:100FB00038B5041C0D1CFFF7FBFE6562094DA268E5
:100FC000A86983689A4209D9FFF76AFF0123011CC7
:100FD0002377201CAC61FFF713FD38BD201CFFF701
:100FE0005FFFFAE744090020C046C046C046C0463D
:100FF00038B5094C2368A5691A68281C546022601A
:1010000001221A77A3611423EB77FFF749FF291C0C
:10101000A069FFF7F5FC38BD44090020C046C04672
:101020000D4B10B518689969026853601A60986191
:101030000123037700230B778A68031C00E01B68F9
:101040009C689442FBD85A680B604A6059601160F2
:10105000FFF7D6FC10BDC04644090020C046C0467C
:1010600008B5054B9B69DB7F002B02D0FFF7D8FF4B
:1010700008BDFFF7BDFFFBE744090020C046C0469E
:101080000223037700234377C3638363036283618F
:101090001422094BC277012282775A690361816069
:1010A00042615861031C2833016410618362043378
:1010B0000363C3627047C04644090020C046C0466F
:1010C000F8B50F1C041C151C1E1CFFF759FE391C1B
:1010D000069B24396118E1604B610F4B0E610B6276
:1010E0000223237700236377E363A3632362A3616F
:1010F00014220A4BE2770122A2775A69A560236184
:1011000062615C61231C283325641461A36204338B
:10111000201C2363E362F8BD210A00084409002073
:10112000F0B5071C83B00E1C151C1C1C72B6FFF713
:1011300067FD089B2A1C0093311C231C381CFFF7F9
:10114000BFFF0021041CFFF733FFFFF779FD62B6F4
:10115000201C03B0F0BDC046C046C046C046C046D5
:1011600010B5041C72B6FFF74BFD211C0620FFF7DB
:10117000F7FEFFF765FD62B610BDC046C046C0462B
:1011800038B50D4B9C696062251CA06A2835A842C1
:1011900006D00368A362FFF783FEA06AA842F8D1D5
:1011A000637F9A0704D1226963691A6122695361D6
:1011B0000E20FFF7BDFE38BD44090020C046C046E2
:1011C00010B5041C72B6FFF71BFD201CFFF7D8FFFB
:1011D00010BDC046C046C046C046C046C046C04618
:1011E00038B5041C72B6FFF70BFDA57F013DEDB2CB
:1011F000A577FFF725FD62B6002D02D1237F0E2BC8
:1012000000D038BD637F03221340012B0BD0022B8B
:10121000F7D122696369606C1A612269211C5361EC
:1012200000F066FBEDE722696369201C1A61226900
:10123000536100F01DFBE4E7C046C046C046C0460F
:10124000F0B583B00C1C171C1E1C00F0D1FA051E53
:1012500016D072B6FFF7D4FC089B3A1C0093211CF1
:10126000331C281CFFF72CFF012343770021041CAB
:10127000FFF79EFEFFF7E4FC62B6201C03B0F0BD52
:101280000020FBE7C046C046C046C046C046C04638
:1012900000234060006083607047C046C046C0467F
:1012A000304B70B5051C9C69FFF782FDA8680028CB
:1012B00053D0A26881688A4207D9037F8260042BD9
:1012C00032D0052B1CD0002B12D02B1C03E09A68C7
:1012D000A668B24202D31B689D42F8D15A682360C7
:1012E000626004205C6014606562FFF721FE70BDDF
:1012F00043680168196002685360FFF7D1FDE4E7B5
:1013000043680168196001684B60416A0B1C02E088
:101310009E68964202D31B689942F9D15A680360CD
:10132000426058601060D0E7436806681E6001683C
:101330004B60416A0B1C02E09E68964202D31B6818
:101340009942F9D15A680360426058601060886819
:10135000A26881689142B0D3B7E7E16BAC60E96005
:10136000E563C4E744090020C046C046C046C04605
:1013700010B5041C72B6FFF743FC201CFFF790FF6A
:10138000FFF75EFC62B610BDC046C046C046C04610
:1013900038B5154B9D6972B6FFF732FCEC6BE3680C
:1013A0002068EB63A0421CD0296C002B09D01A687E
:1013B0009A4203D09268914200D2111CDB68002B44
:1013C000F5D10368A96023605C60C36BA060E36033
:1013D0000021C463FFF7ECFDFFF732FC62B6201C6E
:1013E00038BD0023A360F7E744090020C046C0468B
:1013F00038B5041C0D1CFFF7C3FCA16B237F2943E8
:10140000A163082B0CD0092B00D038BD636A1940AA
:101410008B42FAD1201CFFF743FD00234362F4E71F
:10142000636A0B42F1D0201CFFF73AFD00234362B0
:10143000EBE7C046C046C046C046C046C046C046B0
:1014400070B5051C0E1CFFF79BFC2C68A54209D04B
:10145000E36860683343E360A168FFF7C9FF24686D
:10146000A542F5D170BDC046C046C046C046C04684
:1014700008B500290BD0074B9B6958624268186079
:101480005A60436013600D20FFF76AFD08BD01201C
:101490004042FBE744090020C046C046C046C04663
:1014A00010B5C361029B002441618161C16089184C
:1014B0004060006084600161036210BDC046C046A8
:1014C00038B5041C0D1CFFF75BFC6369A2699342ED
:1014D0001CD0A2680132A2605A1C62611D70626950
:1014E00023699A420BD22068A0420DD00368236082
:1014F0005C60FFF7D5FC00234362002038BDE36841
:1015000020686361A042F1D10020F7E7A268002AB9
:10151000E0D004204042F1E7C046C046C046C04685
:1015200070B5041C0E1C72B6FFF76AFBE369002B52
:1015300008D0201C984705E0201C311CFFF798FFBD
:10154000051E0DDBA368002BF6D0A269013BA3604A
:10155000531CA36115782269934201D3E368A36108
:10156000FFF76EFB62B6281C70BDC046C046C04681
:10157000F0B54E469146C26957464546E0B4041C54
:101580008A461E1C904672B6FFF73AFB0027434678
:10159000002B08D0201CC04705E0201C311CFFF7A1
:1015A00067FF00281AD1A568002DF6D0A369013D78
:1015B0005A1CA261A5601B785246D355A3692269C3
:1015C000934201D3E368A361FFF73AFB62B60137A8
:1015D000B94506D072B6FFF713FBD8E7FFF730FB2B
:1015E00062B6381C1CBC90469946A246F0BDC04667
:1015F000C361009B41618161C160891840600060E6
:101600008260016103627047C046C046C046C04662
:10161000F8B5041C0F1C161C72B6FFF7F1FA05E0B2
:10162000201C311CFFF724FF051E18DBA368002BCC
:10163000F6D0013BA36063695A1C62611F70626946
:1016400023699A4201D3E2686261E369002B01D009
:10165000201C9847FFF7F4FA62B60020F8BDFFF7A8
:10166000EFFA62B6281CF9E7C046C046C046C0463D
:1016700038B5041CFFF784FBA36962699A4217D04E
:10168000A2680132A2605A1CA2611D7823699A42A5
:101690000BD22068A04206D0036823605C60FFF78D
:1016A000FFFB00234362281C38BDE368A361F0E719
:1016B000A268002AE5D003204042F5E7C046C046B4
:1016C000F0B557464E464546E0B4161CC269041CA8
:1016D0000F1C9A46914672B6FFF792FA002398467D
:1016E000A568002D21D06269013D531CA56063618E
:1016F0003B787D1C1370626923699A4201D3E268CA
:1017000062614B46002B01D0201CC847FFF798FAB6
:1017100062B60122013E9044002E0FD072B6FFF750
:101720006FFA2F1CA568002DDDD1201C5146FFF754
:101730009FFE0028D4D0FFF783FA62B640461CBC57
:1017400090469946A246F0BDC046C046C046C04637
:1017500005490723054A073199431160044A9A4312
:10176000044B1A607047C046880E002064090020B0
:101770000020002060090020C046C046C046C04688
:1017800010B5041CFFF7FCFA0723E21D9A43064933
:10179000064B09681868091A8A4202D882181A602A
:1017A00010BD0020FCE7C04660090020640900204D
:1017B00010B5041C72B6FFF723FA201CFFF7E0FFF8
:1017C000041CFFF73DFA62B6201C10BDC046C0469F
:1017D00008B50548054B036000238360C3601030E3
:1017E000FFF756FD08BDC04668090020B117000884
:1017F000F8B5071E33D0381CCE1D07233D1C103012
:101800009E430835FFF7B4FD03E063689E4211D99B
:10181000251C2C68002CF8D1FFF7BAFD3B68002B83
:101820001FD0301C0830984700281AD00760466047
:101830000830F8BD321C08329A4207D92168296065
:101840002760FFF7A5FD201C0830F2E721689B1BED
:10185000A218083B116053602A606660F0E7024FEF
:10186000C9E70020E5E7C04668090020C046C04639
:1018700038B5041C083C2068051C08351030FFF7FB
:1018800077FD2B1CAB4204D0A34202D31B68AB42B2
:10189000FAD11A68002A03D0944201D3131CF1E74D
:1018A000616822601C600A1C08322068A21882420B
:1018B00008D05A68111C083159188C420ED0FFF715
:1018C00067FD38BD506812680918083161602260F0
:1018D0005A68111C083159188C42F0D1616824688B
:1018E000521808325A601C60E9E7C046C046C0463C
:1018F00038B5041C0D1C72B6FFF782F9FFF740FAE9
:1019000023682B602560FFF79BF962B638BDC0469F
:1019100008B500F01DFA0A4800F04AFC00F018F87B
:1019200000F056F800F074F800F0CAF800F020F962
:1019300000F066F800F07CF800F062FF08BDC046D9
:1019400030340008C046C046C046C046C046C04607
:1019500008B500F08DFA08BDC046C046C046C04676
:1019600008B501230370002343608360C3600361F3
:1019700043611830FFF78CFC08BDC046C046C04626
:1019800038B5041C0D1C72B6FFF73AF9201C6560CF
:1019900000F0A6FA02232370FFF752F962B638BDB1
:1019A000F8B5041C0D1C171C1E1C72B6FFF728F995
:1019B000FFF7E6F903232370201CA760E66025618A
:1019C00000F0BEFAFFF73CF962B6F8BDC046C0466B
:1019D00008B500F06DFD08BDC046C046C046C04613
:1019E00008B501230370002343600C30FFF750FC5F
:1019F00008BDC046C046C046C046C046C046C046F8
:101A00007047C046C046C046C046C046C046C046F5
:101A100008B500F0FDFD08BDC046C046C046C04642
:101A200001230370002343607047C046C046C04690
:101A300008B500F055FD08BDC046C046C046C046CA
:101A400008B50C30FFF794FD08BDC046C046C0463F
:101A500008B501230C305B42FFF78AFD08BDC04684
:101A600008B53030FFF72CFE08BDC046C046C04662
:101A700008B5012330305B42FFF722FE08BDC046A7
:101A800008B50C30FFF74CFD08BDC046C046C04647
:101A900008B501210C304942FFF742FD08BDC046A0
:101AA00008B53030FFF7B4FD08BDC046C046C0469B
:101AB00008B5012230305242FFF7AAFD08BDC046EA
:101AC00008B500F045FE08BDC046C046C046C04649
:101AD00030B5151C0D4A041C04C083B00B1C60609B
:101AE0000122201C211C22720C305431009410223F
:101AF000FFF7D6FC201C211C3030643100941022EA
:101B00002B1CFFF775FD03B030BDC046C033000885
:101B100038B5041C0D1C72B6FFF772F8201C291C86
:101B200000F02EFE02232372FFF78AF862B638BD5A
:101B300038B5041C0D1CFFF723F96369002B07D08F
:101B4000201C0C30291CFFF7BBFC00280BDB38BD28
:101B5000201D0421FFF774FC201C0C30291CFFF70A
:101B6000AFFC0028F3DA201D8021FFF769FCEEE7C7
:101B700008B500F0DDFC08BDC046C046C046C04602
:101B800008B5012303700023436083600C30FFF726
:101B90007FFB08BDC046C046C046C046C046C046E2
:101BA00010B57446FFF7ACF8084B0F211A681140C6
:101BB000074A59601368002B01D050689847FFF717
:101BC000BFF8201CFEF7D4FE10BDC0460000024046
:101BD00088090020C046C046C046C046C046C04630
:101BE00010B57446FFF78CF80F4B19680906090FFA
:101BF00007D00A015A600D4A9368002B01D0D068C3
:101C00009847094B19680905090F07D00A025A605D
:101C1000064A1369002B01D050699847FFF790F8E6
:101C2000201CFEF7A5FE10BD000002408809002020
:101C300010B57446FFF764F80F4B19680904090FD3
:101C400007D00A035A600D4A9369002B01D0D0696E
:101C50009847094B19680903090F07D00A045A600D
:101C6000064A136A002B01D0506A9847FFF768F8BC
:101C7000201CFEF77DFE10BD0000024088090020F8
:101C80000B4A002313600B4A0B4913600B4A136085
:101C90000B600B4993600B600A4913610B600A49A2
:101CA00093610B601362094B012252425A607047E4
:101CB000B0090020080002401C00024088090020F2
:101CC0003000024044000240580002400000024040
:101CD000F0B54F4680B4194C8C46477A111C01224E
:101CE000161C2568BE4099460123354220D1144B6D
:101CF000FF00F9503543DF194B467B6025606B06CA
:101D000003D0104B5C6922435A6103680F221C68A0
:101D100094431C60057A4468AA40226000221A603D
:101D2000002909D063469901807AFEF789FE0023D5
:101D3000181C04BC9146F0BD0023F9E7B00900204F
:101D40008809002000100240C046C046C046C04678
:101D50001D4B10B51A69012252421A6100221A6104
:101D6000D9681A480143D96019481A49DA604860AD
:101D700007208A600860D869802149050143D9613C
:101D8000154980200C68400020430860196AC02073
:101D90008000084080218900884203D080214902C8
:101DA00019621A62084B8022196A1202114207D185
:101DB000186A8021890001431962196A0A431A626C
:101DC000FFF75EFF10BDC04600100240FFFFBFFFDF
:101DD0007FBB000010E000E000700040C046C0463D
:101DE00020480123026802211343036003681D4A4F
:101DF0001942FBD01368F9210B4013600023536094
:101E00000C20536817491842FBD14A6A0123134337
:101E10004B6202204B6A134A1842FBD0A1239B035A
:101E200053600023D3621363116880235B040B4368
:101E300080201360800413680A490342FBD00A4BD8
:101E400011221A604A68022313434B600C204B682E
:101E5000044A0340082BFAD1916901230B43936193
:101E60007047C0460010024000200240C046C046F5
:101E700038B5124D124C281CFFF772FD114B802112
:101E8000EB62114B0C202B63AC62FEF7D9FD0F4BBC
:101E90008022996992000A439A61A368A26880230C
:101EA0001B061343A360221C9368002BFCDB074B2B
:101EB000074A99690A409A6138BDC046B4090020B2
:101EC00000240140E03300088A2500000010024091
:101ED000FFFDFFFFC046C046C046C046C046C046E4
:101EE000037810B5041C012B00D010BD0F4B984295
:101EF00007D0A26A01239360012113681942FCD024
:101F0000F3E702210A4A231CC06AFFF7E1FEE36AF5
:101F1000084A1B689A60084B8022996992000A431C
:101F20009A618022054B52011A61E2E7B409002050
:101F3000C12000084024014000100240002401405C
:101F4000026930B51378016BC468002B03D0012CF3
:101F500021D924231943C36A85681B68DD6055882D
:101F60006C435C6019601C68012121431960836A1D
:101F70005569196819609021596011691962916950
:101F80005D61D268996205490A43DA609968042262
:101F90000A439A6030BD20231943DCE70320000088
:101FA000C36A10B519680F220C6894430C60596815
:101FB0001B7A9A400A60826A9368590700D410BD60
:101FC000916810230B439360102193681942FCD150
:101FD000F5E7C046C046C046C046C046C046C046FB
:101FE00070B57646FEF78CFE314B324C1D681D6095
:101FF0002369002B03D0EB0607D42B062ED4FEF763
:102000009FFE301CFEF7B4FC70BDE36A1B685B6882
:10201000002BF2D0201CFFF7C3FF23699B68002B25
:1020200007D005222270201C012198472378052B18
:102030003AD00023236172B6FEF722FE1D4C606980
:10204000002806D00023636101235B424362FEF750
:1020500027FFFEF735FE62B62B06D0D5201CFFF712
:102060009FFF23699B68002B07D005222270201C4C
:10207000022198472378052B13D00023236172B6E1
:10208000FEF7FEFD0B4B5869002806D000225A616E
:1020900001235B424362FEF703FFFEF711FE62B6C7
:1020A000ADE702232370E8E702232370C1E7C046AF
:1020B00000240140B4090020C046C046C046C046C6
:1020C00070B5041C080722D42369002B13D0022505
:1020D0000D4211D01E78002E42D05D68002D0AD02E
:1020E000E268012A38D9598852085143A368490047
:1020F0005918201CA84770BD4807FCD55B68002B09
:10210000F9D0E068A1684208201C9847F3E7201C3A
:10211000FFF746FF23699B68002B07D0052222703A
:10212000201C002198472378052B12D0002323611F
:1021300072B6FEF7A5FD6069002806D00023636132
:1021400001235B424362FEF7ABFEFEF7B9FD62B6C8
:10215000D1E702232370E9E7A168201CA847CAE75A
:10216000201CFFF71DFF23695B68002B17D004229A
:102170002270201CA168E26898472378042B0BD0BA
:1021800072B6FEF77DFD60690028DED00023636132
:102190004362FEF785FED8E725702661F0E72570DB
:1021A0002361EDE7C046C046C046C046C046C046B3
:1021B0002A4BBC225969D2030A435A6142689023D0
:1021C000DB055A6082689A60C268DA6002695A6107
:1021D00042691A6282695A6202681A60026A204B76
:1021E0005A60426A9A60826ADA60C26A5A61026B15
:1021F0001A62426B5A62C2691A60C26B194B5A600A
:10220000026C9A60426CDA60826C5A61C26C1A622B
:10221000026D5A62826B1A60826D134B5A60C26DF6
:102220009A60026EDA60426E5A61826E1A62C26E03
:102230005A62426D1A60426F0C4B5A60826F9A600C
:10224000C26FDA60802282585A61842282581A62F0
:10225000882282585A62026F1A607047001002404A
:102260000004004800080048000C00480014004822
:10227000F0B556464D465F464446F0B40327560730
:10228000D506540617405205120F072383B0A40F3A
:10229000924600229946F60FAD0F0194131C2BE0D5
:1022A000026AA243444622430262446801229A40E1
:1022B00094433443446082685C0090460322A24009
:1022C000D243444614402C4384609446C268141C94
:1022D00062461440019A1443C4600468221C644698
:1022E00022403A43026049081CD0019A76009200CD
:1022F000AD000192BF00013301240C42F3D04A46E5
:102300001A40920054469440A0460F249440A4469C
:10231000072BC5D9426A141C6246944342461443B3
:102320004462C2E703B03CBC90469946A246AB4625
:10233000F0BDC046C046C046C046C046C046C046C6
:10234000F8B5594B5B6B9C697646FEF7D9FC564D48
:10235000FC226B6B9201DC61144241D1FE222242CD
:1023600005D1FEF7EDFC301CFEF702FBF8BD402264
:10237000224202D0297803296FD0E00608D5596897
:102380008022D2010A435A60AA6804231343AB6037
:10239000A306E6D52A6B0F231168086898430860E6
:1023A0005168127A181C9040EA6A0860116808683F
:1023B000984308605168127A93400B60AA68002A1B
:1023C00034D172B6FEF75CFCE869002804D0002323
:1023D000EB614362FEF764FDFEF772FC62B6C0E794
:1023E0002A6B0F2311680868984308605168127AB5
:1023F000181C9040EA6A08601168086898430860F1
:102400005168127A93400B60E2051DD4AB68A205B7
:1024100002D502221343AB60600502D508221343A4
:10242000AB60E20415D520221343AB6072B6FEF711
:1024300027FCE8690028CFD00023EB6102235B4230
:102440004362FEF72DFDC7E7A86801230343AB6095
:10245000DDE7002B00D184E7E8E719689143EA6AD9
:10246000196012685168002918D017680420287074
:1024700001203843106058680C4A090402405A6031
:102480005A681143596059688022D2000A435A6041
:102490005968802292010A435A606EE75968802287
:1024A000D2010A435A6068E7E8090020FFFF00FFF5
:1024B00010B5064C201CFFF793FA0023E361044B90
:1024C0006363044BE3620C3B236310BDE809002007
:1024D00000540040F8330008C046C046C046C0461D
:1024E0000D480E4B1860CA23436253234362C368EE
:1024F000DA060FD4C26880231343C3604021C36847
:10250000054A1942FBD0064B802113611361D36841
:102510008B43D3607047C04600280040200A00204B
:1025200037017F00C046C046C046C046C046C046D0
:1025300010B5094C094B01225242201C1A80FFF7AA
:102540001FFB074BE361074B23620C336362064BAF
:10255000A362064BE36210BD280A0020240A002073
:1025600000300140EC3300080A1000001810000091
:1025700010B57446FEF7C4FB064B074802225242D0
:102580001A61426892689047FEF7DAFB201CFEF75A
:10259000EFF910BD002C0140580A0020C046C0468B
:1025A00038B57546FEF7ACFB144B1C69DA6814406D
:1025B000A4B2FF222240D2431A61A30719D46307B1
:1025C00012D423070BD4E30603D50D4843689B6A56
:1025D0009847FEF7B5FB281CFEF7CAF938BD084836
:1025E00043681B6A9847EEE7054843689B6998472C
:1025F000E7E7034843681B699847E0E7002C014080
:10260000580A0020C046C046C046C046C046C04624
:1026100010B5034C201CFFF703FA024B236110BDD9
:10262000580A0020002C0140C046C046C046C046A3
:10263000024B802219680A431A6070470038014033
:10264000F8B54F464646C0B4F046FEF759FB3E4E3D
:10265000756F2F68EC692C62220738D1E3052AD404
:10266000A2061CD480233B4201D0234251D16306F1
:102670000CD572B6FEF704FB301D1021FEF7E0FE0C
:10268000FEF71EFB62B640239F432F60FEF758FB08
:102690004046FEF76DF90CBC90469946F8BD72B6FF
:1026A000FEF7EEFA696A301CC9B2FFF741FAFEF78D
:1026B00007FB62B6D6E772B6FEF7E2FA8021301D5C
:1026C0008900FEF7BDFEFEF7FBFA62B6C8E72307F6
:1026D000DB0FDB019946E30703D54A4620231A4363
:1026E0009146A30703D54A4640231A439146630700
:1026F00004D580234A465B001A43914672B6FEF722
:10270000BFFA301D4946FEF79BFEFEF7D9FA62B6C6
:10271000A4E772B6FEF7B4FA301C3030FEF7A8FF1B
:10272000002805DB80B22885FEF7CAFA62B69EE76C
:10273000301D0821FEF784FEC0233A1C9A43402333
:1027400013432B60F0E7C0466C0A0020C046C04629
:1027500010B5054C0021201C044AFFF7B9F9044BC1
:102760006367044BA36710BD6C0A00203126000884
:1027700000380140006CDC02C046C046C046C0467E
:1027800070B5061C0C1E28D0337A012B17D0B06F01
:102790002168FDF7EDFCA268756F4023134380B2FA
:1027A000E268A8816B6001231343AB6062682E234B
:1027B000FF3313432B6001235B422B6270BD084B38
:1027C0009E42E4D1074B80229969D2010A439A6163
:1027D0001B20C021FEF734F9D9E7034CD4E7C046EB
:1027E0006C0A00200010024020340008C046C04699
:1027F00008B5FFF7F5FA08BDC046C046C046C0465A
:102800007047C046C046C046C046C046C046C046E7
:102810000EB400B582B003AA08CA191C019200F0D8
:102820004FFA02B008BC03B01847C046C046C046C5
:1028300008B5002904DD0549054AFFF7E9FF08BD91
:10284000044B0549DA68FFF7E3FFF8E7C0340008F6
:10285000CC34000834090020D4340008C046C046F7
:1028600010B5041C82B0002905DD1849184AFFF78D
:10287000CFFF02B010BD1749174AFFF7C9FF201C50
:102880001649174AFFF7C4FF201C1649164AFFF7DE
:10289000BFFF201C1549164AFFF7BAFF201C154937
:1028A000154AFFF7B5FF201C1449154AFFF7B0FF82
:1028B000201C1449144AFFF7ABFF144B201C009353
:1028C0001349144A144BFFF7A3FFD2E7C0340008A2
:1028D000DC340008E4340008F83400080835000847
:1028E0001C3500086435000878350008803500087C
:1028F00094350008A0350008B4350008CC35000830
:10290000E0350008183600082C3600086C36000840
:10291000443600085C36000868360008C046C046E9
:1029200070B5041C0D1C002817D028600E4E201C0A
:10293000311C00F08DFC2418201C311C00F058FCC8
:1029400000280ED0431C2B60002303702378002B3B
:1029500001D1002070BD201CFCE70C68002CE5D1E3
:10296000F7E72860F2E7C04678360008C046C04660
:10297000014B1B607047C046E80A0020C046C046B5
:1029800010B5041C72B6FEF73BF900210348FEF7B0
:1029900057FD201CFEF7F4FB10BDC046E80A0020DE
:1029A00000B583B00090034B0020FEF749FC03B054
:1029B00000BDC046712A0008C046C046C046C04699
:1029C000F0B5474680B4013A82B06D465218041CF7
:1029D0000F1C0E1C073590462368201C5B68291CC1
:1029E00001229847002819D0297804292DD00829D8
:1029F00019D00D292FD01F29EED94645ECD22268D7
:102A0000201C926890472B78201C33702368291C67
:102A10005B680122013698470028E5D1012002B009
:102A200004BC9046F0BDBE42D6D02368201C9B68F3
:102A30009847236820219B68201C984723682978A1
:102A40009B68201C9847013EC6E7201C0649FFF7FB
:102A5000DFFE0120E3E7201C0449FFF7D9FE002335
:102A600033700020DBE7C0467C36000828360008BB
:102A7000F0B556465F4644464D46F0B44268634B57
:102A800006689B699346624A97B09A61301C614917
:102A9000FFF7BEFE604B614A98469246301C4146A5
:102AA000FFF7B6FE301C06A94022FFF789FF002879
:102AB00030D1694606A8FFF733FF6946071C00209E
:102AC000002401ADFFF72CFF00280AD0042C1AD0F7
:102AD000A300E850694600200134FFF721FF0028D9
:102AE000F4D1A300E850002FD8D0381C514600F094
:102AF00057FB00281DD1002C10D0301C48495246ED
:102B0000FFF786FECAE7301C4649FFF781FE002327
:102B10002B61C3E7301C4449FFF77AFE0020FFF722
:102B20002FFF002017B03CBC90469946A246AB460A
:102B3000F0BD381C3D4900F033FB002807D1301CA4
:102B4000002C1CD03649394AFFF762FEA6E7384B05
:102B500018689946002806D13AE0082399444A4665
:102B60001068002834D0391C00F01AFB0028F4D17A
:102B70004A465368301C211C2A1C98478EE72D4971
:102B8000FFF746FE2A4C2268002A0BD02A4D083453
:102B9000301C291C0834FFF73BFE231C083B1A6835
:102BA000002AF5D15B46002B0DD05B461A68002A3F
:102BB00009D0214D5C46301C291C0834FFF728FE43
:102BC0002268002AF7D1301C1C49FFF721FE65E777
:102BD0005B46002B10D0186800280DD0D94605E0C0
:102BE000082399444A461068002805D0391C00F093
:102BF000D7FA0028F4D1BBE7301C11493A1CFFF783
:102C000007FE301C0F49FFF703FE47E74409002089
:102C10008036000888360008A0360008CC36000848
:102C2000C0340008B4360008A8360008D4360008BE
:102C300000080020DC360008F436000828360008BA
:102C4000F8360008FC360008C046C046C046C046FC
:102C5000F0B5454690460B2257464E468246914671
:102C6000D144E0B40E1C0F1C4D46301C4146FDF70C
:102C7000C3FA0C1C3034392C00DD0734013DE4B2BA
:102C8000301C41462C70FDF773FA4146061C381C77
:102C9000FDF76EFA071EE8D14A465046531BC3188B
:102CA00001E06C780135047001309842F9D11CBC08
:102CB00090469946A246F0BDC046C046C046C046B2
:102CC000F0B55F46564644464D46F0B489B00C1CFC
:102CD00069461531071C05A88346081A161C019180
:102CE00003902178651C00290AD025290FD03B6864
:102CF0002C1C9B68381C98472178651C0029F4D14E
:102D000009B03CBC90469946A246AB46F0BD6278FD
:102D10002D2A00D1D5E0002002902E2A00D1B7E064
:102D200020218846302A00D1B2E02C1C002506E084
:102D300033780436AA0055196D002278ED18131C5B
:102D4000303BDBB20134092BF4D92A2AF0D0002021
:102D500000902E2A00D1A0E0DF2313404C2B00D19D
:102D60008FE0131C443BDBB2342B00D983E06A486C
:102D70009B00C3589F460A22316858460436FFF725
:102D800067FF5946411A8946DA464B46ED1AEB432E
:102D90000298DB171D4000284BD16D42002D10D04A
:102DA00051460B782D2B00D193E0231C44469846C6
:102DB0003B68381C9B68211C01359847002DF7D1D2
:102DC00044463B68381C1B6851464A46984788E78A
:102DD0000822D1E7316858460436002900DA8AE033
:102DE0000A22CCE73268301D9246002A00D189E0E1
:102DF000009A002A6AD051460B78002B00D184E05B
:102E0000009A5346111C514401E08B4203D0013318
:102E10001A78002AF9D15146591A89464B46ED1ABB
:102E2000EB43061C02982022DB1790461D40002829
:102E3000B3D03B68381C1B6851464A469847002D62
:102E400000D14EE7231C444698463B68381C9B68DB
:102E5000211C013D9847002DF7D1444641E73368D6
:102E600003985A4620211370814604368846DA4674
:102E70008BE7102280E703985B461A708146DA469A
:102E800083E72378002B00D16BE701341A1C68E735
:102E900030236A789846013547E7002105E033780A
:102EA00004368A005118490059180134631E1A78F3
:102EB000131C303BDBB2092BF3D92A2AEFD0009147
:102EC0004AE70123A51CA278029326E7134B00933F
:102ED00091E74246302A00D067E701239A443B68D5
:102EE000381C9B682D2198470120231C40424446F2
:102EF000814498465CE72D230370684649421530AB
:102F00000A223CE706498A4672E700212022061C75
:102F10008946904639E7C04610370008FF7F000019
:102F2000F0370008C046C046C046C046C046C0464E
:102F300008B5044B01221A604888FDF7E9FB024BF3
:102F4000186008BDF00A0020EC0A0020C046C04608
:102F50007047C046C046C046C046C046C046C04690
:102F600030B5074C85B0051C0021201CFEF708FD7C
:102F7000201C291C6A460823FEF712FD05B030BD4F
:102F8000B4090020C046C046C046C046C046C04640
:102F90000EB400B582B003AA08CA191C0192FFF74B
:102FA0008FFE02B008BC03B01847C046C046C046FA
:102FB000F0B58BB003AD1B4A2B1C071C13CA13C3FF
:102FC00013CA13C31268184C1A60184BE02252043B
:102FD0001A60201C1649FFF7DBFF98210095154861
:102FE00049004022144BFEF79BF8144D2868002836
:102FF00007D1134E311C201CFFF7CAFF2968002996
:10300000F8D0104B10491868FDF732FA0F49FDF758
:1030100007F9FDF75DFB0E49021C381CFFF7B8FFEE
:103020000BB0F0BD903200086C0A00200827014068
:1030300000380008F80A0020612F0008F00A00207C
:1030400030380008EC0A00200000A54300F07F455E
:1030500020380008C046C046C046C046C046C046EC
:1030600008B50249FFF794FF08BDC046383800088C
:1030700008B50249FFF78CFF08BDC0463838000884
:10308000F0B50F4B474680B49846051C0E1C191C22
:103090001768FFF77DFF281C4146FFF779FF0024E2
:1030A000002E06DD281C391C0134FFF771FFB442E5
:1030B000F8D1281C4146FFF76BFF04BC9046F0BDD9
:1030C00038380008C046C046C046C046C046C04664
:1030D00008B50249FFF75CFF08BDC0463838000854
:1030E00008B50249FFF754FF08BDC046383800084C
:1030F00008B50249FFF74CFF08BDC0463838000844
:1031000008B50249FFF744FF08BDC046383800083B
:1031100008B50249FFF73CFF08BDC0463838000833
:1031200008B50249FFF734FF08BDC046383800082B
:10313000084B70B59B69084A8025AD00074C9A6121
:103140002E1C6683FA20FEF70BF82583FA20FEF783
:1031500007F8F6E744090020C038000800080048D6
:10316000094B70B59B69094A80256D00084C9A612E
:103170002E1CFA2066834000FDF7F2FFFA2025831B
:103180004000FDF7EDFFF4E744090020CC380008CB
:1031900000080048C046C046C046C046C046C046BB
:1031A000114BF0B51E68032500230AE0CA5CB7186E
:1031B0007F782F40012F12D0A41A13D10133002A97
:1031C00010D0C25CB4186778141C2F40012FEDD1C9
:1031D000CA5C2034B7187F782F40012FECD1203201
:1031E000A41AEBD0201CF0BD18080020000000003D
:1031F00070B50478061C002C21D00D78002D18D055
:10320000A54211D00B1C01E094420CD001331A7876
:10321000002AF9D101363478002CEFD11D78002036
:10322000002D04D170BD251C0020002DFAD0301CCB
:10323000F8E7013634780B1C002CDFD1EEE70020D4
:10324000F0E7C046000000000000000000000000A1
:1032500070B50478002C14D00E78002E11D0051C07
:10326000B44209D00B1C01E0944205D001331A7816
:10327000002AF9D1281A70BD01352C78002CEFD125
:10328000F8E70020F7E7C04600000000000000005B
:1032900000000100312F0008512F0008000000003D
:1032A000000000000000000000000100000000001D
:1032B0006A0300081E0300084A030008A60200086B
:1032C0004A030008420300084A030008A602000857
:1032D0001E0300081E03000842030008A60200089F
:1032E0009E0200089E0200089E020008500300088B
:1032F000960500089005000890050008860500085E
:10330000E8040008E80400087E05000886050008B7
:10331000E80400087E050008E804000886050008A7
:10332000E6040008E6040008E60400081E0600089B
:1033300069646C65000000000000000000000000EF
:103340005356233100000000535623320000000082
:10335000535623330000000053562334000000006E
:10336000535623350000000053562336000000005A
:103370005356233700000000535623380000000046
:10338000535623390000000053562331300000000B
:1033900053562331310000000000000000000000FF
:1033A0006D61696E0016C011040448080C101418F1
:1033B000001C1D1E1F200000000000000000000077
:1033C000711A0008511A0008B11A0008911A000871
:1033D000A11A0008811A0008611A0008411A0008A1
:1033E0000800024004000240000009001C000240E6
:1033F0000400024004010A003000024004000240C0
:1034000008020A0044000240040002400C030B00C2
:10341000580002400400024010040B0000000000AD
:1034200000960000000000000040000000000000C6
:103430000000002800000000000000FC5455556505
:10344000FFFF00000000000000000000000000007E
:1034500000000000F003000055555555FFFF000027
:103460000000000000000000000005000000000057
:1034700000000FF055555005FFFC00000000000053
:10348000000000000000000000000000000000003C
:1034900055555555FFFF00000000000000000000DA
:1034A00000000000000000000000000050555555CD
:1034B000FFFF00000000000000000000000000000E
:1034C00055736167653A2025730D0A00737973742B
:1034D000696D6500256C750D0A000000696E666FE8
:1034E000000000004B65726E656C3A2020202020A1
:1034F000202025730D0A0000322E372E30756E7392
:103500007461626C65000000436F6D70696C657278
:103510003A202020202025730D0A00004743432035
:10352000342E382E332032303133313132392028A5
:1035300072656C6561736529205B41524D2F656D25
:103540006265646465642D345F382D6272616E63F8
:1035500068207265766973696F6E20323035363453
:10356000315D0000417263686974656374757265EA
:103570003A2025730D0A000041524D76362D4D003C
:10358000436F72652056617269616E743A202573CB
:103590000D0A0000436F727465782D4D30000000F5
:1035A000506F727420496E666F3A20202020257378
:1035B0000D0A0000507265656D7074696F6E20743D
:1035C00068726F756768204E4D490000506C6174D9
:1035D000666F726D3A202020202025730D0A0000AE
:1035E00053544D33324630353178782F46303631AA
:1035F000787820456E747279204C6576656C204D24
:10360000656469756D2044656E73697479206465BD
:103610007669636573000000426F6172643A20202E
:1036200020202020202025730D0A00005354205311
:10363000544D333246302D446973636F7665727929
:10364000000000004275696C642074696D653A2061
:1036500020202573257325730D0A00004D6172200B
:103660003131203230313400202D200032313A33D4
:10367000373A343800000000200900005E440000A2
:103680007368656C6C0000000D0A43686962694FDD
:10369000532F5254205368656C6C0D0A00000000D3
:1036A00063683E20000000000D0A6C6F676F757440
:1036B00000000000746F6F206D616E792061726789
:1036C000756D656E74730D0A00000000657869748D
:1036D0000000000068656C7000000000436F6D6DB5
:1036E000616E64733A2068656C7020657869742037
:1036F000000000002573200025730000203F0D0A04
:1037000000000000000000000000000000000000B9
:10371000D42D0008762E0008762E0008762E00089C
:10372000762E0008D42D0008762E0008762E00088C
:10373000762E0008762E0008762E0008D02D000880
:10374000762E0008762E0008762E0008762E0008C9
:10375000762E0008762D0008762E0008762E0008BA
:10376000722E0008762E0008762E0008762E0008AD
:10377000762E0008762E0008762E0008762E000899
:10378000762E0008762E0008762E00085E2E0008A1
:10379000D42D0008762E0008762E0008762E00081C
:1037A000762E0008D42D0008762E0008762E00080C
:1037B000762E0008762E0008762E0008D02D000800
:1037C000762E0008762E0008762E0008E42D0008DC
:1037D000762E0008762D0008762E0008762E00083A
:1037E000722E000800000000000000000000000031
:1037F000286E756C6C2900000000000000000000BD
:1038000054656D706572617475726520436F6E7674
:10381000657273696F6E2053746172746564000021
:1038200054454D50204443563A202564200A0D004B
:1038300077616974696E670048656C6C6F20576FBB
:10384000726C640000000000000000000000000036
:10385000D8380008B12F0008E038000861300008AF
:10386000E838000871300008F0380008F13000082E
:10387000FC3800081131000800390008E130000868
:103880000439000801310008083900082131000816
:10389000103900088130000814390008D1300008C0
:1038A0000000000000000000000000000000000018
:1038B0006C0A0020503800080000000000000000E2
:1038C000626C696E6B65723200000000626C696E3A
:1038D0006B6572310000000074656D7000000000BF
:1038E000766F6C74616765006261747465727900EB
:1038F000626C7565746F6F746800000070776D009E
:1039000073706900693263006461746500000000CF
:103910006164630064616300000000000000000057
:10392000002020202020202020202828282828208F
:103930002020202020202020202020202020202087
:1039400020881010101010101010101010101010EF
:1039500010040404040404040404041010101010DF
:1039600010104141414141410101010101010101A9
:1039700001010101010101010101010110101010FB
:10398000101042424242424202020202020202027B
:1039900002020202020202020202020210101010CF
:1039A00020000000000000000000000000000000F7
:1039B0000000000000000000000000000000000007
:1039C00000000000000000000000000000000000F7
:1039D00000000000000000000000000000000000E7
:1039E00000000000000000000000000000000000D7
:1039F00000000000000000000000000000000000C7
:103A000000000000000000000000000000000000B6
:103A100000000000000000000000000000000000A6
:043A200000000000A2
:103A2800DC34000861280008CC340008312800087C
:0C3A380000000000000000002039000821
:0400000508000811D6
:00000001FF
