:020000040800F2
:100000000004002041020008810300085103000899
:100010005103000851030008510300085103000870
:100020005103000851030008510300085103000860
:10003000510300085103000851030008F1030008B0
:100040005103000851030008510300085103000840
:100050005103000851030008510300085103000830
:100060005103000851030008510300085103000820
:100070005103000851030008510300085103000810
:100080005103000851030008510300085103000800
:1000900051030008510300085103000851030008F0
:1000A00051030008510300085103000831140008EF
:1000B00051030008510300085103000851030008D0
:1000C00030B583B000F0ACFF00F00AFA2048002100
:1000D00001F01EF890208021C0058900822201F0E5
:1000E00037F990208021C005C900822201F030F943
:1000F00018480321032201F02BF90024982149001C
:100100004022154B0094154800F0EAFB9821490065
:100110004022134B0094134800F0E2FB01F000FB77
:10012000114D03E0FA20800000F00AFC002C07D0FB
:10013000237F0E2BF6D1201C00F032FC0024F1E7C7
:100140009621281CC900402201F002FB041CE9E7AB
:100150008009002000080048411D0008000A002016
:10016000111D0008300B0020C0220008C046C04608
:10017000002934D00123002210B488422CD301245A
:100180002407A14204D2814202D209011B01F8E7EF
:10019000E400A14204D2814202D249005B00F8E7A8
:1001A000884201D3401A1A434C08A04202D3001BD4
:1001B0005C0822438C08A04202D3001B9C08224307
:1001C000CC08A04202D3001BDC082243002803D045
:1001D0001B0901D00909E3E7101C10BC7047002877
:1001E00001D00020C04307B4024802A14018029089
:1001F00003BDC0461D0000000029F0D003B5FFF785
:10020000B9FF0EBC4243891A1847C04600000000DF
:100210007047C04600000000000000000000000021
:100220007047C046C046C046C046C046C046C046ED
:10023000FEE7C046C046C046C046C046C046C046AF
:1002400072B63448051C80F30988022383F31488AE
:10025000BFF36F8F304B314A934209D21C1DD11C22
:10026000091B890889002E4A611804C38B42FCD1FE
:100270002C4B834209D21A1DE91C891A890889006E
:100280005118274A04C38B42FCD101F089F9264A50
:10029000264B9A420BD2D043C01880080130244923
:1002A00080000023CC58D45004338342FAD1214B30
:1002B000214A934209D2181DD11C091A89088900C4
:1002C0004118002204C38B42FCD1FFF7A9FF1B4D4C
:1002D0001B4B9D420AD2EE43F618B60801360024A5
:1002E000A300EB5801349847B442F9D1FFF7E8FE78
:1002F000144D154B9D420AD2EE43F618B60801364E
:100300000024A300EB5801349847B442F9D1FFF719
:100310008FFFC046000800200000002000040020DD
:100320005555555500040020000800201C080020E9
:10033000F823000820080020600C0020C0000008FE
:10034000C0000008C0000008C0000008C046C04649
:10035000FEE7C046C046C046C046C046C046C0468E
:1003600000F066FA8022024B12065A60FEE7C04691
:1003700000ED00E0C046C046C046C046C046C0468C
:10038000EFF30983203383F3098862B67047C046D0
:100390000F3019D072B6EFF309831A1C203A82F39A
:1003A00009880F4880225204203B8169DA61CA7FA4
:1003B000002A0AD100688968806888425241D2B216
:1003C000002A0AD1074A9A617047026889689268D0
:1003D000914292415242002AF4D0034A9A61F3E7D3
:1003E000380900206403000861030008C046C046C5
:1003F00010B5744672B600F0B3F862B6201CFFF771
:10040000C7FF10BDC046C046C046C046C046C04635
:10041000F0B544464D4656465F46F0B46B46CB6059
:10042000C3689D46F0BCA046A946B246BB46F0BD97
:1004300062B6281CA04700F0ABFA7047C046C04621
:1004400082080F4B920070B5D2180324C0239B0082
:100450000440D558E400FF26A640B543A1402C1C1B
:100460000C43D4501F23034001229A40131C40091F
:10047000034A80008018C02252008350036070BD80
:1004800000E100E0C046C046C046C046C046C04687
:100490008308084A10B59B0003249B1820409A69E2
:1004A000C000FF248440A2438140101C084398618F
:1004B00010BDC04600ED00E0C046C046C046C04684
:1004C000024B034A9B699A61FEE7C0463809002047
:1004D000701E0008C046C046C046C046C046C04662
:1004E00000B5154A154B83B0DA600A200021FFF7EA
:1004F000CFFF0B208021FFF7CBFF00F0D9F800F0F1
:100500005FF800F0C5FC00F0F3FC40210C4800F05F
:100510009FF90C4B98610123037762B6094B0A4A95
:100520009B69C0219A61002300930122074B084870
:1005300000F0D6F903B000BD0000FA0500ED00E0C0
:100540002008002038090020801E0008C10400088F
:1005500068080020C046C046C046C046C046C046E7
:1005600070B5134B9B69DA7F002A01D0013ADA7724
:100570001A6A01321A620F4AD3680133D3601368D2
:10058000934214D099680139996000290FD100264F
:10059000141C1968DD681160DE604A6062B6186973
:1005A000A84772B62368221C99680029F1D070BD53
:1005B0003809002028090020C046C046C046C04671
:1005C000044B012252429A6000225B601B60DA6099
:1005D0007047C04628090020C046C046C046C046F5
:1005E00010B50C4C03612368C2609A68914204D92B
:1005F0001B68891A9A688A42FAD35A680360426073
:10060000586010608160A34202D09A68511A9960C4
:1006100010BDC04628090020C046C046C046C0469E
:100620000368074A10B5934203D0996884680A1991
:100630009A604268136003685A600023C36010BD6B
:1006400028090020C046C046C046C046C046C04635
:1006500072B6037F032B19D014D9052B1AD00D2B9A
:1006600018D001235B4243620023037782680C4B5E
:100670001B6899689142FBD25A68036042605860D7
:10068000106001E0002BECD162B67047436A9A68B3
:1006900001329A6043680168196002685360E0E7BC
:1006A00038090020C046C046C046C046C046C046C5
:1006B000034B00225B601B609A605B611B617047AB
:1006C00038090020C046C046C046C046C046C046A5
:1006D000002303778268054B1B6899689142FBD21F
:1006E0005A68036042605860106070473809002003
:1006F00008B5074B1422996908771868CA77026809
:1007000053601A60986101230377FFF781FE08BDEB
:1007100038090020C046C046C046C046C046C04654
:1007200030B5051C87B04B1C12D00B4C01A8A36937
:100730000A4AFFF755FF281CFFF7DAFF049B002B3E
:1007400002D001A8FFF76CFFA369586A07B030BD5B
:10075000FFF7CEFF004CF7E73809002051060008EC
:1007600038B5124D4162A96984688A6800239442B1
:100770000BD803772B1C1B689A689442FBD95A68E4
:10078000036042605860106038BD0B772B1C1B68FB
:100790009C68A242FBD95A680B604A6059600123E9
:1007A00011600377A861FFF733FEEDE738090020F9
:1007B0000E4B10B518689969026853601A60986109
:1007C000012303771423CB7700230B778A68031C5C
:1007D00000E01B689C689442FBD25A680B604A6038
:1007E00059601160FFF714FE10BDC04638090020A3
:1007F0000D4B10B518689969026853601A609861CA
:100800000123037700230B778A68031C00E01B6831
:100810009C689442FBD85A680B604A60596011602A
:10082000FFF7F6FD10BDC04638090020C046C0469F
:1008300008B5054B9B69DB7F002B02D0FFF7D8FF83
:1008400008BDFFF7B5FFFBE738090020C046C046EA
:100850000223037700234377C363836303628361C7
:100860001422094BC277012282775A6903618160A1
:1008700042615861031C28330164106183620433B0
:100880000363C3627047C04638090020C046C046B3
:1008900024394118C1600B61009B4B610E4B0B6208
:1008A0000223037700234377C36383630362836177
:1008B0000A4B82600264012282775A6903614261B5
:1008C0005861031C14212833C177106183620433FB
:1008D0000363C3627047C046310400083809002032
:1008E00010B5041C72B624394118C1600B61029B1B
:1008F0004B61114B0B620223037700234377C363E1
:100900008363036283610D4B8260026401228277FC
:100910005A69036142615861031C14212833C1776D
:100920001061836204330363C3620021FFF718FF81
:1009300062B6201C10BDC0463104000838090020F2
:1009400008B5011C72B60620FFF7EAFE62B608BDC4
:1009500038B50D4B9C696062251CA06A2835A842F9
:1009600006D00368A362FFF7B3FEA06AA842F8D1DD
:10097000637F9A0704D1226963691A61226953610E
:100980000E20FFF7B5FE38BD38090020C046C0462E
:1009900008B572B6FFF7DCFF08BDC046C046C046CA
:1009A00008B5011C72B6837F013BDBB2837762B668
:1009B000002B02D1037F0E2B00D008BD437F032202
:1009C0001340012B0AD0022BF7D1436902691A6147
:1009D0000269406C536100F01BFBEEE7026943695A
:1009E0001A610269536100F0D3FAE6E7C046C046D7
:1009F00070B582B00C1C161C1D1C00F089FA002872
:100A000011D072B6069B211C0093321C2B1CFFF7E1
:100A10003FFF012343770021041CFFF7A1FE62B6CC
:100A2000201C02B070BD0020FBE7C046C046C04697
:100A300000234060006083607047C046C046C046E7
:100A400070B52F4B051C80689C69002853D0A268A4
:100A500081688A4207D9037F8260042B32D0052B3C
:100A60001CD0002B12D02B1C03E09A68A668B2425F
:100A700002D31B689D42F8D15A682360626004204B
:100A80005C6014606562FFF733FE70BD4368016807
:100A9000196002685360FFF71BFEE4E743680168D2
:100AA000196001684B60416A0B1C02E09E68964227
:100AB00002D31B689942F9D15A68036042605860BA
:100AC0001060D0E7436806681E6001684B60416AA9
:100AD0000B1C02E09E68964202D31B689942F9D132
:100AE0005A6803604260586010608868A268816834
:100AF0009142B0D3B7E7E16BAC60E960E563C4E76E
:100B000038090020C046C046C046C046C046C04660
:100B100008B572B6FFF794FF62B608BDC046C0467E
:100B200038B5134B9D6972B6EC6BE3682068EB63D4
:100B3000A0421AD0296C002B09D01A689A4203D01F
:100B40009268914200D2111CDB68002BF5D103683A
:100B5000A96023605C60C36BA060E3600021C46394
:100B6000FFF7FEFD62B6201C38BD0023A360F9E745
:100B700038090020C046C046C046C046C046C046F0
:100B800008B5836B1943037F8163082B0BD0092BB6
:100B900000D008BD436A19408B42FAD1FFF798FD97
:100BA00000234362F5E7436A0B42F2D0FFF790FD62
:100BB00000234362EDE7C046C046C046C046C0467B
:100BC00070B50468051C0E1CA04209D0E36860687B
:100BD0003343E360A168FFF7D3FF2468A542F5D152
:100BE00070BDC046C046C046C046C046C046C046AE
:100BF00008B500290BD0074B9B6958624268186002
:100C00005A60436013600D20FFF78AFD08BD012084
:100C10004042FBE738090020C046C046C046C046F7
:100C200010B5C361029B002441618161C1608918D4
:100C30004060006084600161036210BDC046C04630
:100C400008B58269436993421DD08268013282608F
:100C50005A1C42611970426903699A420CD20368B6
:100C600083420ED01A6802605060181CFFF730FDF6
:100C700000234362002008BDC368436103688342C8
:100C8000F0D10020F7E78268002ADFD0042040423C
:100C9000F1E7C046C046C046C046C046C046C04652
:100CA00038B5041C0D1C72B6C369002B07D09847D9
:100CB00005E0201C291CFFF79BFF00280DDBA36823
:100CC000002BF6D0A269013BA360531CA3611078EE
:100CD0002269934201D3E368A36162B638BDC0467E
:100CE000F0B54E469146C26957464546E0B4041CED
:100CF0008A461E1C904672B600274346002B08D039
:100D0000201CC04705E0201C311CFFF771FF0028A4
:100D100016D1A568002DF6D0A369013D5A1CA26129
:100D2000A5601B785246D355A3692269934201D32B
:100D3000E368A36162B60137B94502D072B6DCE759
:100D400062B6381C1CBC90469946A246F0BDC0460F
:100D5000C361009B41618161C1608918406000608E
:100D60008260016103627047C046C046C046C0460B
:100D700070B5041C0E1C151C72B605E0201C291C45
:100D8000FFF736FF002816DBA368002BF6D0013BE7
:100D9000A36063695A1C62611E70626923699A428A
:100DA00001D3E2686261E369002B01D0201C9847FF
:100DB00062B6002070BD62B6FCE7C046C046C046C1
:100DC0008369426910B59A4218D082680132826004
:100DD0005A1C82611C7803699A420CD203688342D0
:100DE00007D01A6802605060181CFFF771FC0023DE
:100DF0004362201C10BDC3688361EFE78268002A4C
:100E0000E4D003204042F5E7C046C046C046C04695
:100E1000F0B557464E464546E0B4161CC269041C60
:100E20000F1C9A46914672B600239846A568002D7D
:100E30001DD06269013D531CA56063613B787D1C38
:100E40001370626923699A4201D3E26862614B467A
:100E5000002B01D0201CC84762B60122013E9044FD
:100E6000002E0BD072B62F1CA568002DE1D1201CDE
:100E70005146FFF7BDFE0028D8D062B640461CBCE4
:100E800090469946A246F0BDC046C046C046C04600
:100E900005490723054A073199431160044A9A43DB
:100EA000044B1A607047C046600C002058090020AF
:100EB0000020002054090020C046C046C046C0465D
:100EC00072B60723C21D9A430649074B0968186882
:100ED000091A8A4203D882181A6062B67047002045
:100EE000FBE7C0465409002058090020C046C04610
:100EF00008B50548054B036000238360C3601030CC
:100F0000FFF796FD08BDC04660090020C10E00082D
:100F1000F8B5071E33D0381CCE1D07233D1C1030FA
:100F20009E430835FFF7F4FD03E063689E4211D944
:100F3000251C2C68002CF8D1FFF7F2FD3B68002B34
:100F40001FD0301C0830984700281AD00760466030
:100F50000830F8BD321C08329A4207D9216829604E
:100F60002760FFF7DDFD201C0830F2E721689B1B9E
:100F7000A218083B116053602A606660F0E7024FD8
:100F8000C9E70020E5E7C04660090020C046C0462A
:100F900038B5041C083C2068051C08351030FFF7E4
:100FA000B7FD2B1CAB4204D0A34202D31B68AB425B
:100FB000FAD11A68002A03D0944201D3131CF1E736
:100FC000616822601C600A1C08322068A2188242F4
:100FD00008D05A68111C083159188C420ED0FFF7FE
:100FE0009FFD38BD506812680918083161602260A1
:100FF0005A68111C083159188C42F0D16168246874
:10100000521808325A601C60E9E7C046C046C04624
:1010100072B603680B60016062B67047C046C04696
:1010200008B500F0A5F8044800F032F900F048F8DF
:1010300000F0BEFA08BDC046D01E0008C046C0463B
:1010400008B50C30FFF74CFE08BDC046C046C04690
:1010500008B501230C305B42FFF742FE08BDC046D5
:1010600008B53030FFF7D4FE08BDC046C046C046C4
:1010700008B5012330305B42FFF7CAFE08BDC04609
:1010800008B50C30FFF70CFE08BDC046C046C04690
:1010900008B501210C304942FFF702FE08BDC046E9
:1010A00008B53030FFF764FE08BDC046C046C046F4
:1010B00008B5012230305242FFF75AFE08BDC04643
:1010C00008B500F01DFA08BDC046C046C046C0467F
:1010D00030B5151C0D4A041C04C083B00B1C6060A5
:1010E0000122201C211C22720C3054310094102249
:1010F000FFF796FD201C211C303064310094102233
:101100002B1CFFF725FE03B030BDC046A01E000813
:1011100010B5041C72B600F00BFA0223237262B6FB
:1011200010BDC046C046C046C046C046C046C046C8
:1011300038B54369041C0D1C002B07D0201C0C3053
:10114000291CFFF77DFD00280BDB38BD043004218E
:10115000FFF736FD201C0C30291CFFF771FD00281D
:10116000F3DA201D8021FFF72BFDEEE7C046C046D5
:101170001C4B10B51A69012252421A6100221A61F1
:10118000D96819480143D96018481949DA6048609C
:1011900007208A600860D869802149050143D96128
:1011A000144980200C68400020430860196AC02060
:1011B0008000084080218900884203D080214902B4
:1011C00019621A62074B8022196A1202114207D172
:1011D000186A8021890001431962196A0A431A6258
:1011E00010BDC04600100240FFFFBFFF7FBB0000E4
:1011F00010E000E000700040C046C046C046C04657
:1012000020480123026802211343036003681D4A3A
:101210001942FBD01368F9210B401360002353607F
:101220000C20536817491842FBD14A6A0123134323
:101230004B6202204B6A134A1842FBD0A1239B0346
:1012400053600023D3621363116880235B040B4354
:1012500080201360800413680A490342FBD00A4BC4
:1012600011221A604A68022313434B600C204B681A
:10127000044A0340082BFAD1916901230B4393617F
:101280007047C0460010024000200240C046C046E1
:101290002A4BBC225969D2030A435A6142689023FF
:1012A000DB055A6082689A60C268DA6002695A6136
:1012B00042691A6282695A6202681A60026A204BA5
:1012C0005A60426A9A60826ADA60C26A5A61026B44
:1012D0001A62426B5A62C2691A60C26B194B5A6039
:1012E000026C9A60426CDA60826C5A61C26C1A625B
:1012F000026D5A62826B1A60826D134B5A60C26D26
:101300009A60026EDA60426E5A61826E1A62C26E32
:101310005A62426D1A60426F0C4B5A60826F9A603B
:10132000C26FDA60802282585A61842282581A621F
:10133000882282585A62026F1A6070470010024079
:101340000004004800080048000C00480014004851
:10135000F0B556464D465F464446F0B4032756075F
:10136000D506540617405205120F072383B0A40F69
:10137000924600229946F60FAD0F0194131C2BE004
:10138000026AA243444622430262446801229A4010
:1013900094433443446082685C0090460322A24038
:1013A000D243444614402C4384609446C268141CC3
:1013B00062461440019A1443C4600468221C6446C7
:1013C00022403A43026049081CD0019A76009200FC
:1013D000AD000192BF00013301240C42F3D04A4614
:1013E0001A40920054469440A0460F249440A446CC
:1013F000072BC5D9426A141C6246944342461443E3
:101400004462C2E703B03CBC90469946A246AB4654
:10141000F0BDC046C046C046C046C046C046C046F5
:10142000024B802219680A431A6070470038014055
:10143000F0B5474680B4F0462E4E756F2F68EC69C4
:101440002C62230729D1E3051FD4A30615D48023DA
:101450003B4201D0234236D1630608D572B6102133
:10146000301DFFF7ADFB62B640239F432F6040461F
:10147000FEF78EFF04BC9046F0BD72B6696A301C60
:10148000C9B2FFF755FE62B6E1E772B68021301DA2
:101490008900FFF795FB62B6D7E72107C90FC9019D
:1014A000E30701D520231943A30701D5402319439E
:1014B000630702D580235B00194372B6301DFFF726
:1014C0007FFB62B6BFE772B6301C3030FFF778FCA6
:1014D000002803DB80B2288562B6BDE7301D0821F5
:1014E000FFF76EFBC0233A1C9A43402313432B6043
:1014F000F2E7C04680090020C046C046C046C0464C
:1015000010B5054C0021201C044AFFF7E1FD044BF7
:101510006367044BA36710BD8009002021140008F5
:1015200000380140006CDC02C046C046C046C046E0
:1015300070B5061C0C1E28D0337A012B17D0B06F63
:101540002168FEF715FEA268756F4023134380B231
:10155000E268A8816B6001231343AB6062682E23AD
:10156000FF3313432B6001235B422B6270BD084B9A
:101570009E42E4D1074B80229969D2010A439A61C5
:101580001B20C021FEF75CFFD9E7034CD4E7C0461F
:101590008009002000100240C01E0008C046C0465E
:1015A00008B5FFF72DFE08BDC046C046C046C04680
:1015B0007047C046C046C046C046C046C046C0464A
:1015C0000EB400B582B003AA08CA191C019200F03B
:1015D0004FFA02B008BC03B01847C046C046C04628
:1015E00008B5002904DD0549054AFFF7E9FF08BDF4
:1015F000044B0549DA68FFF7E3FFF8E7601F0008CE
:101600006C1F000828090020741F0008C046C0464F
:1016100010B5041C82B0002905DD1849184AFFF7EF
:10162000CFFF02B010BD1749174AFFF7C9FF201CB2
:101630001649174AFFF7C4FF201C1649164AFFF740
:10164000BFFF201C1549164AFFF7BAFF201C154999
:10165000154AFFF7B5FF201C1449154AFFF7B0FFE4
:10166000201C1449144AFFF7ABFF144B201C0093B5
:101670001349144A144BFFF7A3FFD2E7601F000879
:101680007C1F0008841F0008981F0008A81F00087E
:10169000BC1F0008042000081820000820200008B3
:1016A0003420000840200008542000086C20000866
:1016B00080200008B8200008CC2000080C21000879
:1016C000E4200008FC20000808210008C046C046AD
:1016D00070B5041C0D1C002817D028600E4E201C6D
:1016E000311C00F0A5FB2418201C311C00F070FBFD
:1016F00000280ED0431C2B60002303702378002B9E
:1017000001D1002070BD201CFCE70C68002CE5D145
:10171000F7E72860F2E7C04618210008C046C04637
:10172000014B1B607047C046FC090020C046C04604
:1017300010B5041C72B600210348FFF741FA201CC3
:10174000FFF706F910BDC046FC090020C046C046A0
:1017500000B583B00090034B0020FFF749F903B0B8
:1017600000BDC04621180008C046C046C046C0465D
:10177000F0B5474680B4013A82B06D465218041C59
:101780000F1C0E1C073590462368201C5B68291C23
:1017900001229847002819D0297804292DD008293A
:1017A00019D00D292FD01F29EED94645ECD2226839
:1017B000201C926890472B78201C33702368291CCA
:1017C0005B680122013698470028E5D1012002B06C
:1017D00004BC9046F0BDBE42D6D02368201C9B6856
:1017E0009847236820219B68201C98472368297804
:1017F0009B68201C9847013EC6E7201C0649FFF75E
:10180000DFFE0120E3E7201C0449FFF7D9FE002397
:1018100033700020DBE7C0461C210008C820000808
:10182000F0B556465F4644464D46F0B44268634BB9
:1018300006689B699346624A97B09A61301C614979
:10184000FFF7BEFE604B614A98469246301C414607
:10185000FFF7B6FE301C06A94022FFF789FF0028DB
:1018600030D1694606A8FFF733FF6946071C002000
:10187000002401ADFFF72CFF00280AD0042C1AD059
:10188000A300E850694600200134FFF721FF00283B
:10189000F4D1A300E850002FD8D0381C514600F0F6
:1018A0006FFA00281DD1002C10D0301C4849524638
:1018B000FFF786FECAE7301C4649FFF781FE00238A
:1018C0002B61C3E7301C4449FFF77AFE0020FFF785
:1018D0002FFF002017B03CBC90469946A246AB466D
:1018E000F0BD381C3D4900F04BFA002807D1301CF0
:1018F000002C1CD03649394AFFF762FEA6E7384B68
:1019000018689946002806D13AE0082399444A46C7
:101910001068002834D0391C00F032FA0028F4D1C5
:101920004A465368301C211C2A1C98478EE72D49D3
:10193000FFF746FE2A4C2268002A0BD02A4D0834B5
:10194000301C291C0834FFF73BFE231C083B1A6897
:10195000002AF5D15B46002B0DD05B461A68002AA1
:1019600009D0214D5C46301C291C0834FFF728FEA5
:101970002268002AF7D1301C1C49FFF721FE65E7D9
:101980005B46002B10D0186800280DD0D94605E022
:10199000082399444A461068002805D0391C00F0F5
:1019A000EFF90028F4D1BBE7301C11493A1CFFF7CE
:1019B00007FE301C0F49FFF703FE47E738090020F8
:1019C0002021000828210008402100086C2100087F
:1019D000601F0008542100084821000874210008F5
:1019E000000800207C21000894210008C82000087D
:1019F000982100089C210008C046C046C046C04649
:101A0000F0B5454690460B2257464E4682469146D3
:101A1000D144E0B40E1C0F1C4D46301C4146FEF76D
:101A2000EBFB0C1C3034392C00DD0734013DE4B2F3
:101A3000301C41462C70FEF79BFB4146061C381CAF
:101A4000FEF796FB071EE8D14A465046531BC318C3
:101A500001E06C780135047001309842F9D11CBC6A
:101A600090469946A246F0BDC046C046C046C04614
:101A7000F0B55F46564644464D46F0B489B00C1C5E
:101A800069461531071C05A88346081A161C0191E2
:101A900003902178651C00290AD025290FD03B68C6
:101AA0002C1C9B68381C98472178651C0029F4D1B0
:101AB00009B03CBC90469946A246AB46F0BD627860
:101AC0002D2A00D1D5E0002002902E2A00D1B7E0C7
:101AD00020218846302A00D1B2E02C1C002506E0E7
:101AE00033780436AA0055196D002278ED18131CBE
:101AF000303BDBB20134092BF4D92A2AF0D0002084
:101B000000902E2A00D1A0E0DF2313404C2B00D1FF
:101B10008FE0131C443BDBB2342B00D983E06A48CE
:101B20009B00C3589F460A22316858460436FFF787
:101B300067FF5946411A8946DA464B46ED1AEB4390
:101B40000298DB171D4000284BD16D42002D10D0AC
:101B500051460B782D2B00D193E0231C4446984628
:101B60003B68381C9B68211C01359847002DF7D134
:101B700044463B68381C1B6851464A46984788E7EC
:101B80000822D1E7316858460436002900DA8AE095
:101B90000A22CCE73268301D9246002A00D189E043
:101BA000009A002A6AD051460B78002B00D184E0BD
:101BB000009A5346111C514401E08B4203D001337B
:101BC0001A78002AF9D15146591A89464B46ED1A1E
:101BD000EB43061C02982022DB1790461D4000288C
:101BE000B3D03B68381C1B6851464A469847002DC5
:101BF00000D14EE7231C444698463B68381C9B683E
:101C0000211C013D9847002DF7D1444641E7336838
:101C100003985A4620211370814604368846DA46D6
:101C20008BE7102280E703985B461A708146DA46FC
:101C300083E72378002B00D16BE701341A1C68E797
:101C400030236A789846013547E7002105E033786C
:101C500004368A005118490059180134631E1A7855
:101C6000131C303BDBB2092BF3D92A2AEFD00091A9
:101C70004AE70123A51CA278029326E7134B0093A1
:101C800091E74246302A00D067E701239A443B6837
:101C9000381C9B682D2198470120231C4042444654
:101CA000814498465CE72D2303706846494215300D
:101CB0000A223CE706498A4672E700212022061CD8
:101CC0008946904639E7C046B0210008FF7F0000F2
:101CD00090220008C046C046C046C046C046C04626
:101CE0000EB400B582B004AA03490192FFF7C0FE0A
:101CF00002B008BC03B01847A0220008C046C04686
:101D000008B50249FFF7ECFF08BDC046A022000855
:101D1000084B70B59B69084A8025AD00074C9A6155
:101D20002E1C6683FA20FEF70BFE2583FA20FEF7B1
:101D300007FEF6E738090020D02200080008004816
:101D4000094B70B59B69094A80256D00084C9A6162
:101D50002E1CFA2066834000FEF7F2FDFA20258350
:101D60004000FEF7EDFDF4E738090020DC22000812
:101D700000080048C046C046C046C046C046C046EF
:101D8000114BF0B51E68032500230AE0CA5CB718A2
:101D90007F782F40012F12D0A41A13D10133002ACB
:101DA00010D0C25CB4186778141C2F40012FEDD1FD
:101DB000CA5C2034B7187F782F40012FECD1203235
:101DC000A41AEBD0201CF0BD180800200000000071
:101DD00070B50478061C002C21D00D78002D18D089
:101DE000A54211D00B1C01E094420CD001331A78AB
:101DF000002AF9D101363478002CEFD11D7800206B
:101E0000002D04D170BD251C0020002DFAD0301CFF
:101E1000F8E7013634780B1C002CDFD1EEE7002008
:101E2000F0E7C046000000000000000000000000D5
:101E300070B50478002C14D00E78002E11D0051C3B
:101E4000B44209D00B1C01E0944205D001331A784A
:101E5000002AF9D1281A70BD01352C78002CEFD159
:101E6000F8E70020F7E7C04600000000000000008F
:101E700069646C65000000000000000000000000C4
:101E80006D61696E0016C011040448080C10141826
:101E9000001C1D1E1F2000000000000000000000AC
:101EA0007110000851100008B110000891100008CE
:101EB000A1100008811000086110000841100008FE
:101EC000009600000000000000400000000000003C
:101ED0000000002800000000000000FC545555657B
:101EE000FFFF0000000000000000000000000000F4
:101EF00000000000F003000055555555FFFF00009D
:101F000000000000000000000000050000000000CC
:101F100000000FF055555005FFFC000000000000C8
:101F200000000000000000000000000000000000B1
:101F300055555555FFFF000000000000000000004F
:101F40000000000000000000000000005055555542
:101F5000FFFF000000000000000000000000000083
:101F600055736167653A2025730D0A0073797374A0
:101F7000696D6500256C750D0A000000696E666F5D
:101F8000000000004B65726E656C3A202020202016
:101F9000202025730D0A0000322E372E30756E7307
:101FA0007461626C65000000436F6D70696C6572EE
:101FB0003A202020202025730D0A000047434320AB
:101FC000342E382E3320323031333131323920281B
:101FD00072656C6561736529205B41524D2F656D9B
:101FE0006265646465642D345F382D6272616E636E
:101FF00068207265766973696F6E203230353634C9
:10200000315D00004172636869746563747572655F
:102010003A2025730D0A000041524D76362D4D00B1
:10202000436F72652056617269616E743A20257340
:102030000D0A0000436F727465782D4D300000006A
:10204000506F727420496E666F3A202020202573ED
:102050000D0A0000507265656D7074696F6E2074B2
:1020600068726F756768204E4D490000506C61744E
:10207000666F726D3A202020202025730D0A000023
:1020800053544D33324630353178782F463036311F
:10209000787820456E747279204C6576656C204D99
:1020A000656469756D2044656E7369747920646533
:1020B0007669636573000000426F6172643A2020A4
:1020C00020202020202025730D0A00005354205387
:1020D000544D333246302D446973636F766572799F
:1020E000000000004275696C642074696D653A20D7
:1020F00020202573257325730D0A00004D61722081
:102100002031203230313400202D200031383A3156
:10211000313A313500000000200900005E44000023
:102120007368656C6C0000000D0A43686962694F52
:10213000532F5254205368656C6C0D0A0000000048
:1021400063683E20000000000D0A6C6F676F7574B5
:1021500000000000746F6F206D616E7920617267FE
:10216000756D656E74730D0A000000006578697402
:102170000000000068656C7000000000436F6D6D2A
:10218000616E64733A2068656C70206578697420AC
:10219000000000002573200025730000203F0D0A79
:1021A000000000000000000000000000000000002F
:1021B000841B0008261C0008261C0008261C00089A
:1021C000261C0008841B0008261C0008261C00088A
:1021D000261C0008261C0008261C0008801B00087E
:1021E000261C0008261C0008261C0008261C0008C7
:1021F000261C0008261B0008261C0008261C0008B8
:10220000221C0008261C0008261C0008261C0008AA
:10221000261C0008261C0008261C0008261C000896
:10222000261C0008261C0008261C00080E1C00089E
:10223000841B0008261C0008261C0008261C000819
:10224000261C0008841B0008261C0008261C000809
:10225000261C0008261C0008261C0008801B0008FD
:10226000261C0008261C0008261C0008941B0008D9
:10227000261C0008261B0008261C0008261C000837
:10228000221C000800000000000000000000000008
:10229000286E756C6C290000000000000000000032
:1022A00048656C6C6F20576F726C64000000000012
:1022B000E8220008011D00080000000000000000E6
:1022C00080090020B022000800000000000000008B
:1022D000626C696E6B65723200000000626C696E40
:1022E0006B6572310000000074656D7000000000C5
:1022F00000202020202020202020282828282820D6
:1023000020202020202020202020202020202020CD
:102310002088101010101010101010101010101035
:102320001004040404040404040404101010101025
:1023300010104141414141410101010101010101EF
:102340000101010101010101010101011010101041
:1023500010104242424242420202020202020202C1
:102360000202020202020202020202021010101015
:10237000200000000000000000000000000000003D
:10238000000000000000000000000000000000004D
:10239000000000000000000000000000000000003D
:1023A000000000000000000000000000000000002D
:1023B000000000000000000000000000000000001D
:1023C000000000000000000000000000000000000D
:1023D00000000000000000000000000000000000FD
:1023E00000000000000000000000000000000000ED
:0423F00000000000E9
:1023F8007C1F0008111600086C1F0008E115000872
:0C2408000000000000000000F0220008AE
:0400000508000241AC
:00000001FF
