:020000040800F2
:1000000000040020210200086103000831030008F9
:1000100031030008310300083103000831030008F0
:1000200031030008310300083103000831030008E0
:10003000310300083103000831030008D103000830
:1000400031030008310300083103000831030008C0
:1000500031030008310300083103000831030008B0
:1000600031030008310300083103000831030008A0
:100070003103000831030008310300083103000890
:100080003103000831030008310300083103000880
:100090003103000831030008310300083103000870
:1000A00031030008310300083103000851590008EA
:1000B0003103000831030008310300083103000850
:1000C00070B582B005F03CFA00F0FAF9194E002143
:1000D000301C05F0ADFA90208021C00589008222F5
:1000E00005F0C6FB90208021C005C900822205F0E2
:1000F000BFFB002498210094490040220E4B0F487A
:1001000000F0EEFB982100940D48490040220D4B71
:10011000902500F0E5FBED05012403E0FA20400006
:1001200000F03EFC2B691C42F8D0301C01F0B8FEF8
:10013000F4E7C04620110020115B0008A011002048
:10014000D0120020E15A0008C046C046C046C04652
:10015000002934D00123002210B488422CD301247A
:100160002407A14204D2814202D209011B01F8E70F
:10017000E400A14204D2814202D249005B00F8E7C8
:10018000884201D3401A1A434C08A04202D3001BF4
:100190005C0822438C08A04202D3001B9C08224327
:1001A000CC08A04202D3001BDC082243002803D065
:1001B0001B0901D00909E3E7101C10BC7047002897
:1001C00001D00020C04307B4024802A140180290A9
:1001D00003BDC0461D0000000029F0D003B5FFF7A5
:1001E000B9FF0EBC4243891A1847C0460000000000
:1001F0007047C04600000000000000000000000042
:100200007047C046C046C046C046C046C046C0460D
:10021000FEE7C046C046C046C046C046C046C046CF
:1002200072B63448051C80F30988022383F31488CE
:10023000BFF36F8F304B314A934209D21C1DD11C42
:10024000091B890889002E4A611804C38B42FCD11E
:100250002C4B834209D21A1DE91C891A890889008E
:100260005118274A04C38B42FCD105F029FC264AC9
:10027000264B9A420BD2D043C01880080130244943
:1002800080000023CC58D45004338342FAD1214B50
:10029000214A934209D2181DD11C091A89088900E4
:1002A0004118002204C38B42FCD1FFF7A9FF1B4D6C
:1002B0001B4B9D420AD2EE43F618B60801360024C5
:1002C000A300EB5801349847B442F9D1FFF7F8FE88
:1002D000144D154B9D420AD2EE43F618B60801366E
:1002E0000024A300EB5801349847B442F9D1FFF73A
:1002F0008FFFC046000800200000002000040020FE
:10030000555555550004002000080020B80800206D
:10031000D8680008B808002000140020C0000008B9
:10032000C0000008C0000008C0000008C046C04669
:10033000FEE7C046C046C046C046C046C046C046AE
:1003400000F076FA8022024B12065A60FEE7C046A1
:1003500000ED00E0C046C046C046C046C046C046AC
:10036000EFF30983203383F3098862B67047C046F0
:100370000F3019D072B6EFF309831A1C203A82F3BA
:1003800009880F4880225204203B8169DA61CA7FC4
:10039000002A0AD100688968806888425241D2B236
:1003A000002A0AD1074A9A617047026889689268F0
:1003B000914292415242002AF4D0034A9A61F3E7F3
:1003C000D00900204403000841030008C046C0468D
:1003D00010B5744672B600F0B3F862B6201CFFF791
:1003E000C7FF10BDC046C046C046C046C046C04656
:1003F000F0B544464D4656465F46F0B46B46CB607A
:10040000C3689D46F0BCA046A946B246BB46F0BDB7
:1004100062B6281CA04700F00BFB7047C046C046E0
:1004200082080F4B920070B5D2180324C0239B00A2
:100430000440D558E400FF26A640B543A1402C1C3B
:100440000C43D4501F23034001229A40131C40093F
:10045000034A80008018C02252008350036070BDA0
:1004600000E100E0C046C046C046C046C046C046A7
:100470008308084A10B59B0003249B1820409A6902
:10048000C000FF248440A2438140101C08439861AF
:1004900010BDC04600ED00E0C046C046C046C046A4
:1004A000024B034A9B699A61FEE7C046D0090020CF
:1004B000505B0008C046C046C046C046C046C04665
:1004C00000B5154A154B83B0DA600A200021FFF70A
:1004D000CFFF0B208021FFF7CBFF00F0D9F800F011
:1004E0005FF801F025FA01F063FA40210C4800F0B2
:1004F000AFF90C4B98610123037762B6094B0A4AA6
:100500009B69C0219A61002300930122074B084890
:1005100000F0E6F903B000BD0000FA0500ED00E0D0
:10052000B8080020D0090020605B0008A104000882
:1005300000090020C046C046C046C046C046C0466E
:1005400070B5134B9B69DA7F002A01D0013ADA7744
:100550001A6A01321A620F4AD3680133D3601368F2
:10056000934214D099680139996000290FD100266F
:10057000141C1968DD681160DE604A6062B6186993
:10058000A84772B62368221C99680029F1D070BD73
:10059000D0090020C0090020C046C046C046C04661
:1005A000044B012252429A6000225B601B60DA60B9
:1005B0007047C046C0090020C046C046C046C0467D
:1005C00010B50C4C03612368C2609A68914204D94B
:1005D0001B68891A9A688A42FAD35A680360426093
:1005E000586010608160A34202D09A68511A9960E5
:1005F00010BDC046C0090020C046C046C046C04627
:100600000368074A10B5934203D0996884680A19B1
:100610009A604268136003685A600023C36010BD8B
:10062000C0090020C046C046C046C046C046C046BD
:1006300072B6037F032B19D014D9052B1AD00D2BBA
:1006400018D001235B4243620023037782680C4B7E
:100650001B6899689142FBD25A68036042605860F7
:10066000106001E0002BECD162B67047436A9A68D3
:1006700001329A6043680168196002685360E0E7DC
:10068000D0090020C046C046C046C046C046C0464D
:10069000034B00225B601B609A605B611B617047CB
:1006A000D0090020C046C046C046C046C046C0462D
:1006B000002303778268054B1B6899689142FBD23F
:1006C0005A6803604260586010607047D00900208B
:1006D00008B5074B1422996908771868CA77026829
:1006E00053601A60986101230377FFF781FE08BD0C
:1006F000D0090020C046C046C046C046C046C046DD
:1007000030B5051C87B04B1C12D00B4C01A8A36957
:100710000A4AFFF755FF281CFFF7DAFF049B002B5E
:1007200002D001A8FFF76CFFA369586A07B030BD7B
:10073000FFF7CEFF004CF7E7D00900203106000894
:1007400038B5124D4162A96984688A6800239442D1
:100750000BD803772B1C1B689A689442FBD95A6804
:10076000036042605860106038BD0B772B1C1B681B
:100770009C68A242FBD95A680B604A605960012309
:1007800011600377A861FFF733FEEDE7D009002081
:100790000E4B10B518689969026853601A60986129
:1007A000012303771423CB7700230B778A68031C7C
:1007B00000E01B689C689442FBD25A680B604A6058
:1007C00059601160FFF714FE10BDC046D00900202B
:1007D0000D4B10B518689969026853601A609861EA
:1007E0000123037700230B778A68031C00E01B6852
:1007F0009C689442FBD85A680B604A60596011604B
:10080000FFF7F6FD10BDC046D0090020C046C04627
:1008100008B5054B1A689B6992689B689A4201D992
:10082000FFF7D6FF08BDC046D0090020C046C0462D
:1008300008B5054B9B69DB7F002B02D0FFF7C8FF93
:1008400008BDFFF7A5FFFBE7D0090020C046C04662
:100850000223037700234377C363836303628361C7
:100860001422094BC277012282775A6903618160A1
:1008700042615861031C28330164106183620433B0
:100880000363C3627047C046D0090020C046C0461B
:1008900024394118C1600B61009B4B610E4B0B6208
:1008A0000223037700234377C36383630362836177
:1008B0000A4B82600264012282775A6903614261B5
:1008C0005861031C14212833C177106183620433FB
:1008D0000363C3627047C04611040008D0090020BA
:1008E00010B5041C72B624394118C1600B61029B1B
:1008F0004B61114B0B620223037700234377C363E1
:100900008363036283610D4B8260026401228277FC
:100910005A69036142615861031C14212833C1776D
:100920001061836204330363C3620021FFF708FF91
:1009300062B6201C10BDC04611040008D00900207A
:1009400010B572B6074B9B691C6C99688C4201D03C
:10095000814200D298601864FFF75AFF62B6201CEB
:1009600010BDC046D0090020C046C046C046C046A3
:1009700010B5041C72B60021FFF7E2FE62B6201C1F
:1009800010BDC046C046C046C046C046C046C04670
:1009900072B6427F04231343437762B67047C04662
:1009A00008B5011C72B60620FFF7AAFE62B608BDA4
:1009B00008B572B6044BDB68C11A02D00620FFF7F7
:1009C0009FFE62B608BDC046C0090020C046C046B2
:1009D00008B572B6054B1A689B6992689B689A4283
:1009E00001D3FFF7D5FE62B608BDC046D00900208E
:1009F00038B50D4B9C696062251CA06A2835A84259
:100A000006D00368A362FFF753FEA06AA842F8D19C
:100A1000637F9A0704D1226963691A61226953616D
:100A20000E20FFF755FE38BDD0090020C046C04655
:100A300008B572B6FFF7DCFF08BDC046C046C04629
:100A400038B5041C72B6037F0E2B07D0074B826AA1
:100A50009B691A6083620720FFF73AFE656A62B6F7
:100A6000201C00F00DF8281C38BDC046D00900201D
:100A700072B6837F0133837762B67047C046C04643
:100A800008B5011C72B6837F013BDBB2837762B687
:100A9000002B02D1037F0E2B00D008BD437F032221
:100AA0001340012B0AD0022BF7D1436902691A6166
:100AB0000269406C536101F063F8EEE70269436933
:100AC0001A610269536100F0D3FFE6E7C046C046F1
:100AD00070B582B00C1C161C1D1C00F089FF00288C
:100AE00011D072B6069B211C0093321C2B1CFFF701
:100AF000CFFE012343770021041CFFF721FE62B6DD
:100B0000201C02B070BD0020FBE7C046C046C046B6
:100B1000F0B583B0051C0E1C141C1F1C01F020F83E
:100B2000002811D072B66968321C231C0097FFF7A9
:100B3000AFFE0223437745640021041CFFF700FE4B
:100B400062B6201C03B0F0BD0020FBE7C046C046E3
:100B500072B6034B1869837F0133837762B670479F
:100B6000D0090020C046C046C046C046C046C04668
:100B700010B572B6064B04699C4207D0A37F0133BF
:100B8000A37762B6FFF77CFF201C10BD0024F8E7B6
:100B9000D0090020C046C046C046C046C046C04638
:100BA0004060006081607047C046C046C046C04695
:100BB00070B58568041C01358160002D0BDC0226B0
:100BC000764260680135436863601C60FFF770FD22
:100BD0004662012DF5D170BDC046C046C046C04634
:100BE00008B572B6FFF7E4FFFFF712FE62B608BD64
:100BF000826810B5013A031C82600020002A00DBE5
:100C000010BD074C0320A2695362596813605160FC
:100C10005A600A60FFF75CFDA369586AF0E7C046B6
:100C2000D0090020C046C046C046C046C046C046A7
:100C300008B572B6FFF7DCFF62B608BDC046C04615
:100C400010B58468031C621E82600020002A00DB4D
:100C500010BD00290BD0084A92695362586813608E
:100C600050605A6002600320FFF74AFDF0E7012060
:100C70009C604042ECE7C046D0090020C046C04618
:100C800008B572B6FFF7DCFF62B608BDC046C046C5
:100C900008B572B6836801338360002B01DD62B64C
:100CA00008BD036800211A6802605060181CFFF735
:100CB00047FDF4E7C046C046C046C046C046C046F1
:100CC00008B5836801338360002B00DD08BD03682D
:100CD0001A680260506000225A62181CFFF7E8FC94
:100CE000F4E7C046C046C046C046C046C046C046FF
:100CF00070B5051C0C1C0026002903DC11E0013C2A
:100D0000002C0ED0AB680133AB60002BF7DC2868F9
:100D1000013C03682B605D60FFF7CAFC4662002C53
:100D2000F0D170BDC046C046C046C046C046C046B1
:100D300038B50C1C72B6836801338360002B16DD56
:100D4000A368013BA360002B04DBFFF761FD0020DB
:100D500062B638BD0B4B03209D6963682C606B60E5
:100D600065601D606C62FFF7B3FC686AF0E70368BA
:100D70001A6802605060181CFFF79AFC0023436257
:100D8000DEE7C046D0090020C046C046C046C04687
:100D900000234060006083607047C046C046C04684
:100DA00070B52F4B051C80689C69002853D0A26841
:100DB00081688A4207D9037F8260042B32D0052BD9
:100DC0001CD0002B12D02B1C03E09A68A668B242FC
:100DD00002D31B689D42F8D15A68236062600420E8
:100DE0005C6014606562FFF773FC70BD4368016866
:100DF000196002685360FFF75BFCE4E74368016831
:100E0000196001684B60416A0B1C02E09E689642C3
:100E100002D31B689942F9D15A6803604260586056
:100E20001060D0E7436806681E6001684B60416A45
:100E30000B1C02E09E68964202D31B689942F9D1CE
:100E40005A6803604260586010608868A2688168D0
:100E50009142B0D3B7E7E16BAC60E960E563C4E70A
:100E6000D0090020C046C046C046C046C046C04665
:100E700008B572B6FFF794FF62B608BDC046C0461B
:100E8000031C72B699680020002901D062B6704731
:100E9000034A01209269D16B9A60D960D363F5E768
:100EA000D0090020C046C046C046C046C046C04625
:100EB00038B5134B9D6972B6EC6BE3682068EB6341
:100EC000A0421AD0296C002B09D01A689A4203D08C
:100ED0009268914200D2111CDB68002BF5D10368A7
:100EE000A96023605C60C36BA060E3600021C46301
:100EF000FFF726FC62B6201C38BD0023A360F9E78B
:100F0000D0090020C046C046C046C046C046C046C4
:100F100038B5124B9D69EC6BE3682068EB63A04227
:100F200018D0296C002B09D01A689A4203D0926815
:100F3000914200D2111CDB68002BF5D10368A96037
:100F400023605C60C36BA060E360C463FFF7B0FB29
:100F5000201C38BD0023A360FAE7C046D00900205A
:100F600038B5114B9C6972B6E36B002B1AD0002583
:100F70000BE002681A605360C26B9860DA60C3636A
:100F8000FFF796FBE36B002B08D0DA681868E26382
:100F90009842EED19D60E36B002BF6D1236CA360E9
:100FA000FFF736FC62B638BDD0090020C046C04607
:100FB000406000607047C046C046C046C046C0465C
:100FC00008B572B60368834206D01A680021026031
:100FD0005060181CFFF7B4FB62B608BDC046C0469F
:100FE00008B50368834207D01A6802605060181C75
:100FF000FFF75EFB0023436208BDC046C046C04603
:1010000038B5041C0068A0420AD002256D4203686E
:1010100023605C60FFF74CFB45622068A042F6D17C
:1010200038BDC046C046C046C046C046C046C046A1
:1010300008B572B6FFF7E4FFFFF7EAFB62B608BD3A
:101040000F4B70B5051C9C69FFF762FF6562061CBB
:101050002B1C03E09968A268914202D31B689D4251
:10106000F8D15A682360626005205C601460FFF765
:101070002FFB646A301CFFF793FE201C70BDC04636
:10108000D0090020C046C046C046C046C046C04643
:1010900008B572B6FFF7D4FF62B608BDC046C046B9
:1010A00070B5041C0D1CFFF733FF0F4B061C9A692B
:1010B000231C546203E099689068814202D31B6844
:1010C0009C42F8D15C681360546005205A60291C6A
:1010D0002260FFF715FB041C601C02D0301CFFF7D8
:1010E0005FFE201C70BDC046D0090020C046C0462F
:1010F00008B572B6FFF7D4FF62B608BDC046C04659
:1011000072B603680B60044B01609B698A604B6098
:101110000023CB6062B67047D0090020C046C046AD
:1011200072B6021C02E0994205D01A1C1368834271
:10113000F9D162B6704709681160FAE7C046C04647
:1011400072B6044B9A69936B191C8143916362B622
:1011500018407047D0090020C046C046C046C0466F
:1011600072B6034B9B699A6B1043986362B67047E3
:10117000D0090020C046C046C046C046C046C04652
:1011800008B5836B1943037F8163082B0BD0092BB0
:1011900000D008BD436A19408B42FAD1FFF788FAA4
:1011A00000234362F5E7436A0B42F2D0FFF780FA6F
:1011B00000234362EDE7C046C046C046C046C04675
:1011C00070B50468051C0E1CA04209D0E368606875
:1011D0003343E360A168FFF7D3FF2468A542F5D14C
:1011E00070BDC046C046C046C046C046C046C046A8
:1011F00008B572B6FFF7C4FFFFF70AFB62B608BD79
:1012000008B572B6FFF7DCFFFFF702FB62B608BD58
:10121000F8B50D1C061C00240127002904D10FE09D
:1012200001340436002D0BD03B1CA3401D42F7D0E7
:10123000201C9D433368984701340436002DF3D1B8
:10124000F8BDC046C046C046C046C046C046C046BF
:1012500038B50A4B051C9C6972B6A26B131C03407F
:1012600006D160620820FFF733FAA26B131C2B40F3
:10127000584218408243A26362B638BDD0090020AC
:1012800038B5094B051C9C6972B6A26B101C28402E
:1012900006D108206562FFF71BFAA26B101C2840DC
:1012A0008243A26362B638BDD0090020C046C04662
:1012B00038B5094B041C9D6972B6AB6B1A1C024011
:1012C000824204D068620920FFF702FAAB6BA343A5
:1012D000AB6362B6201C38BDD0090020C046C046B2
:1012E00038B50E4B051C9C6972B6A26B131C0340EB
:1012F0000DD1002902D162B600200EE06062082004
:10130000FFF7FEF90028F6DBA26B131C2B405842B6
:1013100003409A43A26362B6181C38BDD00900206E
:1013200038B50D4B051C9C6972B6A26B131C0340AB
:101330000DD1002902D162B600200CE060620820C5
:10134000FFF7DEF90028F6DBA26B131C2B409A4353
:10135000A26362B6181C38BDD0090020C046C04642
:1013600038B50D4B041C9D6972B6AB6B1A1C02405C
:1013700082420BD0002902D162B600200AE06862E6
:101380000920FFF7BDF90028F6DBAB6BA343AB6385
:1013900062B6201C38BDC046D0090020C046C046F9
:1013A0000C4B10B59C6972B6031C2C33636223602E
:1013B000036B6163636004631C60037F0C2B05D0C7
:1013C0000A20FFF785F9606A62B610BDFFF770F971
:1013D000F6E7C046D0090020C046C046C046C04619
:1013E00010B572B60A4CA3691A1CD86A2C32904206
:1013F00006D00168D9620B234A60037762B610BD3C
:101400000C20FFF765F9A3691A1C2C32D86AF0E7A3
:10141000D0090020C046C046C046C046C046C046AF
:1014200008B572B6FFF78CF962B608BDC046C04673
:1014300010B5041CE160A16021600B1C91005B18D9
:101440004360111C1C30FFF7ABFB201C1030002147
:10145000FFF7A6FB10BDC046C046C046C046C0460A
:1014600010B5041C72B601686368C1608160591AC6
:101470001C308910FFF79CFB201C10300021FFF767
:1014800097FBFFF7C5F962B610BDC046C046C0461F
:1014900070B5041C0E1C1C30111CFFF7D1FB051E7F
:1014A0000CD1A268131DA36016606268934207D234
:1014B000201C1030FFF704FCFFF7AAF9281C70BDB0
:1014C0002368A360F4E7C046C046C046C046C04695
:1014D00008B572B6FFF7DCFF62B608BDC046C0466D
:1014E00008B5436A002B10DD8268013B4362131D7F
:1014F000836011604268934204D21030FFF7E0FB32
:10150000002008BD03688360F7E701204042F8E748
:1015100070B5041C0E1C1C30111CFFF791FB051E3E
:101520000CD1E3682268043BE360934208D3201C9B
:101530001E601030FFF7C4FBFFF76AF9281C70BD6E
:101540006368043BE360F2E7C046C046C046C0465D
:1015500008B572B6FFF7DCFF62B608BDC046C046EC
:1015600008B5436A002B11DD013B4362C368026882
:10157000043BC360934205D310301960FFF7A0FB12
:10158000002008BD4368043BC360F5E701204042EA
:10159000F7E7C046C046C046C046C046C046C04643
:1015A00070B5041C0E1C1030111CFFF749FB051E02
:1015B0000DD1E268131D1268E360326062689342E5
:1015C00007D2201C1C30FFF77BFBFFF721F9281CFA
:1015D00070BD2368E360F4E7C046C046C046C0461D
:1015E00008B572B6FFF7DCFF62B608BDC046C0465C
:1015F00008B58369002B11DDC268013B8361131DAF
:101600001268C3600A604268934204D21C30FFF73C
:1016100057FB002008BD0368C360F7E70120404284
:10162000F8E7C046C046C046C046C046C046C046B1
:1016300008B500290BD0074B9B69586242681860B7
:101640005A60436013600D20FFF75AF808BD01206F
:101650004042FBE7D0090020C046C046C046C04615
:1016600010B5C361029B002441618161C16089188A
:101670004060006084600161036210BDC046C046E6
:1016800038B5C368041C436183610023836000682C
:10169000A0420AD002256D42036823605C60FFF718
:1016A00007F845622068A042F6D138BDC046C04662
:1016B00008B58269436993421DD082680132826015
:1016C0005A1C42611970426903699A420CD203683C
:1016D00083420ED01A6802605060181CFEF7E8FFC3
:1016E00000234362002008BDC3684361036883424E
:1016F000F0D10020F7E78268002ADFD004204042C2
:10170000F1E7C046C046C046C046C046C046C046D7
:1017100038B5041C0D1C72B6C369002B07D098475E
:1017200005E0201C291CFFF783FF00280DDBA368C0
:10173000002BF6D0A269013BA360531CA361107873
:101740002269934201D3E368A36162B638BDC04603
:10175000F0B54E469146C26957464546E0B4041C72
:101760008A461E1C904672B600274346002B08D0BE
:10177000201CC04705E0201C311CFFF759FF002842
:1017800016D1A568002DF6D0A369013D5A1CA261AF
:10179000A5601B785246D355A3692269934201D3B1
:1017A000E368A36162B60137B94502D072B6DCE7DF
:1017B00062B6381C1CBC90469946A246F0BDC04695
:1017C000C361009B41618161C16089184060006014
:1017D0008260016103627047C046C046C046C04691
:1017E00038B50269C368041C43618361D31A8360FE
:1017F0000068A0420AD002256D42036823605C6045
:10180000FEF756FF45622068A042F6D138BDC046BB
:1018100070B5041C0E1C151C72B605E0201C291C9A
:10182000FFF706FF002816DBA368002BF6D0013B6C
:10183000A36063695A1C62611E70626923699A42DF
:1018400001D3E2686261E369002B01D0201C984754
:1018500062B6002070BD62B6FCE7C046C046C04616
:101860008369426910B59A4218D082680132826059
:101870005A1C82611C7803699A420CD20368834225
:1018800007D01A6802605060181CFEF711FF002391
:101890004362201C10BDC3688361EFE78268002AA1
:1018A000E4D003204042F5E7C046C046C046C046EB
:1018B000F0B557464E464546E0B4161CC269041CB6
:1018C0000F1C9A46914672B600239846A568002DD3
:1018D0001DD06269013D531CA56063613B787D1C8E
:1018E0001370626923699A4201D3E26862614B46D0
:1018F000002B01D0201CC84762B60122013E904453
:10190000002E0BD072B62F1CA568002DE1D1201C33
:101910005146FFF78DFE0028D8D062B640461CBC69
:1019200090469946A246F0BDC046C046C046C04655
:1019300005490723054A073199431160044A9A4330
:10194000044B1A607047C04600140020F0090020C4
:1019500000200020EC090020C046C046C046C0461A
:1019600072B60723C21D9A430649074B09681868D7
:10197000091A8A4203D882181A6062B6704700209A
:10198000FBE7C046EC090020F0090020C046C04635
:10199000024B1868024B1B68C01A7047EC09002004
:1019A000F0090020C046C046C046C046C046C046FA
:1019B00008B50548054B036000238360C360103001
:1019C000FFF7E6F908BDC046F809002061190008D4
:1019D00008B5083A002303608160C3600B604A6069
:1019E0001030FFF7D5F908BDC046C046C046C04616
:1019F000F8B5071E33D0381CCE1D07233D1C103010
:101A00009E430835FFF734FA03E063689E4211D91C
:101A1000251C2C68002CF8D1FFF74AFA3B68002BF4
:101A20001FD0301C0830984700281AD00760466045
:101A30000830F8BD321C08329A4207D92168296063
:101A40002760FFF735FA201C0830F2E721689B1B5E
:101A5000A218083B116053602A606660F0E7024FED
:101A6000C9E70020E5E7C046F8090020C046C046A7
:101A700038B5041C083C2068051C08351030FFF7F9
:101A8000F7F92B1CAB4204D0A34202D31B68AB4234
:101A9000FAD11A68002A03D0944201D3131CF1E74B
:101AA000616822601C600A1C08322068A218824209
:101AB00008D05A68111C083159188C420ED0FFF713
:101AC000F7F938BD50681268091808316160226062
:101AD0005A68111C083159188C42F0D16168246889
:101AE000521808325A601C60E9E7C046C046C0463A
:101AF00038B5041C0D1C002815D0201C1030FFF731
:101B0000B7F9A36800220024002B05D059681B6890
:101B100052180134002BF9D1002D00D02A60FFF7B4
:101B2000C7F9201C38BD014CE7E7C046F809002082
:101B300000230360416082607047C046C046C046D3
:101B400007E072B603680B60016062B64368013A51
:101B5000C918002AF5D17047C046C046C046C046E5
:101B600008B5031C72B60068002803D002681A602A
:101B700062B608BD9A68002AFAD058689047F7E71D
:101B800072B603680B60016062B67047C046C0461B
:101B9000014B01221A7070470D100020C046C0464C
:101BA00038B5084D4C2428682D210368013C9B68FA
:101BB0009847002CF7D128680349036802221B6864
:101BC000984738BD40100020A05B0008C046C046C2
:101BD000F0B5474680B4041C84B0002828D06F4676
:101BE00001373D1C201C0A21FEF7F6FA0E1C303688
:101BF0006B1EF6B2201C1E700A21FEF7A9FAA84639
:101C0000041C01350028EDD16B4698450CD944469B
:101C10000B4D02E0A31E1E78013C2868311C0368AE
:101C20009B689847A742F5D104B004BC9046F0BD2C
:101C3000034B3021186803689B689847F4E7C04657
:101C400040100020C046C046C046C046C046C04600
:101C500038B50178041C002908D0054D28680134E6
:101C600003689B68984721780029F7D138BDC046A2
:101C700040100020C046C046C046C046C046C046D0
:101C800038B50178041C094D002907D028680134B3
:101C900003689B68984721780029F7D12868044990
:101CA000036802221B68984738BDC04640100020D8
:101CB000A05B0008C046C046C046C046C046C046FD
:101CC00072B6034A1368591C1160187062B67047E7
:101CD00010100020C046C046C046C046C046C046A0
:101CE0000023002907D1054A01231370044A137009
:101CF000044B18600123181C7047C0460C100020CC
:101D00001410002008100020C046C046C046C0463F
:101D1000F0B584460F4F10483E68031C05E0157867
:101D2000227801310133954209D10C1C1A1C9E42C4
:101D3000F5D80B78002B02D13860002008E0074A64
:101D400001231370064A01201370064B62461A6085
:101D5000F0BDC04610100020441000200C100020E0
:101D60001410002008100020C046C046C046C046DF
:101D7000084B10B5DC680023641A511A8C4207D353
:101D8000054A01231370054A1370054B186001239F
:101D9000181C10BDC00900200C10002014100020D9
:101DA00008100020C046C046C046C046C046C046D7
:101DB00038B5064C251C14352068002801D0FEF7E4
:101DC000E7FD0434AC42F7D138BDC0462C100020EA
:101DD00070B5074C0026251C14352068002802D059
:101DE000FEF72EFE26600434AC42F6D170BDC0462C
:101DF0002C100020C046C046C046C046C046C04663
:101E0000FA21890048430D4B70B501389D69FEF7F2
:101E10009FF92C6A661C301807E000229C4202D809
:101E200083429B415A42002A07D02B6A8442F4D352
:101E300001229C42F4D8002AF7D170BDD0090020BD
:101E400008B50120FEF7ACFD014BD86808BDC046BF
:101E5000C0090020C046C046C046C046C046C04675
:101E600008B5094B00221A7072B6FA21890048435E
:101E70000138FEF76DF9054A411C00230448FEF7BE
:101E80009FFB62B608BDC0460D100020911B0008E4
:101E900018100020C046C046C046C046C046C046D6
:101EA000F8B54D4644465F465646F0B4A44C206013
:101EB000A448FFF7E5FEA448FFF7E2FEA348FFF7BA
:101EC000DFFEA34D2A212068013503689B689847EF
:101ED0006B1E19780029F6D19E48FFF7D1FE9E4D62
:101EE0002A212068013503689B6898476B1E197882
:101EF0000029F6D19948FFF7C3FE994D2A212068A1
:101F0000013503689B6898476B1E19780029F6D144
:101F10009448FFF7B5FE944D2A21206801350368E7
:101F20009B6898476B1E19780029F6D18F48FFF7F8
:101F3000A7FE8F4D2A212068013503689B689847CA
:101F40006B1E19780029F6D18A48FFF799FE8A4D51
:101F50002A212068013503689B6898476B1E197811
:101F60000029F6D18548FFF78BFE854D2A21206890
:101F7000013503689B6898476B1E19780029F6D1D4
:101F80008048FFF77DFE2A257F4E291C20680136F8
:101F900003689B689847731E19780029F6D17B481F
:101FA0000D1CFFF76DFE6748FFF76AFE784A794B14
:101FB000157000229346784A1E1C924601239B44CA
:101FC000336800229046002B00D189E0FFF7E8FD3E
:101FD000724D2D212068013503689B6898476B1E60
:101FE00019780029F6D15846FFF7F2FD20682E2116
:101FF00003689B689847012398444046FFF7E8FD33
:10200000674D20212068013503689B6898476B1E47
:1020100019780029F6D133681D682978002907D07E
:102020002068013503689B68984729780029F7D113
:102030005C48FFF725FEC820FEF7B2FC5A4B5B4F09
:10204000524699463A6000234A461370584A35680A
:10205000136053609360D36013616B68002B00D0F2
:102060009847EB689847AB68002B00D09847FFF77C
:10207000AFFE4A461378002B58D04E4D2D212068D4
:10208000013503689B6898476B1E19780029F6D1C3
:10209000494B1868FFF79CFD484D20212068013509
:1020A00003689B6898476B1E19780029F6D13B6836
:1020B000434DB14653450BD920686A1E0368117819
:1020C0009B6898473A682E1C01359642F4D34E46D9
:1020D0003C48FFF7D5FD04363368002B00D075E788
:1020E0005A469300384AD658002E00D066E7FFF7CC
:1020F00057FD1448FFF7C4FD344D462120680135D3
:1021000003689B6898476B1E19780029F6D1204A0E
:102110001378002B0FD12E48FFF7B2FD1C4B187817
:102120003CBC90469946A246AB46F8BD2948FFF70D
:10213000A7FD0436D0E72848FFF7A2FDEEE7C0462A
:1021400040100020AC650008A45B0008C05B0008DC
:10215000C55B0008245C0008355C0008485C00088A
:10216000615C0008745C0008BD5C0008D05C00087D
:10217000D95C0008EC5C0008F95C00080C5D000804
:10218000255D0008385D0008715D0008845D000869
:1021900014100020305E000844100020D95B0008B5
:1021A0009D5D0008E85B00080C1000201010002066
:1021B0002C100020ED5B000808100020A15D000835
:1021C00045100020045C0008C05D0008A55D000803
:1021D000145C0008085C00081C5C0008C046C0468F
:1021E000F0B5474680B4274F274ABB6990469A68A6
:1021F000264B82B0264D9826760000934346311C2C
:10220000053A18682B1CFEF76BFBBB69214C9A68DA
:10221000214B206000934346311C043A58682B1C24
:10222000FEF75EFBBB6960609A681C4B311C009333
:102230004346033A98682B1CFEF752FBBB69A0602B
:102240009A68174B311C00934346023AD8682B1CFE
:10225000FEF746FBBB694246E06010699A68114B85
:10226000013A311C00932B1CFEF73AFB2061FFF76B
:10227000AFFD0D490120FFF74BFD02B004BC9046B5
:10228000F0BDC046D0090020805B0008645E0008F5
:10229000B12200082C100020505E0008545E000897
:1022A000585E00085C5E0008605E0008C046C046DC
:1022B00008B50078FFF704FD002008BDC046C04601
:1022C000F0B5474680B42B4F2B4ABB6990469A68BD
:1022D0002A4B82B02A4D9826760000934346311C43
:1022E000043A58682B1CFEF7FBFABB69254C9A6828
:1022F000254B606000934346311C053A18682B1C3F
:10230000FEF7EEFABB6920609A68204B311C0093FF
:102310004346013A18692B1CFEF7E2FABB694246B4
:102320002061D0689A681A4B023A0093311C2B1C2A
:10233000FEF7D6FAE06072B60F4B982198680D4B05
:1023400049009B699A68134B033A00930C4BFEF7C4
:102350009FFA0C4B986062B60A4B9868FEF708FB30
:10236000FFF736FD0C490120FFF7D2FC02B004BC98
:102370009046F0BDD0090020805B0008505E000848
:10238000B12200082C100020645E00085C5E00088A
:10239000585E0008545E0008605E0008C046C046F3
:1023A000F8B54A4EB3699C68651C281CFEF7C8FA4C
:1023B000011B4B425941071CC9B20120FFF790FC99
:1023C000002800D0F8BDB36902209968691A4B4211
:1023D0005941C9B2FFF784FC0028F3D1381CFEF73D
:1023E000AFFA291A4B425941C9B20320FFF778FCD2
:1023F0000028E7D1B36904209968091B4B42594171
:10240000C9B2FFF76DFC0028DCD172B6B3699A68D7
:1024100002329A6062B62D4EA71CB36905209968F6
:10242000C91B4B425941C9B2FFF75AFC0028C9D118
:10243000281CFEF785FA011B4B425941C9B2062000
:10244000FFF74EFC0028BDD1B36907209968791ABF
:102450004F427941C9B2FFF743FC0028B2D1B369BA
:102460000820196C691A4B425941C9B2FFF738FC70
:102470000028A7D1E71C381CFEF762FA291A4D4242
:102480006941C9B20920FFF72BFC00289AD1B36932
:102490000A209968791A4B425941C9B2FFF720FCCA
:1024A000002800D08EE7B3690B20196C791A4F42CF
:1024B0007941C9B2FFF714FC002800D082E772B658
:1024C000B3699C601C6462B67CE7C046D0090020FA
:1024D00038B5FFF7B5FC1C4D6420EC68FEF760FAD8
:1024E000211C221C643165320120FFF741FC0028C9
:1024F00000D038BDEC686420FEF752FA211C221C83
:10250000643165320220FFF733FC0028F1D1FA2054
:102510008000EC68FEF744FAFA239B00E1180B4BAD
:102520000320E218FFF724FC0028E2D1ED682C1C00
:102530006434201CFEF73CFA2A1C6532211C04205E
:10254000FFF716FCD5E7C046C0090020E9030000EC
:10255000F0B5474680B4434C434F236884B003939F
:10256000BB69424E9A68424B98210532009349005C
:1025700098460398331CFEF7B3F963683D4D029308
:10258000BB6998219A683C4B28600132009349004E
:10259000331C0298FEF7A4F9A36898210293BB6943
:1025A00068609A68354B033200934900331C0298E7
:1025B000FEF796F9E36898210293BB69A8609A68D0
:1025C0002F4B043200934900331C0298FEF788F920
:1025D000BB6924699A682B4B982149000232E86054
:1025E0000093201C331C0294FEF77AF9264C2861D4
:1025F000201CFEF74DFB201CFEF74AFB201CFEF7BB
:1026000047FB201CFEF744FB201CFEF741FBFFF7B5
:10261000DFFB01201D49FFF77BFB00281ED1BB69B2
:1026200098219A6843460093053203984900331C69
:10263000FEF756F9286072B60221201CFEF758FBFF
:10264000FEF7E6F862B6FFF7C3FB0F4B022099686E
:1026500001394B425941C9B2FFF742FB04B004BCF7
:102660009046F0BD805B0008D0090020B12600082C
:102670005C5E00082C100020585E0008545E0008C4
:10268000505E0008645E000800080020605E0008DC
:1026900010B5044C201CFEF7CBFA201CFEF7F8FA0C
:1026A000002010BD00080020C046C046C046C046FD
:1026B00010B5041C0348FEF7BBFA2078FFF700FBB7
:1026C000002010BD00080020C046C046C046C046DD
:1026D00008B502480021FEF763FA08BD0008002093
:1026E00008B502480021FEF75BFA08BD000800208B
:1026F00008B502480021FEF753FA08BD0008002083
:1027000008B53220FEF74CF972B60448FEF7D8FA45
:10271000FEF77EF862B6002008BDC0460008002023
:1027200008B572B68368002B04DDFEF771F862B657
:10273000002008BDFEF7C4FAF7E7C046C046C04611
:1027400000B587B003A80021FEF72AFA03A80021EC
:10275000FEF746FA059B0120591E0B43D90FFFF7E0
:10276000BFFA002801D007B000BD2B4B98219B6910
:1027700049009A6803AB0093284B013A1868284B2C
:10278000FEF7AEF8274B186003A8FEF751FA059B39
:102790000220591E0B43D90FFFF7A2FA0028E2D1FD
:1027A00072B6059B002B2EDDFEF732F862B6059B54
:1027B0000320D917CB1AD90FFFF792FA0028D2D1EC
:1027C0000599042001394B425941C9B2FFF788FAF3
:1027D0000028C8D172B6059B002B18DDFEF718F84B
:1027E00062B6059B0320D917CB1AD90FFFF778FAE9
:1027F0000028B8D10599052001394B425941C9B289
:10280000FFF76EFAAFE703A8FEF75AFACCE703A882
:10281000FEF756FAE2E7C046D0090020805B0008C8
:10282000212700082C100020C046C046C046C046E4
:1028300070B5494C82B00021201CFEF721FA411CE2
:102840004B425941C9B20120FFF74AFA002801D092
:1028500002B070BD22680220111B4B425941C9B21F
:10286000FFF73EFA0028F3D1A268032051425141FC
:10287000C9B2FFF735FA0028EAD1384B98219B6995
:1028800049009A68364B013A00901868354BFEF7BC
:1028900027F8354BFA2118604900201CFEF7F0F9A3
:1028A000051CFFF795FA69426941C9B20420FFF798
:1028B00017FA0028CCD123680520191B4B42594137
:1028C000C9B2FFF70DFA0028C2D1A2680620514212
:1028D0005141C9B2FFF704FA0028B9D1FFF7B0FAA5
:1028E000224B4125DE68281CFFF7EAF9FA2149004E
:1028F000201CFEF7C5F9411C4B425941C9B20720C3
:10290000FFF7EEF90028A3D123680820191B4B42DA
:102910005941C9B2FFF7E4F9002899D1A26809200A
:1029200051425141C9B2FFF7DBF9002800D08FE7CF
:102930000135EDB2462DD6D10A200D49FFF7E8F951
:10294000002800D084E70B4B0B20F1180A4BF2183B
:10295000FFF70EFA7CE7C04600080020D0090020EF
:10296000805B0008012700082C100020C00900200F
:10297000605E0008C4090000C9090000C046C046E6
:1029800010B5204B82B09B6998219A680023009370
:102990001D4B0132186849001C4BFDF7A1FF1C4C70
:1029A0001C4B211C1860201CFEF7C2F92268012074
:1029B000111B4B425941C9B2FFF792F9002801D0CF
:1029C00002B010BDA268022051425141C9B2FFF7C6
:1029D00087F90028F4D1211C201CFEF7A9F92368EF
:1029E0000320191B4B425941C9B2FFF779F900285E
:1029F000E6D1A16804204B425941C9B2FFF770F9F2
:102A0000DEE7C046D0090020805B00089126000860
:102A1000000800202C100020C046C046C046C0461A
:102A2000F0B5474680B42F4A84B093692E489C681D
:102A30009046FEF71DFA2D4F2D4E3B6898210393CB
:102A40002C4B621C00934900331C0398FDF748FF90
:102A50007A68294D294B039298212860A21C009383
:102A60004900331C0398FDF73BFFBB689821039393
:102A7000234B6860E21C00934900331C0398FDF768
:102A80002FFFFA681F4B03929821A860221D009324
:102A90004900331C0398FDF723FF3F691A4B982127
:102AA000621D4900E8600093381C331C0397FDF752
:102AB00017FF2861FEF7FCF9FFF78AF94246936990
:102AC00001209968091B4C426141C9B2FFF708F91E
:102AD000002803D102200D49FFF71AF904B004BC05
:102AE0009046F0BDD00900200C080020805B000853
:102AF000112B0008645E00082C100020505E0008B6
:102B0000545E0008585E00085C5E0008605E0008C5
:102B100010B5041C0448FEF7ABF92078FFF7D0F895
:102B2000FEF7C6F9002010BD0C080020C046C046C4
:102B300010B5041C0448FEF79BF92078FFF7C0F895
:102B4000FEF7B6F9002010BD1C080020C046C046A4
:102B500008B50248FEF71CF908BDC0460C08002065
:102B600008B50248FEF714F908BDC0460C0800205D
:102B700008B50348FEF70CF90248FEF709F908BD4D
:102B80000C0800201C080020C046C046C046C046B5
:102B900008B50348FEF7FCF80248FEF7F9F808BD4F
:102BA0000C0800201C080020C046C046C046C04695
:102BB00008B50248FEF7ECF808BDC0460C08002036
:102BC000F0B5474680B484B0FFF73AF9204F214B67
:102BD000214EDA683B6890460393B36900259A68F2
:102BE0009821013A49001D4B00950398FDF778FEA6
:102BF0007A68B3691A4C03929A6898212060023A65
:102C00004900184B00950398FDF76AFEB369BF6849
:102C10009A68982160604900033A134B0095381C6C
:102C20000397FDF75DFEA060FFF7D2F801200F4982
:102C3000FFF76EF8002806D14146424664316932FA
:102C40000220FFF795F804B004BC9046F0BDC046E2
:102C5000805B0008C0090020D0090020D12D0008A9
:102C60002C100020B12D0008612D0008E05F000845
:102C7000F0B5474680B484B0FFF7E2F82D4F2E4BF5
:102C80002E4EDA683B6890460393B36900259A6834
:102C90009821053A49002A4B00950398FDF720FE3C
:102CA0007A68B369274C03929A6898212060043AA5
:102CB0004900254B00950398FDF712FEBB6898214B
:102CC0000393B36960609A684900033A1F4B00950B
:102CD0000398FDF705FEFA68B36903929A68982194
:102CE000A060023A49001A4B00950398FDF7F8FDE1
:102CF000B3693F699A689821E0604900013A154B31
:102D00000095381C0397FDF7EBFD2061FFF760F895
:102D100001201149FEF7FCFF002806D1414642463A
:102D20006E3173320220FFF723F804B004BC9046E2
:102D3000F0BDC046805B0008C0090020D00900201B
:102D4000912D00082C100020812E0008512E000823
:102D5000312E0008012E0008605E0008C046C04603
:102D600008B50848FEF784F82820FFF749F8FEF771
:102D70009FF80A20FFF744F84320FEF7A1FF002048
:102D800008BDC0460C080020C046C046C046C0462C
:102D900008B50648FEF76CF81E20FFF731F8FEF77D
:102DA00087F84520FEF78CFF002008BD0C080020A6
:102DB00008B51420FDF7F4FD2820FFF721F8422084
:102DC000FEF77EFF002008BDC046C046C046C04694
:102DD00008B52820FDF7E4FD0648FEF749F80A206B
:102DE000FFF70EF8FEF764F84120FEF769FF0020B8
:102DF00008BDC0460C080020C046C046C046C046BC
:102E000008B53220FDF7CCFD0648FEF731F80A2060
:102E1000FEF7F6FFFEF74CF84120FEF751FF0020C9
:102E200008BDC0461C080020C046C046C046C0467B
:102E300008B52820FDF7B4FD1420FEF7E1FF42207D
:102E4000FEF73EFF002008BDC046C046C046C04653
:102E500008B51420FDF7A4FD0648FEF709F80A207E
:102E6000FEF7CEFFFEF724F84320FEF729FF0020EF
:102E700008BDC0461C080020C046C046C046C0462B
:102E800008B50A20FDF78CFD0B48FDF7F1FF142073
:102E9000FEF7B6FF0948FDF7EBFF0A20FEF7B0FF8B
:102EA000FEF706F80A20FEF7ABFFFEF701F8442014
:102EB000FEF706FF002008BD1C0800200C080020BB
:102EC00008B59620FDF76CFD0348FDF7D1FFFDF72F
:102ED000EFFF002008BDC0460C080020C046C046D9
:102EE00008B53220FDF75CFD0348FDF7C1FFFDF793
:102EF000DFFF002008BDC0461C080020C046C046B9
:102F0000F0B55F4656464D464446F0B48A4D85B00E
:102F1000AB6998219C684900A31C9846874B671CA5
:102F200099461B683A1C0293854B02989B46854B39
:102F300000935B46FDF7D4FC4B465B68824E0393DF
:102F4000824B98219A46824B30604900009342465A
:102F500053460398FDF7C4FC7E4B7060181C9946DD
:102F6000FDF786FFAB6901209968091B4B42594167
:102F7000C9B2FEF7B5FE002806D005B03CBC9046AD
:102F80009946A246AB46F0BD6420FDF709FDAB694A
:102F900002209968C91B4B425941C9B2FEF7A0FEF5
:102FA0000028EAD16C48FDF763FFAB6903209968FC
:102FB000C91B4B425941C9B2FEF792FE0028DCD131
:102FC0006420FDF7EDFCAB69042099684346C91AFB
:102FD0004B425941C9B2FEF783FE0028CDD1FDF71F
:102FE00067FFAB6905209968C91B4B425941C9B2BB
:102FF000FEF776FE0028C0D16420FDF7D1FCAB6956
:1030000006209968C91B4B425941C9B2FEF768FEB8
:103010000028B2D1FDF7A4FFAB6907209968091B0E
:103020004B425941C9B2FEF75BFE0028A5D1FEF71D
:10303000CFFE4A4B9821009349003A1C5B46029808
:10304000FDF74EFC464B9821306049000093424604
:1030500053460398FDF744FC70604846FDF708FFAF
:10306000AB6908209968091B4B425941C9B2FEF768
:1030700037FE002800D080E76420FDF791FCAB69A3
:1030800009209968C91B4B425941C9B2FEF728FE75
:10309000002800D071E73048FDF7EAFEAB690A204E
:1030A0009968C91B4B425941C9B2FEF719FE002865
:1030B00000D062E76420FDF773FCAB690B209968D0
:1030C0004346C91A4B425941C9B2FEF709FE0028CE
:1030D00000D052E772B6FDF71BFFFDF799FB62B611
:1030E000AB690C209968C91B4B425941C9B2FEF724
:1030F000F7FD002800D040E76420FDF751FCAB69E4
:103100000D209968C91B4F427941C9B2FEF7E8FD0D
:10311000002800D031E7FDF723FFAB690E20996846
:10312000091B4C426141C9B2FEF7DAFD002800D00C
:1031300023E7FEF74DFE20E7D0090020805B000862
:10314000E12E0008585E00082C100020C12E000857
:103150005C5E00081C0800200C080020505E00087F
:10316000545E0008C046C046C046C046C046C04681
:1031700070B5294D294CAB69201C9E68FDF780FE77
:10318000011C0120FEF7ACFD002800D070BD201C02
:10319000FDF776FE0123011C5940C9B20220FEF75B
:1031A0009FFD0028F2D172B6FDF7B2FE62B622682A
:1031B0000320111B4B425941C9B2FEF791FD002873
:1031C000E4D1A268042051425141C9B2FEF788FD02
:1031D0000028DBD1AB6905209968891B4E427141FB
:1031E000C9B2FEF77DFD0028D0D1201CFDF740FEBE
:1031F000FDF7B6FE23680620191B4B425941C9B2A0
:10320000FEF76EFD0028C1D1A16807204B4259414D
:10321000C9B2FEF765FDB9E7D00900200C0800200F
:10322000F0B5474680B42D4B2D4A9B6982B09F680C
:103230002C4B90462C4D98267600009343467A1CE2
:10324000311C18682B1CFDF74BFB284C284B2060C9
:1032500000934346BA1C311C58682B1CFDF740FBF9
:10326000244B606000934346FA1C311C98682B1C69
:10327000FDF736FB204BA060009343463A1D311CFE
:10328000D8682B1CFDF72CFB1C4B4246E060311C20
:10329000009310692B1C7A1DFDF722FB206172B68A
:1032A000174C201CFDF79CFE201CFDF799FE201CEE
:1032B000FDF796FE201CFDF793FE201CFDF790FE07
:1032C000FDF7A6FA62B6FEF783FD0E490120FEF770
:1032D0001FFD02B004BC9046F0BDC046D0090020DE
:1032E000805B0008645E0008113300082C10002089
:1032F000505E0008545E0008585E00085C5E0008DE
:103300002C080020605E0008C046C046C046C0468B
:1033100010B5041C0648FDF7ABFD0648FDF7B8FEE6
:103320002078FEF7CDFCFDF7C3FD002010BDC046A0
:103330000C0800202C080020C046C046C046C046ED
:1033400008B50348FDF734FE0248FDF721FD08BD2E
:103350002C0800200C080020C046C046C046C046CD
:1033600008B50348FDF724FE0248FDF711FD08BD2E
:103370002C0800200C080020C046C046C046C046AD
:1033800008B50548FDF714FE0448FDF701FD0448A3
:10339000FDF7FEFC08BDC0462C0800200C080020EC
:1033A0001C080020C046C046C046C046C046C046B5
:1033B000F0B5474680B4244B244A9B6982B09F688D
:1033C000234B9046234D98267600009343467A1C63
:1033D000311C18682B1CFDF783FA1F4C1F4B206013
:1033E00000934346BA1C311C58682B1CFDF778FA31
:1033F0001B4B606000934346FA1C311C98682B1CE1
:10340000FDF76EFA174BA060009343463A1D311C3E
:10341000D8682B1CFDF764FA134B4246311CE06060
:10342000009310692B1C7A1DFDF75AFA20610F4892
:10343000FDF7FEFDFEF7CCFC0D490120FEF768FC10
:1034400002B004BC9046F0BDD0090020805B0008AB
:10345000645E0008113300082C100020505E000844
:10346000545E0008585E00085C5E00082C080020CE
:10347000605E0008C046C046C046C046C046C04662
:10348000F0B5194B194F9B6998259E68184B83B06E
:103490006D00721C0093291C3868164BFDF720FA4A
:1034A000154C164B2060B21C0093291C7868144BF5
:1034B000FDF716FA134BF21C291C60600093B868E4
:1034C000114BFDF70DFAA060104C201CFDF778FDA4
:1034D000201CFDF775FDFEF77BFC0D490120FEF772
:1034E00017FC03B0F0BDC046D0090020805B000887
:1034F0005C5E0008213500082C100020545E000896
:1035000011330008585E0008312B00082C080020F9
:10351000E05F0008C046C046C046C046C046C04640
:1035200010B5041C0948FDF7A3FC0948FDF7A0FCF1
:10353000012149420748FDF7DBFD2078FEF7C0FB7B
:10354000FDF7B6FCFDF7B4FC002010BD1C08002000
:103550000C0800202C080020C046C046C046C046CB
:1035600010B5184B184A9B6910689A6882B0982168
:10357000013200934900154BFDF7B2F9144B186066
:10358000FDF72EFF446B211CFDF74AFFE0B2FEF76A
:1035900097FBFDF725FF446B211CFDF741FFE0B2CF
:1035A000FEF78EFBFDF71CFF446B211CFDF738FF77
:1035B000E0B2FEF785FB07490120FEF7A9FB02B048
:1035C00010BDC046D0090020805B0008E13500082E
:1035D0002C100020E05F0008C046C046C046C04630
:1035E00010B54121041CFDF7DBFE201C4221FDF734
:1035F000D7FE201C4321FDF7D3FE002010BDC0469E
:1036000070B5534D82B0696A012005394B4259416A
:10361000C9B2FEF765FB00281FD142240122211CFC
:10362000281C5242FDF754FF41424141C9B20220D9
:10363000FEF756FB002810D10134462CEED10122B2
:103640004121281C5242FDF783FF41424141C9B24A
:103650000320FEF745FB002801D002B070BD5821C1
:10366000281C0122FDF734FF411C4B425941C9B2CD
:103670000420FEF735FB0028EFD172B65821281C34
:10368000FDF72EFF62B6411C4B425941C9B20520DD
:10369000FEF726FB0028E0D15821281C0122FDF767
:1036A00057FF411C4B425941C9B20620FEF718FB97
:1036B0000028D2D172B65821281CFDF751FF62B6FE
:1036C000411C4B425941C9B20720FEF709FB0028B3
:1036D000C3D172B66A6A082051425141C9B2FEF79D
:1036E000FFFA002801D062B6B7E762B672B6A969E0
:1036F000092005394B425941C9B2FEF7F1FA0028B9
:10370000F1D162B672B6EB68AA680A20991A4B42E8
:103710005941C9B2FEF7E4FA0028E4D162B60524A3
:1037200006E0019B013CD8B2FEF7CAFA002C11D08A
:10373000012201A9281C5242FDF752FF414241419A
:10374000C9B20B20FEF7CCFA0028EAD085E7C046C4
:1037500034080020B34C0C20211CFEF7D9FA0028B5
:1037600000D07AE701224721281C5242FDF7B0FE23
:1037700041424141C9B20D20FEF7B2FA002800D003
:103780006BE7012201A9281C5242FDF729FF4142A3
:103790004141C9B20E20FEF7A3FA002800D05CE731
:1037A000AB682A680F20D11A4B425941C9B2FEF7C3
:1037B00097FA002800D050E7EB682A681020D11A49
:1037C0004B425941C9B2FEF78BFA002800D044E7BA
:1037D00001A9281C0122FDF703FF411C4B4259415E
:1037E000C9B21120FEF77CFA002800D035E772B686
:1037F000281C01A9FDF7FCFE62B6411C4B42594151
:10380000C9B21220FEF76CFA002800D025E772B684
:10381000696A132005394B425941C9B2FEF760FA73
:10382000002800D05FE762B672B6AA691420514240
:103830005141C9B2FEF754FA002800D053E762B6EE
:1038400072B6EB68AA681520991A4B425941C9B261
:10385000FEF746FA002800D045E762B672B641216D
:10386000281CFDF73DFE41424141C9B21620FEF73A
:1038700037FA002800D0F0E64221281CFDF730FE80
:1038800041424141C9B21720FEF72AFA002800D070
:10389000E3E64321281CFDF723FE41424141C9B222
:1038A0001820FEF71DFA002800D0D6E64421281C77
:1038B000FDF716FE41424141C9B21920FEF710FA48
:1038C000002800D0C9E6281C4521FDF709FE62B694
:1038D00041424141C9B21A20FEF702FA002800D045
:1038E000BBE6EB68AA681B20991A4B425941C9B242
:1038F000FEF7F6F9002800D0AFE6052672B6281CC0
:1039000001A9FDF775FE62B641424141C9B21C20D2
:10391000FEF7E6F9002800D09FE6019B013ED8B2F1
:10392000FEF7CEF9002EE9D11D20211CFEF7F0F99B
:10393000002800D091E672B6696A1E2005394B4214
:103940005941C9B2FEF7CCF9002800D0CBE662B6E7
:1039500072B6AA691F2051425141C9B2FEF7C0F99F
:10396000002800D0BFE662B6EB68AA682020991A4A
:103970004B425941C9B2FEF7B3F9002800D06CE6BA
:1039800072B64521281CFDF7EBFD41424141C9B209
:103990002120FEF7A5F9002800D05EE64421281C6E
:1039A000FDF7DEFD41424141C9B22220FEF798F900
:1039B000002800D051E64321281CFDF7D1FD4142EB
:1039C0004141C9B22320FEF78BF9002800D044E61C
:1039D0004221281CFDF7C4FD41424141C9B22420C7
:1039E000FEF77EF9002800D037E6281C4121FDF7BC
:1039F000B7FD62B641424141C9B22520FEF770F9D8
:103A0000002800D029E6EB68AA682620991A4B42C4
:103A10005941C9B2FEF764F9002800D01DE6052619
:103A200002E0C046605E000872B6281C01A9FDF7DE
:103A3000DFFD62B641424141C9B22720FEF750F98D
:103A4000002800D009E6019B013ED8B2FEF738F904
:103A5000002EE9D12820211CFEF75AF9002800D0B9
:103A6000FBE572B6696A292005394B425941C9B252
:103A7000FEF736F9002800D035E662B672B6AA69BC
:103A80002A2051425141C9B2FEF72AF9002800D03C
:103A900029E662B6EB68AA682B20991A4B42594175
:103AA000C9B2FEF71DF9002800D0D6E5281CFDF7A5
:103AB000D7FC72B6696A2C2005394B425941C9B20C
:103AC000FEF70EF9002800D00DE662B672B6AA69BC
:103AD0002D2051425141C9B2FEF702F9002800D011
:103AE00001E662B672B62B68AA682E20991A4B427C
:103AF0005941C9B2FEF7F4F8002800D0F3E562B6E8
:103B000072B6EB6829682F20C91A4B425941C9B2D5
:103B1000FEF7E6F8E7E5C046C046C046C046C046E8
:103B200008B5034803490522FDF782FC08BDC046DD
:103B300034080020180A0020C046C046C046C046CF
:103B400010B51F4C88B0201C694601222460FDF787
:103B5000D7FA201C04A90222FDF7D2FA236801201B
:103B6000191B4B1E9941C9B2FEF7BAF8002801D0C3
:103B700008B010BD201C6946FDF7D2FA2368022068
:103B8000191B4B1E9941C9B2FEF7AAF80028EFD1C4
:103B9000201C04A9FDF7C4FA23680320191B4C421A
:103BA0006141C9B2FEF79CF80028E1D10548072120
:103BB000FDF72EFB04490420FEF7AAF8D8E7C0461B
:103BC0005C08002040620008E05F0008C046C04674
:103BD00008B54320FEF774F808BDC046C046C0468D
:103BE00008B54220FEF76CF808BDC046C046C04686
:103BF00008B54120FEF764F808BDC046C046C0467F
:103C000008B501204042FDF79BFA08BDC046C046FA
:103C100008B501204042FDF793FA08BDC046C046F2
:103C200008B501204042FDF78BFA08BDC046C046EA
:103C3000F0B54F464646C0B405208DB0FDF790FA6A
:103C400001204042FDF704FB411E4B425941C9B2DD
:103C50000120FEF745F8002804D00DB00CBC9046BA
:103C60009946F0BD01204042FDF7F2FA011F4B4298
:103C70005941C9B20220FEF733F80028EDD10120E6
:103C80004042FDF75DFA41424141C9B20320FEF7CF
:103C900027F80028E1D1FEF7D3F8734E734BB169D2
:103CA0001B68734F8A68FC6803930091714B9821DD
:103CB000013A490003989846FCF712FE6E4D2860C1
:103CC00001204042FDF7C4FA211C221C81463231FA
:103CD00037320420FEF74CF80028BED1494601399E
:103CE0004B425941C9B20520FDF7FAFF0028B4D173
:103CF00001204042FDF724FA41424141C9B2062069
:103D0000FDF7EEFF0028A8D1FEF762F80520FDF7C9
:103D100027FA01204042FDF7B3FA411F4B425941B7
:103D2000C9B20720FDF7DCFF002896D101204042F0
:103D3000FDF706FA41424141C9B20820FDF7D0FF24
:103D4000002800D089E7FEF77BF8B36998219A68CC
:103D5000FC68013A4900009303984346FCF7C0FD14
:103D6000286001204042FDF78BFA211C221C80466E
:103D7000323137320920FDF7FBFF002800D06CE715
:103D8000414601394B425941C9B20A20FDF7A8FF0B
:103D9000002800D061E701204042FDF7D1F94142FF
:103DA0004141C9B20B20FDF79BFF002800D054E72A
:103DB000FEF70EF8314A324C131C1A60101C04A98D
:103DC000904601222460FDF79BF908A90422201CDB
:103DD000FDF796F9FEF734F8B36998219A68294BF4
:103DE000FF68013A490000930398274BFCF778FDE0
:103DF00028600520FDF75CFA391C3A1C3231373255
:103E00000C20FDF7B5FF002800D026E70120404236
:103E1000FDF796F941424141C9B20D20FDF760FF1F
:103E2000002800D019E7FDF7D3FF404604A9FDF7AD
:103E300077F9201C08A9FDF773F94246126843463A
:103E4000D11A4B425941C9B20E20FDF749FF002853
:103E500000D002E723680F20191B4C426141C9B210
:103E6000FDF73EFFF9E6C046D0090020805B000860
:103E7000C0090020C13E00082C1000205C08002072
:103E8000600800205C5E0008913E0008C046C04605
:103E900008B500210548FDF7B3F93220FCF780FD95
:103EA00003480021FDF7ACF9002008BD5C080020A4
:103EB00060080020C046C046C046C046C046C04656
:103EC00010B5041C3220FCF76BFD201C0121FDF70E
:103ED0008FF9002010BDC046C046C046C046C0464F
:103EE000012008B500214042FDF7FAF94142414165
:103EF000C9B20120FDF7F4FE002800D008BD012062
:103F000000214042FDF70CFA41424141C9B2022072
:103F1000FDF7E6FE0028F1D1012000214042FDF727
:103F20001FFA41424141C9B20320FDF7D9FE0028E2
:103F3000E4D101200A214042FDF7D2F9414241413A
:103F4000C9B20420FDF7CCFE0028D7D101200A21F8
:103F50004042FDF7E5F941424141C9B20520FDF774
:103F6000BFFE0028CAD101200A214042FDF7F8F91E
:103F700041424141C9B20620FDF7B2FEBEE7C0464C
:103F8000F0B583B0FDF704FD01A90020FDF7B0FDF9
:103F900010210020FDF72CFD011C4B1E9941041C33
:103FA000C9B20120FDF79CFE002801D003B0F0BD8E
:103FB000201CFDF75DFD82490020FDF719FD4142FF
:103FC0004141C9B20220FDF78BFE0028EED17D4CA5
:103FD00001A9201CFDF78CFD1021201CFDF708FD18
:103FE0001021071C201CFDF703FD1021061C201CBE
:103FF000FDF7FEFC051C381CFDF73AFD301CFDF7F3
:1040000037FD281CFDF734FD6946201CFDF770FDC7
:10401000411E4B425941C9B20320FDF761FE002801
:10402000C4D11021201CFDF7E3FC1021051C201C2D
:10403000FDF7DEFC1021061C201CFDF7D9FCFDF766
:1040400017FD301CFDF714FD281CFDF711FD694616
:10405000201CFDF74DFD411E4B425941C9B20420C1
:10406000FDF73EFE0028A1D11121201CFDF7C0FC68
:104070001021051C201CFDF7BBFC061C281CFDF7AD
:10408000F7FC6946201CFDF733FD811E4B42594168
:10409000C9B20520FDF724FE002800D086E71021D4
:1040A000201CFDF7A5FC6946051C201CFDF720FD22
:1040B0000121012807D06946201CFDF719FD811E4A
:1040C0004B425941C9B20620FDF70AFE002800D034
:1040D0006CE7301CFDF7CCFC281CFDF7C9FC6946D9
:1040E000201CFDF705FD411E4B425941C9B2072076
:1040F000FDF7F6FD002800D058E71021201CFDF741
:1041000077FC1021061C201CFDF772FC051C301CDE
:10411000FDF7AEFC6946201CFDF7EAFC811E4B4210
:104120005941C9B20820FDF7DBFD002800D03DE76A
:104130002021201CFDF75CFCFDF79AFC281CFDF7F4
:1041400097FC6946201CFDF7D3FC411E4B425941A8
:10415000C9B20920FDF7C4FD002800D026E7694652
:10416000201CFDF7C5FC0099201CFDF741FC6946A9
:10417000051C201CFDF7BCFC41424141C9B20A208C
:10418000FDF7AEFD002800D010E7281CFDF770FCFD
:104190006946201CFDF7ACFC411E4B425941C9B297
:1041A0000B20FDF79DFD002800D0FFE6019B009A43
:1041B0000C20D11A4B425941C9B2FDF791FDF5E6E9
:1041C00000FFFFFF58100020C046C046C046C04652
:1041D00008B5BE2202480349D200FDF7F9FB08BD2D
:1041E00058100020180A0020C046C046C046C046ED
:1041F00000207047C046C046C046C046C046C046C4
:1042000008B59821024849000022FDF791FC08BD3D
:1042100064080020C046C046C046C046C046C046EE
:1042200070B52F4B2F4D1B6882B0281C191C05221E
:104230000193FDF785FC0524281CFDF791FC011C6A
:10424000481E8141C9B20120FDF74AFD002836D140
:10425000013C002CF0D1281CFDF782FC4142414179
:10426000C9B20220FDF73CFD002828D11E4C01995F
:10427000261C1036281CFDF783FCB44205D002CC66
:10428000281CFDF77DFCB442F9D10524281CFDF75C
:1042900067FC411E8841C1B20320FDF721FD0028C3
:1042A0000DD1013C002CF1D1281CFDF759FC4142F5
:1042B0004141C9B20420FDF713FD002801D002B02E
:1042C00070BD281C1021094AFDF732FC281CFDF79F
:1042D00047FC41424141C9B20520FDF701FDEEE72F
:1042E000805B000864080020845B0008F14100083E
:1042F000F0B5474680B4384B384C84B09B6903A96D
:10430000201C9F68FDF7F4FB354E364B98217A1E32
:1043100000934900331C201CFCF7DAFB324D334B71
:104320009821BA1E286049000093201C331CFCF71A
:10433000CFFB02A96860201CFDF7DAFB0299201C64
:10434000FDF756FB2A4B9821FA1E80460093490040
:10435000331C201CFCF7BCFBA8604046FDF788FB23
:104360002A68002A2ED06B680021002B02D0AA6890
:10437000002A29D00120FDF7B3FC002803D004B0A7
:1043800004BC9046F0BDFDF723FD02201949FDF75E
:10439000BFFC0028F3D102A9201CFDF7A9FB411E98
:1043A0004B425941C9B20320FDF79AFC0028E6D1DF
:1043B000039B029A0420D11A4B425941C9B2FDF71E
:1043C0008FFCDCE70021D5E7EB68002BD2D129690F
:1043D0004B425941C9B2CDE7D009002088100020D6
:1043E000014400085C5E00082C100020585E0008A4
:1043F000545E000820630008C046C046C046C04660
:1044000008B50078FDF75CFC002008BDC046C0463A
:1044100008B5BE2202480349D200FDF7D9FA08BD0B
:1044200088100020180A0020C046C046C046C0467A
:1044300008B5BE2202480349D200FDF7C9FA08BDFB
:1044400088100020180A0020C046C046C046C0465A
:10445000F8B5374B374C9B69261C9F68364D103694
:1044600002CC281CFDF78CFBB442F9D1334E791EE7
:10447000321C334B281CFCF74BFB324CB91E20601E
:10448000321C314B281CFCF743FBF91E6060321CC8
:104490002E4B281CFCF73CFB391FA060321C2C4B18
:1044A000281CFCF735FB2B4BE060791F281C321CC5
:1044B000FCF72EFB23682061002B11D06368002BD2
:1044C0000ED0A368002B0BD0E368002B08D041422C
:1044D0004141C9B20120FDF703FC002806D0F8BD18
:1044E00000210120FDF7FCFB0028F8D1FDF770FC4E
:1044F00002201949FDF70CFC0028F0D10424281CE7
:10450000FDF72EFB011C481E8141C9B20320FDF7B7
:10451000E7FB0028E3D1013C002CF0D1281CFDF77B
:104520001FFB41424141C9B20420FDF7D9FBD6E748
:10453000D0090020805B00087810002001440008AA
:104540005C5E00082C100020585E0008545E0008D5
:10455000505E0008645E000824630008C046C04640
:1045600008B59821024849000022FDF7E1FA08BD8C
:1045700078100020C046C046C046C046C046C0466F
:1045800038B5051CFCF7E4FA0024431B5A4253419A
:104590001C43FCF7EDFA0028F7D1201C38BDC046BB
:1045A00010B5474B82B09B6998219A68454B4900EA
:1045B0000093013A444B4548FCF78AFA817F041C7A
:1045C00001394B425941C9B20120FDF789FB00284E
:1045D00001D002B010BD201CFCF74AFAA17F0220D6
:1045E00002394B425941C9B2FDF77AFB0028F0D19C
:1045F000201CFCF745FAA17F032001394B425941A9
:10460000C9B2FDF76DFB0028E3D1201CFFF7B8FF0E
:10461000011C0420FDF764FB0028DAD1201CFFF701
:10462000AFFF011C0520FDF75BFB0028D1D1201C4A
:10463000FCF726FAA17F06204B425941C9B2FDF78B
:104640004FFB0028C5D1217F07204B425941C9B2F9
:10465000FDF746FB0028BCD1201CFFF791FF011C91
:104660000820FDF73DFB0028B3D1201CFFF788FF91
:10467000011C0920FDF734FB0028AAD13220FCF7E9
:104680008FF9217F0A200E394B425941C9B2FDF7FB
:1046900027FB00289DD1201CFFF772FF011C0B2077
:1046A000FDF71EFB002800D093E7201CFFF768FFF2
:1046B00001214140C9B20C20FDF712FB89E7C04639
:1046C000D00900205C5E000801440008881000202A
:1046D0007047C046C046C046C046C046C046C046F9
:1046E00008B50348C821FDF713F8002008BDC046EF
:1046F00094080020C046C046C046C046C046C046DA
:1047000000B5064B83B019680023009304480422C7
:10471000044BFCF7A5FF03B000BDC046805B00085A
:1047200094080020D1460008C046C046C046C04696
:1047300008B503480021C822FDF76AF8002008BD2B
:1047400070080020C046C046C046C046C046C046AD
:1047500000B5064B83B01968002300930448042277
:10476000044BFDF72DF803B000BDC046805B000888
:1047700070080020D1460008C046C046C046C0466A
:1047800070B584B072B67C4D0120AA685142514187
:10479000C9B2FDF7A5FA061E17D162B672B641245A
:1047A000211C0134281CE4B2FCF782FF452CF7D110
:1047B00062B672B66B69AA69934200D1D6E0022054
:1047C000311CFDF78DFA002802D062B604B070BD2E
:1047D00062B672B60021281CFCF76AFF011D4B422D
:1047E0005941C9B20320FDF77BFA0028EDD162B62A
:1047F000042401214942281CFCF78AFF013CC0B275
:10480000FDF75EFA002CF4D172B6AA68042051427A
:104810005141C9B2FDF764FA0028D6D162B605202D
:104820005649FDF775FA0028D0D172B64124211CF3
:104830000134281CE4B2FCF73BFF452CF7D162B6EB
:104840004F4E281C73680822191C03930023FCF7A1
:104850007FFF011F4B425941C9B20620FDF740FAC4
:104860000028B3D172B6AA68072051425141C9B29B
:10487000FDF736FA0028A8D162B672B64124211C91
:104880000134281CE4B2FCF713FF452CF7D162B6C3
:104890007368281C191C039302220023FCF758FF9D
:1048A000811E4B425941C9B20820FDF719FA002870
:1048B00000D08BE703990023281C0222FCF748FF55
:1048C000811E4B425941C9B20920FDF709FA00285F
:1048D00000D07BE772B6AA680A2051425141C9B2A2
:1048E000FDF7FEF9002800D06FE762B672B600212E
:1048F000281CFCF7DDFE281CFCF7C2FE62B672B66F
:104900001D4D0B20AA6851425141C9B2FDF7E8F98B
:10491000002800D059E762B61A4B36689B69982187
:104920009A68002300930132301C4900164B03960D
:10493000FBF7D6FF154B186072B6AA680C205142DF
:104940005141C9B2FDF7CCF9002800D03DE762B66D
:10495000FDF73EFA281C0A21FCF7DAFE411C4B4207
:104960005941C9B20D20FDF7BBF92FE7AE68731EA0
:104970009E41F6B223E7C046940800202463000855
:10498000805B0008D0090020E14600082C100020C0
:1049900070B584B072B6754D00216A69AB699A42F0
:1049A00000D1D9E00120FDF79BF900282ED162B695
:1049B0004124211C01220134281C5242E4B2FCF79C
:1049C00027FF452CF5D172B6AA6802205142514109
:1049D000C9B2FDF785F9061E18D162B6042472B675
:1049E000281CFCF73DFF62B6C0B2013CFDF768F938
:1049F000002CF4D172B66B69AA69934200D1B0E081
:104A00000320311CFDF76CF9002802D062B604B017
:104A100070BD62B604205649FDF77AF90028F6D138
:104A200072B6281CFCF71CFFC11C4B425941C9B28D
:104A30000520FDF755F90028E8D162B64D4C281C39
:104A400063680822191C03930023FCF731FF011F40
:104A50004B425941C9B20620FDF742F90028D6D190
:104A600072B6AA68072051425141C9B2FDF738F920
:104A70000028CBD162B62368982103933E4B03985C
:104A80009B6949009A680023009301323B4BFBF776
:104A900027FF3B4B186072B62A69EB680820D11AD1
:104AA000AA68891A04394B425941C9B2FDF718F96D
:104AB0000028ABD162B6FDF78BF972B6281CFCF763
:104AC0008FFE62B672B6294D09202B69EA68991AE1
:104AD000AB68C91A4B425941C9B2FDF701F9002828
:104AE00000D093E762B664680023211C0222281CD0
:104AF000FCF7DEFE811E4B425941C9B20A20FDF788
:104B0000EFF8031E00D082E7211C281C0222FCF7CC
:104B1000CFFE811E4B425941C9B20B20FDF7E0F890
:104B2000002800D073E772B6AA680C2051425141A8
:104B3000C9B2FDF7D5F8002800D067E762B60021BA
:104B4000281C0A22FCF764FE411C4B425941C9B2A1
:104B50000D20FDF7C5F85AE7A9684B1E9941C9B267
:104B600020E7AE68731E9E41F6B249E77008002048
:104B700024630008805B0008D0090020314700084A
:104B80002C100020C046C046C046C046C046C046A5
:104B90007047C046C046C046C046C046C046C04634
:104BA0007047C046C046C046C046C046C046C04624
:104BB00010B52E48FDF74CF8CA204000FDF708F864
:104BC0002B4C201CFDF75CF82A48FDF741F84820E3
:104BD000FCF7FEFF201CFDF753F82748FDF738F8D7
:104BE0001420FCF7F5FF201CFDF74AF82348FDF7D9
:104BF0002FF80C20FCF7ECFF201CFDF741F82048B3
:104C0000FDF726F80420FCF7E3FF201CFDF738F839
:104C10001C48FDF71DF81020FCF7DAFF201CFDF7FB
:104C20002FF81948FDF714F81020FCF7D1FF201CCD
:104C3000FDF726F81548FDF70BF80820FCF7C8FF2C
:104C4000201CFDF71DF81248FDF702F82420FCF7A0
:104C5000BFFF201CFDF714F80E48FCF7F9FF2820D1
:104C6000FCF7B6FF201CFDF70BF810BDC064000870
:104C7000D0640008D8640008E8640008F8640008FC
:104C800008650008186500082865000838650008F0
:104C90004865000858650008C046C046C046C04682
:104CA00010B5FCF79DFB446B211CFCF7B9FB002CF5
:104CB000F7D1002010BDC046C046C046C046C04621
:104CC000F0B5184B4F461A684646174BC0B49B695F
:104CD00083B09B68914601339846FDF7B1F8FA20FE
:104CE0008000FDF7BDF8114F114E002400259821DA
:104CF00049000095484642463B1CFBF7F1FD3178E0
:104D000001340029F3D00B48FCF7A2FF201CFCF76C
:104D10005FFF0948FCF7B4FF03B00CBC904699460E
:104D2000F0BDC046805B0008D0090020914B000810
:104D30000D1000206865000878650008C046C04670
:104D400070B5051CFDF77CF8FA208000FDF788F8A7
:104D5000074E0024281C0121FCF722FB3378013484
:104D6000002BF7D0281C0021FCF71AFB201C70BD7B
:104D70000D100020C046C046C046C046C046C046D2
:104D8000134B10B51868134B82B09B6998219A6831
:104D90000023013A490000930F4BFBF7A1FD0F4B95
:104DA0001860FFF7CDFF041CFDF712F80C48FCF764
:104DB0004FFF201CFCF70CFF0A48FCF749FF60007E
:104DC000FCF706FF0848FCF75BFF02B010BDC046C9
:104DD000805B0008D0090020A14C00082C100020A6
:104DE000686500088465000890650008C046C046F4
:104DF000134B10B51868134B82B09B6998219A68C1
:104E000000230132490000930F4BFBF769FD0F4B64
:104E10001860FFF795FF041CFCF7DAFF0C48FCF75D
:104E200017FF201CFCF7D4FE0A48FCF711FF6000B6
:104E3000FCF7CEFE0848FCF723FF02B010BDC046C9
:104E4000805B0008D0090020A14C00082C10002035
:104E5000686500088465000890650008C046C04683
:104E6000F0B54F464646C0B42D4F2E4ABB6990461A
:104E700098259A6883B06D0000264346291C0132AC
:104E800000961868284BFBF72BFDBB69274C9A68E6
:104E9000274B206099464346291C023A00965868E1
:104EA0004B46FBF71DFDBB6960609A684346291CB1
:104EB000033A009698684B46FBF712FDBB69A06069
:104EC0009A684346291C043A0096D8684B46FBF77B
:104ED00007FDBB694246E06010699A68291C053AE3
:104EE0004B460096FBF7FCFC20612068FFF728FF8B
:104EF000041CFCF76DFF0F48FCF7AAFE201CFCF712
:104F000067FE0D48FCF7A4FE6000FCF761FE0B484D
:104F1000FCF7B6FE03B00CBC90469946F0BDC04607
:104F2000D0090020805B0008A14C00082C10002054
:104F3000914B0008686500088465000890650008CA
:104F4000064B10B59C6972B60220FBF7C1FB636A81
:104F5000002BF9D062B6002010BDC046D009002059
:104F600070B5214B82B09B6998219A680023009309
:104F70001E4B0132490018681D4BFBF7B1FC1D4B5D
:104F8000041C1860FCF75CFFFA208000FCF768FF47
:104F9000194E002572B60021201CFBF7D1FB201C06
:104FA0000021FBF7CDFB201C0021FBF7C9FB201CD7
:104FB0000021FBF7C5FB62B633780435002BE9D03E
:104FC00072B60121201C4942FBF7BAFB62B6FCF71E
:104FD000FFFE0A48FCF73CFE6800FCF7F9FD0848B4
:104FE000FCF74EFE02B070BDD0090020805B0008C7
:104FF000414F00082C1000200D10002068650008AB
:1050000090650008C046C046C046C046C046C0467F
:10501000F0B5194B4F461A684646184BC0B49B6909
:1050200083B09B689146013B9846FCF709FFFA2044
:105030008000FCF715FF124F124E00240025982126
:10504000490042463B1C00954846FBF749FCFBF7EC
:10505000F7FC317801340029F1D00B48FCF7F8FD5A
:10506000201CFCF7B5FD0948FCF70AFE03B00CBC98
:1050700090469946F0BDC046805B0008D0090020EC
:10508000914B00080D100020686500087865000845
:10509000F0B5474680B43D4B3D4F98461B6884B001
:1050A0000393BB693B4D9A68002698212B1C05325F
:1050B000009649000398FBF713FC43465B68364CA7
:1050C0000393BB6998219A6820602B1C04320096D8
:1050D00049000398FBF704FC43469B68982103931F
:1050E000BB6960609A6849002B1C033200960398E4
:1050F000FBF7F6FB4346DB6898210393BB69A0608E
:105100009A6849002B1C023200960398FBF7E8FBD3
:1051100043461B6998210393BB69E0609A68490084
:105120002B1C013200960398FBF7DAFB2061FCF799
:1051300087FEFA208000FCF793FE184D184E0024DD
:10514000281C0021FBF74CFD33780134002BF7D0ED
:10515000FCF72EFE0021281CFBF742FDFCF738FE71
:105160001048FCF775FD201CFCF732FD0E48FCF7DB
:105170006FFD600004196000FCF72AFD0B48FCF786
:105180007FFD04B004BC9046F0BDC046805B0008C3
:10519000D0090020B15100082C100020001100207F
:1051A0000D100020686500089C65000890650008E7
:1051B00070B5084CA269537F5A0708D4064E0425DF
:1051C000301CFBF735FDA269537F1D42F8D000204B
:1051D00070BDC046D009002000110020C046C04666
:1051E00008B502480021FBF7DBFC08BD00110020D8
:1051F00008B502480121FBF7D3FC08BD00110020CF
:10520000F0B54F464646C0B4002385B00393FCF783
:1052100017FE2D4B2D4A98469B6991462C4E9A6855
:1052200098277F0003AC4B46391C013A009418685C
:10523000331CFBF755FB42469369264D9A684B4653
:105240002860391C013A00945868331CFBF748FB6E
:105250004246936968609A684B46391C013A00944B
:105260009868331CFBF73CFB42469369A8609A6838
:105270004B46391C013A0094D868331CFBF730FBCD
:105280004A46E860106942469369391C9A68331CA3
:10529000013A0094FBF724FB2861FA208000FBF719
:1052A0007FFBFCF785FDFCF793FD0B48FCF7D0FC7A
:1052B0000398FCF78DFC0948FCF7E2FC05B00CBC38
:1052C00090469946F0BDC046D0090020805B00089A
:1052D000E15200082C100020686500089065000865
:1052E00070B50A4E041C0425FBF772FBFBF770FB3C
:1052F000FBF76EFBFBF76CFB2368B269043323609A
:10530000537F1D42F0D0002070BDC046D009002060
:10531000F0B5244C83B00023009323491022201CB5
:10532000FCF79EF9FCF78CFDFA208000FCF798FD55
:105330001E4F0026251C72B60021201CFCF7B8F970
:10534000201C0121FCF7B4F9201C0221FCF7B0F964
:10535000201C0321FCF7ACF962B601214942281C4C
:10536000FCF7D6F901214942281CFCF7D1F90121AB
:105370004942281CFCF7CCF90121281C4942FCF7C2
:10538000C7F93B782C1C0136002BD4D00848FCF719
:105390005FFCB000FCF71CFC0648FCF771FC03B096
:1053A000F0BDC046A8100020CC1000200D10002039
:1053B00068650008B0650008C046C046C046C046E3
:1053C000F0B5474680B4FCF73BFDFA208000FCF7BF
:1053D00047FD154A154F164E164D0024904672B6DD
:1053E0000121381C321C0023FBF7EAF81249321C59
:1053F0000023281CFBF7E4F8381CFBF701F9281CF4
:10540000FBF7FEF862B6424613780134002BE6D073
:105410000A48FCF71DFC6000FCF7DAFB0848FCF7C3
:105420002FFC04BC9046F0BD0D1000200C11002094
:10543000A14B0008EC100020102700006865000850
:10544000BC650008C046C046C046C046C046C0460F
:1054500070B5FCF7F5FCFA208000FCF701FD144C58
:10546000144E0025201CFBF7E3FB201CFBF710FC6F
:10547000201CFBF7DDFB201CFBF70AFC201CFBF7C4
:10548000D7FB201CFBF704FC201CFBF7D1FB201CE6
:10549000FBF7FEFB33780135002BE3D00648FCF721
:1054A000D7FBA800FCF794FB0448FCF7E9FB70BDB0
:1054B000001100200D10002068650008C865000874
:1054C00070B5FCF7BDFCFA208000FCF7C9FC124C5B
:1054D000124E0025201CFBF7CBFCFBF7E9FC201C3F
:1054E000FBF7C6FCFBF7E4FC201CFBF7C1FCFBF759
:1054F000DFFC201CFBF7BCFCFBF7DAFC3378013542
:10550000002BE7D00648FCF7A3FBA800FCF760FBE4
:105510000448FCF7B5FB70BDDC1000200D10002026
:1055200068650008D8650008C046C046C046C04649
:1055300008B50248FBF72CFC08BDC046DC10002073
:1055400008B500F0A5F8044800F032F900F048F87A
:1055500000F0BEFA08BDC04630680008C046C0462C
:1055600008B50C30FCF7F4F808BDC046C046C0468C
:1055700008B501230C305B42FCF7EAF808BDC046D1
:1055800008B53030FCF794F908BDC046C046C046A7
:1055900008B5012330305B42FCF78AF908BDC046EC
:1055A00008B50C30FCF7B4F808BDC046C046C0468C
:1055B00008B501210C304942FCF7AAF808BDC046E5
:1055C00008B53030FCF724F908BDC046C046C046D7
:1055D00008B5012230305242FCF71AF908BDC04626
:1055E00008B500F01DFA08BDC046C046C046C0461A
:1055F00030B5151C0D4A041C04C083B00B1C606040
:105600000122201C211C22720C30543100941022E3
:10561000FCF726F8201C211C303064310094102245
:105620002B1CFCF7CDF803B030BDC0460068000865
:1056300010B5041C72B600F00BFA0223237262B696
:1056400010BDC046C046C046C046C046C046C04663
:1056500038B54369041C0D1C002B07D0201C0C30EE
:10566000291CFCF725F800280BDB38BD0430042189
:10567000FBF7A6FD201C0C30291CFCF719F80028AC
:10568000F3DA201D8021FBF79BFDEEE7C046C04604
:105690001C4B10B51A69012252421A6100221A618C
:1056A000D96819480143D96018481949DA60486037
:1056B00007208A600860D869802149050143D961C3
:1056C000144980200C68400020430860196AC020FB
:1056D0008000084080218900884203D0802149024F
:1056E00019621A62074B8022196A1202114207D10D
:1056F000186A8021890001431962196A0A431A62F3
:1057000010BDC04600100240FFFFBFFF7FBB00007E
:1057100010E000E000700040C046C046C046C046F1
:1057200020480123026802211343036003681D4AD5
:105730001942FBD01368F9210B401360002353601A
:105740000C20536817491842FBD14A6A01231343BE
:105750004B6202204B6A134A1842FBD0A1239B03E1
:1057600053600023D3621363116880235B040B43EF
:1057700080201360800413680A490342FBD00A4B5F
:1057800011221A604A68022313434B600C204B68B5
:10579000044A0340082BFAD1916901230B4393611A
:1057A0007047C0460010024000200240C046C0467C
:1057B0002A4BBC225969D2030A435A61426890239A
:1057C000DB055A6082689A60C268DA6002695A61D1
:1057D00042691A6282695A6202681A60026A204B40
:1057E0005A60426A9A60826ADA60C26A5A61026BDF
:1057F0001A62426B5A62C2691A60C26B194B5A60D4
:10580000026C9A60426CDA60826C5A61C26C1A62F5
:10581000026D5A62826B1A60826D134B5A60C26DC0
:105820009A60026EDA60426E5A61826E1A62C26ECD
:105830005A62426D1A60426F0C4B5A60826F9A60D6
:10584000C26FDA60802282585A61842282581A62BA
:10585000882282585A62026F1A6070470010024014
:105860000004004800080048000C004800140048EC
:10587000F0B556464D465F464446F0B403275607FA
:10588000D506540617405205120F072383B0A40F04
:10589000924600229946F60FAD0F0194131C2BE09F
:1058A000026AA243444622430262446801229A40AB
:1058B00094433443446082685C0090460322A240D3
:1058C000D243444614402C4384609446C268141C5E
:1058D00062461440019A1443C4600468221C644662
:1058E00022403A43026049081CD0019A7600920097
:1058F000AD000192BF00013301240C42F3D04A46AF
:105900001A40920054469440A0460F249440A44666
:10591000072BC5D9426A141C62469443424614437D
:105920004462C2E703B03CBC90469946A246AB46EF
:10593000F0BDC046C046C046C046C046C046C04690
:10594000024B802219680A431A60704700380140F0
:10595000F0B5474680B4F0462E4E756F2F68EC695F
:105960002C62230729D1E3051FD4A30615D4802375
:105970003B4201D0234236D1630608D572B61021CE
:10598000301DFBF71DFC62B640239F432F6040464D
:10599000FAF7EEFC04BC9046F0BD72B6696A301CA2
:1059A000C9B2FFF755FE62B6E1E772B68021301D3D
:1059B0008900FBF705FC62B6D7E72107C90FC901CB
:1059C000E30701D520231943A30701D54023194339
:1059D000630702D580235B00194372B6301DFBF7C5
:1059E000EFFB62B6BFE772B6301C3030FBF738FF12
:1059F000002803DB80B2288562B6BDE7301D082190
:105A0000FBF7DEFBC0233A1C9A43402313432B6071
:105A1000F2E7C04620110020C046C046C046C0463E
:105A200010B5054C0021201C044AFFF7E1FD044B92
:105A30006367044BA36710BD201100204159000883
:105A400000380140006CDC02C046C046C046C0467B
:105A500070B5061C0C1E28D0337A012B17D0B06FFE
:105A60002168FAF775FBA268756F4023134380B273
:105A7000E268A8816B6001231343AB6062682E2348
:105A8000FF3313432B6001235B422B6270BD084B35
:105A90009E42E4D1074B80229969D2010A439A6160
:105AA0001B20C021FAF7BCFCD9E7034CD4E7C04661
:105AB000201100200010024020680008C046C046A7
:105AC00008B5FFF72DFE08BDC046C046C046C0461B
:105AD0007047C046C046C046C046C046C046C046E5
