:020000040800F2
:1000000000040020A1020008F1030008B103000869
:10001000B1030008B1030008B1030008B1030008F0
:10002000B1030008B1030008B1030008B1030008E0
:10003000B1030008B1030008B1030008610400081F
:10004000B1030008B1030008B1030008B1030008C0
:10005000B1030008B1030008B1030008B1030008B0
:10006000B1030008C1170008011800085118000862
:10007000011C000891210008C1210008B1030008FB
:10008000B1030008B1030008B1030008B103000880
:10009000B1030008B1030008B1030008611F0008A4
:1000A000B1030008B1030008B10300086122000891
:1000B000B1030008B1030008B1030008B103000850
:1000C00030B583B001F034FA00F052FA02F040FD8E
:1000D0002F4CD8210022201C490001F0F1F9201CEE
:1000E0002C4901F015FA201C2B4901F011FA201CB3
:1000F0002A4901F00DFA2A4D0021281C01F018FBB5
:1001000090208021C0058900822201F0C1FE90204C
:100110008021C005C900822201F0BAFE21480321D6
:10012000032201F0B5FE2B1C201C40211E4A00F0CA
:1001300007FE1E4B00241A68982101321A604900FC
:1001400040221B4B00941B4800F042FD98214900BF
:100150004022194B0094194800F03AFD02F018FAB9
:10016000174D03E0FA20800000F052FD002C07D06C
:10017000237F0E2BF6D1201C00F08AFD0024F1E72E
:10018000AC21281C8900402202F01AFA041CE9E77D
:10019000680E0020780E002028100020D8110020C2
:1001A000940A002000080048B1300008740E0020B6
:1001B00021310008080C0020F1300008380D002023
:1001C00010380008C046C046C046C046C046C046BB
:1001D000002934D00123002210B488422CD30124FA
:1001E0002407A14204D2814202D209011B01F8E78F
:1001F000E400A14204D2814202D249005B00F8E748
:10020000884201D3401A1A434C08A04202D3001B73
:100210005C0822438C08A04202D3001B9C082243A6
:10022000CC08A04202D3001BDC082243002803D0E4
:100230001B0901D00909E3E7101C10BC7047002816
:1002400001D00020C04307B4024802A14018029028
:1002500003BDC0461D0000000029F0D003B5FFF724
:10026000B9FF0EBC4243891A1847C046000000007F
:100270007047C046000000000000000000000000C1
:100280007047C046C046C046C046C046C046C0468D
:10029000FEE7C046C046C046C046C046C046C0464F
:1002A00072B63448051C80F30988022383F314884E
:1002B000BFF36F8F304B314A934209D21C1DD11CC2
:1002C000091B890889002E4A611804C38B42FCD19E
:1002D0002C4B834209D21A1DE91C891A890889000E
:1002E0005118274A04C38B42FCD102F091F8264AE8
:1002F000264B9A420BD2D043C018800801302449C3
:1003000080000023CC58D45004338342FAD1214BCF
:10031000214A934209D2181DD11C091A8908890063
:100320004118002204C38B42FCD1FFF7A9FF1B4DEB
:100330001B4B9D420AD2EE43F618B6080136002444
:10034000A300EB5801349847B442F9D1FFF7B8FE47
:10035000144D154B9D420AD2EE43F618B6080136ED
:100360000024A300EB5801349847B442F9D1FFF7B9
:100370008FFFC0460008002000000020000400207D
:100380005555555500040020000800204408002061
:10039000E83900084808002094130020C000000835
:1003A000C0000008C0000008C0000008C046C046E9
:1003B000FEE7C046C046C046C046C046C046C0462E
:1003C00072B6FEE7C046C046C046C046C046C046FC
:1003D00000F05EF900F09CFB00F07AF98022024BFD
:1003E00012065A60FEE7C04600ED00E0C046C04677
:1003F000EFF30983203383F3098862B67047C04660
:100400000F3019D072B6EFF309831A1C203A82F329
:1004100009880F4880225204203B8169DA61CA7F33
:10042000002A0AD100688968806888425241D2B2A5
:10043000002A0AD1074A9A6170470268896892685F
:10044000914292415242002AF4D0034A9A61F3E762
:100450006C090020DC030008D1030008C046C04638
:1004600010B5744600F094F972B600F051F900F03E
:10047000BFF800F06DF962B600F0AAF9201CFFF792
:10048000BFFF10BDC046C046C046C046C046C046BD
:10049000F0B544464D4656465F46F0B46B46CB60D9
:1004A000C3689D46F0BCA046A946B246BB46F0BD17
:1004B00008B500F00DF962B6281CA04700F0D8FB83
:1004C00008BDC046C046C046C046C046C046C0463D
:1004D00082080F4B920070B5D2180324C0239B00F2
:1004E0000440D558E400FF26A640B543A1402C1C8B
:1004F0000C43D4501F23034001229A40131C40098F
:10050000034A80008018C02252008350036070BDEF
:1005100000E100E0C046C046C046C046C046C046F6
:100520008308084A10B59B0003249B1820409A6951
:10053000C000FF248440A2438140101C08439861FE
:1005400010BDC04600ED00E0C046C046C046C046F3
:10055000024B034A9B699A61FEE7C0466C09002082
:1005600050320008C046C046C046C046C046C046DD
:1005700000B5164A164B83B0DA600A200021FFF757
:10058000CFFF0B208021FFF7CBFF00F0C1F900F077
:100590006FF900F0C5FE00F003FF40210D4800F0A8
:1005A000C7FA0D4B98610123037700F059F862B642
:1005B000094B0A4A9B69C0219A61002300930122DA
:1005C000074B084800F004FB03B000BD0000FA052B
:1005D00000ED00E0080900206C090020C03200088E
:1005E0005105000848080020C046C046C046C04625
:1005F000F8B500F00DF9154B9B69DA7F002A01D0A0
:10060000013ADA771A6A01321A62114BDA681C6809
:100610000132DA609C4218D0A268013AA260002A36
:1006200013D100271D1C2268E668E76053601A603A
:1006300000F08EF862B62069B04772B600F068F834
:100640002C682B1CA268002AEDD0F8BD6C09002094
:100650005C090020C046C046C046C046C046C046F1
:1006600008B5074B1B68002B03D1064B1B68002BFA
:1006700004D0054A054B1A60FFF7A2FE08BDC0462C
:100680005009002054090020703200085809002049
:10069000084B10B51B68084C002B02D12368002BB7
:1006A00004D0064A064B1A60FFF78AFE0123236036
:1006B00010BDC046500900205409002078320008BF
:1006C00058090020C046C046C046C046C046C04685
:1006D000084B10B51B68084C002B05D12368002B74
:1006E00002DD0023236010BD044A054B1A60FFF7AA
:1006F00067FEF6E750090020540900208032000808
:1007000058090020C046C046C046C046C046C04644
:10071000084B10B51B68084C002B02DD2368002B2A
:1007200004D0064A064B1A60FFF74AFE01232360F5
:1007300010BDC0465009002054090020883200082E
:1007400058090020C046C046C046C046C046C04604
:10075000084B10B51B68084C002B05DD2368002BE7
:1007600002DD0023236010BD044A054B1A60FFF729
:1007700027FEF6E7500900205409002090320008B7
:1007800058090020C046C046C046C046C046C046C4
:1007900010B572B6084C2368002B03DB074A1268B9
:1007A000002A05D0064B074A1A60FFF709FE2368A6
:1007B0000133236062B610BD5009002054090020A7
:1007C0005809002098320008C046C046C046C046BE
:1007D00010B572B6084C2368002B03DD074A126877
:1007E000002A05D0064B074A1A60FFF7E9FD236887
:1007F000013B236062B610BD50090020540900205F
:1008000058090020A0320008C046C046C046C04675
:1008100008B5074B1B68002B04DB064B1B68002B3D
:1008200000DD08BD044A054B1A60FFF7C9FDF8E773
:100830005009002054090020A8320008580900205F
:1008400008B5074B1B68002B04D1064B1B68002B17
:1008500000DD08BD044A054B1A60FFF7B1FDF8E75B
:100860005009002054090020B03200085809002027
:10087000044B012252429A6000225B601B60DA60E6
:100880007047C0465C090020C046C046C046C0460E
:10089000F8B5051C161C1F1C0C1CFFF7B9FF0C49F2
:1008A0002F610B68EE609A68944204D91B68A41A01
:1008B0009A68A242FAD35A682B606A605D6015603C
:1008C000AC608B4202D09A68141B9C60F8BDC04695
:1008D0005C090020C046C046C046C046C046C0466F
:1008E00010B5041CFFF794FF2368074A934203D016
:1008F0009868A16842189A606268136023685A6019
:100900000023E36010BDC0465C090020C046C0461D
:10091000034B00225B601B609A605B611B61704748
:100920006C090020C046C046C046C046C046C0460E
:1009300010B5041CFFF76CFF00232377A268064B59
:100940001B6899689142FBD25A6823606260201C40
:100950005C60146010BDC0466C090020C046C046F3
:1009600010B5041C72B6FFF7D3FE237F032B16D0FD
:100970000FD9052B01D00D2B04D1226863681A60B2
:100980002268536001235B426362201CFFF7D0FFA3
:1009900001E0002BF6D1FFF7DBFE62B610BD636A03
:1009A0009A6801329A60226863681A60226853600C
:1009B000E8E7C046C046C046C046C046C046C0463E
:1009C00010B5041CFFF73CFF074B14229969186807
:1009D000CA7702680C771A60536098610123037725
:1009E000FFF756FD10BDC0466C090020C046C0464A
:1009F00070B50C1C86B0061CFFF722FF631C13D0D9
:100A00000C4D01A8AB69211C0B4AFFF741FF301CBC
:100A1000FFF7D6FF049B002B02D001A8FFF760FF71
:100A2000AB69586A06B070BD301CFFF7C9FF014DB5
:100A3000F6E7C0466C09002061090008C046C046C0
:100A400038B5041C0D1CFFF7FBFE6562094DA2685A
:100A5000A86983689A4209D9FFF76AFF0123011C3C
:100A60002377201CAC61FFF713FD38BD201CFFF776
:100A70005FFFFAE76C090020C046C046C046C0468A
:100A800038B5094C2368A5691A68281C546022608F
:100A900001221A77A3611423EB77FFF749FF291C82
:100AA000A069FFF7F5FC38BD6C090020C046C046C0
:100AB0000D4B10B518689969026853601A60986107
:100AC0000123037700230B778A68031C00E01B686F
:100AD0009C689442FBD85A680B604A605960116068
:100AE000FFF7D6FC10BDC0466C090020C046C046CA
:100AF00008B5FFF7A5FE054B1A689B6992689B68CD
:100B00009A4201D9FFF7D4FF08BDC0466C09002006
:100B100008B5054B9B69DB7F002B02D0FFF7C8FFB0
:100B200008BDFFF7ADFFFBE76C090020C046C046DB
:100B30000223037700234377C363836303628361E4
:100B40001422094BC277012282775A6903618160BE
:100B500042615861031C28330164106183620433CD
:100B60000363C3627047C0466C090020C046C0469C
:100B7000F8B50F1C041C151C1E1CFFF749FE391C80
:100B8000069B24396118E1604B610F4B0E610B62CB
:100B90000223237700236377E363A3632362A361C4
:100BA00014220A4BE2770122A2775A69A5602361D9
:100BB00062615C61231C283325641461A3620433E1
:100BC000201C2363E362F8BDB10400086C09002017
:100BD000F0B5071C83B00E1C151C1C1C72B6FFF769
:100BE00057FD089B2A1C0093311C231C381CFFF75F
:100BF000BFFF0021041CFFF723FFFFF769FD62B66A
:100C0000201C03B0F0BDC046C046C046C046C0462A
:100C100010B5041C72B6FFF73BFD211C0620FFF740
:100C2000E7FEFFF755FD62B610BDC046C046C046A0
:100C300038B50D4B9C696062251CA06A2835A84216
:100C400006D00368A362FFF773FEA06AA842F8D13A
:100C5000637F9A0704D1226963691A61226953612B
:100C60000E20FFF7ADFE38BD6C090020C046C0461F
:100C700010B5041C72B6FFF70BFD201CFFF7D8FF60
:100C800010BDC046C046C046C046C046C046C0466D
:100C900038B5041C72B6FFF7FBFCA57F013DEDB231
:100CA000A577FFF715FD62B6002D02D1237F0E2B2D
:100CB00000D038BD637F03221340012B0BD0022BE1
:100CC000F7D122696369606C1A612269211C536142
:100CD00000F01EFCEDE722696369201C1A6122699D
:100CE000536100F0ADFBE4E7C046C046C046C046D5
:100CF000F0B583B00C1C171C1E1C00F061FB051E18
:100D000016D072B6FFF7C4FC089B3A1C0093211C56
:100D1000331C281CFFF72CFF012343770021041C00
:100D2000FFF78EFEFFF7D4FC62B6201C03B0F0BDC7
:100D30000020FBE7C046C046C046C046C046C0468D
:100D4000F0B5474680B482B0051C0F1C161C9846AF
:100D500000F0CEFB041E19D072B6FFF799FC434693
:100D60003A1C00936968331C201CFFF701FF022323
:100D7000437745640021041CFFF762FEFFF7A8FCDF
:100D800062B6201C02B004BC9046F0BD0020F9E71A
:100D900070B5041C0E1CFFF73BFDA568A66001356D
:100DA000002D0BDC022676426068013543686360E3
:100DB0001C60FFF7BDFD4662012DF5D170BDC04638
:100DC00038B5051C0C1C72B6FFF762FC281C211CF0
:100DD000FFF7DEFFFFF78CFEFFF77AFC62B638BD47
:100DE00038B5041CFFF72CFDA3680020013BA3606D
:100DF000002B00DB38BD074D0320AB695C626268E5
:100E00001C605A6063601360FFF7DAFDAB69586AD3
:100E1000F0E7C0466C090020C046C046C046C04648
:100E200010B5041C72B6FFF733FC201CFFF7D8FF87
:100E3000041CFFF74DFC62B6201C10BDC046C04626
:100E400000234060006083607047C046C046C046D3
:100E5000304B70B5051C9C69FFF7F2FCA8680028B0
:100E600053D0A26881688A4207D9037F8260042B2D
:100E700032D0052B1CD0002B12D02B1C03E09A681B
:100E8000A668B24202D31B689D42F8D15A6823601B
:100E9000626004205C6014606562FFF791FD70BDC4
:100EA00043680168196002685360FFF741FDE4E799
:100EB00043680168196001684B60416A0B1C02E0DD
:100EC0009E68964202D31B689942F9D15A68036022
:100ED000426058601060D0E7436806681E60016891
:100EE0004B60416A0B1C02E09E68964202D31B686D
:100EF0009942F9D15A68036042605860106088686E
:100F0000A26881689142B0D3B7E7E16BAC60E96059
:100F1000E563C4E76C090020C046C046C046C04631
:100F200010B5041C72B6FFF7B3FB201CFFF790FF4F
:100F3000FFF7CEFB62B610BDC046C046C046C046F5
:100F400038B5154B9D6972B6FFF7A2FBEC6BE368F1
:100F50002068EB63A0421CD0296C002B09D01A68D2
:100F60009A4203D09268914200D2111CDB68002B98
:100F7000F5D10368A96023605C60C36BA060E36087
:100F80000021C463FFF75CFDFFF7A2FB62B6201CE3
:100F900038BD0023A360F7E76C090020C046C046B7
:100FA00038B5041C0D1CFFF733FCA16B237F2943CC
:100FB000A163082B0CD0092B00D038BD636A1940FF
:100FC0008B42FAD1201CFFF7B3FC00234362F4E705
:100FD000636A0B42F1D0201CFFF7AAFC0023436296
:100FE000EBE7C046C046C046C046C046C046C04605
:100FF00070B5051C0E1CFFF70BFC2C68A54209D030
:10100000E36860683343E360A168FFF7C9FF2468C1
:10101000A542F5D170BDC046C046C046C046C046D8
:1010200038B5051C0C1C72B6FFF732FB281C211CBE
:10103000FFF706FDFFF74CFB62B638BDC046C04661
:1010400008B500290BD0074B9B69586242681860AD
:101050005A60436013600D20FFF7CAFC08BD0120F1
:101060004042FBE76C090020C046C046C046C0466F
:1010700010B5C361029B002441618161C160891880
:101080004060006084600161036210BDC046C046DC
:1010900038B5041C0D1CFFF7BBFB6369A2699342C2
:1010A0001CD0A2680132A2605A1C62611D70626984
:1010B00023699A420BD22068A0420DD003682360B6
:1010C0005C60FFF735FC00234362002038BDE36815
:1010D00020686361A042F1D10020F7E7A268002AEE
:1010E000E0D004204042F1E7C046C046C046C046BA
:1010F00070B5041C0E1C72B6FFF7CAFAE369002B28
:1011000008D0201C984705E0201C311CFFF798FFF1
:10111000051E0DDBA368002BF6D0A269013BA3607E
:10112000531CA36115782269934201D3E368A3613C
:10113000FFF7CEFA62B6281C70BDC046C046C04656
:10114000F0B54E469146C26957464546E0B4041C88
:101150008A461E1C904672B6FFF79AFA002743464D
:10116000002B08D0201CC04705E0201C311CFFF7D5
:1011700067FF00281AD1A568002DF6D0A369013DAC
:101180005A1CA261A5601B785246D355A3692269F7
:10119000934201D3E368A361FFF79AFA62B601377D
:1011A000B94506D072B6FFF773FAD8E7FFF790FAA1
:1011B00062B6381C1CBC90469946A246F0BDC0469B
:1011C000C361009B41618161C1608918406000601A
:1011D0008260016103627047C046C046C046C04697
:1011E000F8B5041C0F1C161C72B6FFF751FA05E087
:1011F000201C311CFFF724FF051E18DBA368002B01
:10120000F6D0013BA36063695A1C62611F7062697A
:1012100023699A4201D3E2686261E369002B01D03D
:10122000201C9847FFF754FA62B60020F8BDFFF77C
:101230004FFA62B6281CF9E7C046C046C046C04611
:1012400038B5041CFFF7E4FAA36962699A4217D023
:10125000A2680132A2605A1CA2611D7823699A42D9
:101260000BD22068A04206D0036823605C60FFF7C1
:101270005FFB00234362281C38BDE368A361F0E7ED
:10128000A268002AE5D003204042F5E7C046C046E8
:10129000F0B557464E464546E0B4161CC269041CDC
:1012A0000F1C9A46914672B6FFF7F2F90023984652
:1012B000A568002D21D06269013D531CA5606361C2
:1012C0003B787D1C1370626923699A4201D3E268FE
:1012D00062614B46002B01D0201CC847FFF7F8F98C
:1012E00062B60122013E9044002E0FD072B6FFF785
:1012F000CFF92F1CA568002DDDD1201C5146FFF72A
:101300009FFE0028D4D0FFF7E3F962B640461CBC2C
:1013100090469946A246F0BDC046C046C046C0466B
:1013200005490723054A073199431160044A9A4346
:10133000044B1A607047C046941300208C090020AB
:101340000020002088090020C046C046C046C04694
:1013500010B5041CFFF75CFA0723E21D9A43064907
:10136000064B09681868091A8A4202D882181A605E
:1013700010BD0020FCE7C046880900208C09002031
:1013800010B5041C72B6FFF783F9201CFFF7E0FFCD
:10139000041CFFF79DF962B6201C10BDC046C04674
:1013A00008B50548054B036000238360C360103017
:1013B000FFF746FD08BDC0469009002081130008D4
:1013C000F8B5071E33D0381CCE1D07233D1C103046
:1013D0009E430835FFF7A4FD03E063689E4211D9E0
:1013E000251C2C68002CF8D1FFF7AAFD3B68002BC8
:1013F0001FD0301C0830984700281AD0076046607C
:101400000830F8BD321C08329A4207D92168296099
:101410002760FFF795FD201C0830F2E721689B1B31
:10142000A218083B116053602A606660F0E7024F23
:10143000C9E70020E5E7C04690090020C046C04645
:1014400038B5041C083C2068051C08351030FFF72F
:1014500067FD2B1CAB4204D0A34202D31B68AB42F6
:10146000FAD11A68002A03D0944201D3131CF1E781
:10147000616822601C600A1C08322068A21882423F
:1014800008D05A68111C083159188C420ED0FFF749
:1014900057FD38BD50681268091808316160226034
:1014A0005A68111C083159188C42F0D161682468BF
:1014B000521808325A601C60E9E7C046C046C04670
:1014C00000230360416082607047C046C046C0464A
:1014D00010B5041CFFF79CF92068002802D00368AF
:1014E000236010BDA368002BFBD060689847F8E725
:1014F00010B5041C72B6FFF7CBF8201CFFF7E8FF0D
:10150000041CFFF7E5F862B6201C10BDC046C046BB
:1015100038B5041C0D1C72B6FFF7BAF8FFF778F95E
:1015200023682B602560FFF7D3F862B638BDC0464C
:1015300008B500F01DFA0A4800F04AFC00F018F85F
:1015400000F056F800F074F800F0CAF800F020F946
:1015500000F066F800F07CF800F062FF08BDC046BD
:1015600050330008C046C046C046C046C046C046CC
:1015700008B500F08DFA08BDC046C046C046C0465A
:1015800008B501230370002343608360C3600361D7
:1015900043611830FFF754FC08BDC046C046C04642
:1015A00038B5041C0D1C72B6FFF772F8201C65607C
:1015B00000F0A6FA02232370FFF78AF862B638BD5E
:1015C000F8B5041C0D1C171C1E1C72B6FFF760F842
:1015D000FFF71EF903232370201CA760E660256136
:1015E00000F0BEFAFFF774F862B6F8BDC046C04618
:1015F00008B500F06DFD08BDC046C046C046C046F7
:1016000008B501230370002343600C30FFF718FC7A
:1016100008BDC046C046C046C046C046C046C046DB
:101620007047C046C046C046C046C046C046C046D9
:1016300008B500F0FDFD08BDC046C046C046C04626
:1016400001230370002343607047C046C046C04674
:1016500008B500F055FD08BDC046C046C046C046AE
:1016600008B50C30FFF76CFD08BDC046C046C0464B
:1016700008B501230C305B42FFF762FD08BDC04690
:1016800008B53030FFF704FE08BDC046C046C0466E
:1016900008B5012330305B42FFF7FAFD08BDC046B4
:1016A00008B50C30FFF724FD08BDC046C046C04653
:1016B00008B501210C304942FFF71AFD08BDC046AC
:1016C00008B53030FFF78CFD08BDC046C046C046A7
:1016D00008B5012230305242FFF782FD08BDC046F6
:1016E00008B500F045FE08BDC046C046C046C0462D
:1016F00030B5151C0D4A041C04C083B00B1C60607F
:101700000122201C211C22720C3054310094102222
:10171000FFF7AEFC201C211C3030643100941022F5
:101720002B1CFFF74DFD03B030BDC046E032000872
:1017300038B5041C0D1C72B6FEF7AAFF201C291C2C
:1017400000F02EFE02232372FEF7C2FF62B638BD00
:1017500038B5041C0D1CFFF75BF86369002B07D03C
:10176000201C0C30291CFFF793FC00280BDB38BD34
:10177000201D0421FFF73CFC201C0C30291CFFF726
:1017800087FC0028F3DA201D8021FFF731FCEEE70B
:1017900008B500F0DDFC08BDC046C046C046C046E6
:1017A00008B5012303700023436083600C30FFF70A
:1017B00047FB08BDC046C046C046C046C046C046FE
:1017C00010B57446FEF7E4FF084B0F211A6811406C
:1017D000074A59601368002B01D050689847FEF7FC
:1017E000F7FF201CFEF70CFE10BDC04600000240B3
:1017F000B0090020C046C046C046C046C046C046EC
:1018000010B57446FEF7C4FF0F4B19680906090F9F
:1018100007D00A015A600D4A9368002B01D0D068A6
:101820009847094B19680905090F07D00A025A6041
:10183000064A1369002B01D050699847FEF7C8FF8C
:10184000201CFEF7DDFD10BD00000240B0090020A5
:1018500010B57446FEF79CFF0F4B19680904090F79
:1018600007D00A035A600D4A9369002B01D0D06952
:101870009847094B19680903090F07D00A045A60F1
:10188000064A136A002B01D0506A9847FEF7A0FF62
:10189000201CFEF7B5FD10BD00000240B00900207D
:1018A0000B4A002313600B4A0B4913600B4A136069
:1018B0000B600B4993600B600A4913610B600A4986
:1018C00093610B601362094B012252425A607047C8
:1018D000D8090020080002401C000240B009002086
:1018E0003000024044000240580002400000024024
:1018F000F0B54F4680B4194C8C46477A111C012232
:10190000161C2568BE4099460123354220D1144B50
:10191000FF00F9503543DF194B467B6025606B06AD
:1019200003D0104B5C6922435A6103680F221C6884
:1019300094431C60057A4468AA40226000221A6021
:10194000002909D063469901807AFEF7C1FD002382
:10195000181C04BC9146F0BD0023F9E7D80900200B
:10196000B009002000100240C046C046C046C04634
:101970001D4B10B51A69012252421A6100221A61E8
:10198000D9681A480143D96019481A49DA60486091
:1019900007208A600860D869802149050143D96120
:1019A000154980200C68400020430860196AC02057
:1019B0008000084080218900884203D080214902AC
:1019C00019621A62084B8022196A1202114207D169
:1019D000186A8021890001431962196A0A431A6250
:1019E000FFF75EFF10BDC04600100240FFFFBFFFC3
:1019F0007FBB000010E000E000700040C046C04621
:101A000020480123026802211343036003681D4A32
:101A10001942FBD01368F9210B4013600023536077
:101A20000C20536817491842FBD14A6A012313431B
:101A30004B6202204B6A134A1842FBD0A1239B033E
:101A400053600023D3621363116880235B040B434C
:101A500080201360800413680A490342FBD00A4BBC
:101A600011221A604A68022313434B600C204B6812
:101A7000044A0340082BFAD1916901230B43936177
:101A80007047C0460010024000200240C046C046D9
:101A900038B5124D124C281CFFF772FD114B8021F6
:101AA000EB62114B0C202B63AC62FEF711FD0F4B68
:101AB0008022996992000A439A61A368A2688023F0
:101AC0001B061343A360221C9368002BFCDB074B0F
:101AD000074A99690A409A6138BDC046DC0900206E
:101AE00000240140003300088A2500000010024055
:101AF000FFFDFFFFC046C046C046C046C046C046C8
:101B0000037810B5041C012B00D010BD0F4B984278
:101B100007D0A26A01239360012113681942FCD007
:101B2000F3E702210A4A231CC06AFFF7E1FEE36AD9
:101B3000084A1B689A60084B8022996992000A4300
:101B40009A618022054B52011A61E2E7DC0900200C
:101B5000E11C000840240140001002400024014024
:101B6000026930B51378016BC468002B03D0012CD7
:101B700021D924231943C36A85681B68DD60558811
:101B80006C435C6019601C68012121431960836A01
:101B90005569196819609021596011691962916934
:101BA0005D61D268996205490A43DA609968042246
:101BB0000A439A6030BD20231943DCE7032000006C
:101BC000C36A10B519680F220C6894430C605968F9
:101BD0001B7A9A400A60826A9368590700D410BD44
:101BE000916810230B439360102193681942FCD134
:101BF000F5E7C046C046C046C046C046C046C046DF
:101C000070B57646FEF7C4FD314B324C1D681D6041
:101C10002369002B03D0EB0607D42B062ED4FEF746
:101C2000D7FD301CFEF7ECFB70BDE36A1B685B68F8
:101C3000002BF2D0201CFFF7C3FF23699B68002B09
:101C400007D005222270201C012198472378052BFC
:101C50003AD00023236172B6FEF75AFD1D4C60692D
:101C6000002806D00023636101235B424362FEF734
:101C70005FFEFEF76DFD62B62B06D0D5201CFFF788
:101C80009FFF23699B68002B07D005222270201C30
:101C9000022198472378052B13D00023236172B6C5
:101CA000FEF736FD0B4B5869002806D000225A611A
:101CB00001235B424362FEF73BFEFEF749FD62B63D
:101CC000ADE702232370E8E702232370C1E7C04693
:101CD00000240140DC090020C046C046C046C04682
:101CE00070B5041C080722D42369002B13D00225E9
:101CF0000D4211D01E78002E42D05D68002D0AD012
:101D0000E268012A38D9598852085143A36849002A
:101D10005918201CA84770BD4807FCD55B68002BEC
:101D2000F9D0E068A1684208201C9847F3E7201C1E
:101D3000FFF746FF23699B68002B07D0052222701E
:101D4000201C002198472378052B12D00023236103
:101D500072B6FEF7DDFC6069002806D000236361DF
:101D600001235B424362FEF7E3FDFEF7F1FC62B63E
:101D7000D1E702232370E9E7A168201CA847CAE73E
:101D8000201CFFF71DFF23695B68002B17D004227E
:101D90002270201CA168E26898472378042B0BD09E
:101DA00072B6FEF7B5FC60690028DED000236361DF
:101DB0004362FEF7BDFDD8E725702661F0E7257088
:101DC0002361EDE7C046C046C046C046C046C04697
:101DD0002A4BBC225969D2030A435A6142689023B4
:101DE000DB055A6082689A60C268DA6002695A61EB
:101DF00042691A6282695A6202681A60026A204B5A
:101E00005A60426A9A60826ADA60C26A5A61026BF8
:101E10001A62426B5A62C2691A60C26B194B5A60ED
:101E2000026C9A60426CDA60826C5A61C26C1A620F
:101E3000026D5A62826B1A60826D134B5A60C26DDA
:101E40009A60026EDA60426E5A61826E1A62C26EE7
:101E50005A62426D1A60426F0C4B5A60826F9A60F0
:101E6000C26FDA60802282585A61842282581A62D4
:101E7000882282585A62026F1A607047001002402E
:101E80000004004800080048000C00480014004806
:101E9000F0B556464D465F464446F0B40327560714
:101EA000D506540617405205120F072383B0A40F1E
:101EB000924600229946F60FAD0F0194131C2BE0B9
:101EC000026AA243444622430262446801229A40C5
:101ED00094433443446082685C0090460322A240ED
:101EE000D243444614402C4384609446C268141C78
:101EF00062461440019A1443C4600468221C64467C
:101F000022403A43026049081CD0019A76009200B0
:101F1000AD000192BF00013301240C42F3D04A46C8
:101F20001A40920054469440A0460F249440A44680
:101F3000072BC5D9426A141C624694434246144397
:101F40004462C2E703B03CBC90469946A246AB4609
:101F5000F0BDC046C046C046C046C046C046C046AA
:101F6000F8B5594B5B6B9C697646FEF711FC564DF4
:101F7000FC226B6B9201DC61144241D1FE222242B1
:101F800005D1FEF725FC301CFEF73AFAF8BD4022D9
:101F9000224202D0297803296FD0E00608D559687B
:101FA0008022D2010A435A60AA6804231343AB601B
:101FB000A306E6D52A6B0F231168086898430860CA
:101FC0005168127A181C9040EA6A08601168086823
:101FD000984308605168127A93400B60AA68002AFF
:101FE00034D172B6FEF794FBE869002804D00023D0
:101FF000EB614362FEF79CFCFEF7AAFB62B6C0E70A
:102000002A6B0F2311680868984308605168127A98
:10201000181C9040EA6A08601168086898430860D4
:102020005168127A93400B60E2051DD4AB68A2059B
:1020300002D502221343AB60600502D50822134388
:10204000AB60E20415D520221343AB6072B6FEF7F5
:102050005FFBE8690028CFD00023EB6102235B42DD
:102060004362FEF765FCC7E7A86801230343AB6042
:10207000DDE7002B00D184E7E8E719689143EA6ABD
:10208000196012685168002918D017680420287058
:1020900001203843106058680C4A090402405A6015
:1020A0005A681143596059688022D2000A435A6025
:1020B0005968802292010A435A606EE7596880226B
:1020C000D2010A435A6068E7100A0020FFFF00FFB0
:1020D00010B5064C201CFFF793FA0023E361044B74
:1020E0006363044BE3620C3B236310BD100A0020C2
:1020F0000054004018330008C046C046C046C046E1
:102100000D480E4B1860CA23436253234362C368D1
:10211000DA060FD4C26880231343C3604021C3682A
:10212000054A1942FBD0064B802113611361D36825
:102130008B43D3607047C04600280040480A002007
:1021400037017F00C046C046C046C046C046C046B4
:1021500010B5094C094B01225242201C1A80FFF78E
:102160001FFB074BE361074B23620C336362064B93
:10217000A362064BE36210BD500A00204C0A002007
:10218000003001400C3300080A1000001810000055
:1021900010B57446FEF7FCFA064B0748022252427D
:1021A0001A61426892689047FEF712FB201CFEF706
:1021B00027F910BD002C0140800A0020C046C0460F
:1021C00038B57546FEF7E4FA144B1C69DA6814401A
:1021D000A4B2FF222240D2431A61A30719D4630795
:1021E00012D423070BD4E30603D50D4843689B6A3A
:1021F0009847FEF7EDFA281CFEF702F938BD0848AB
:1022000043681B6A9847EEE7054843689B6998470F
:10221000E7E7034843681B699847E0E7002C014063
:10222000800A0020C046C046C046C046C046C046E0
:1022300010B5034C201CFFF703FA024B236110BDBD
:10224000800A0020002C0140C046C046C046C0465F
:10225000024B802219680A431A6070470038014017
:10226000F8B54F464646C0B4F046FEF791FA3E4EEA
:10227000756F2F68EC692C62220738D1E3052AD4E8
:10228000A2061CD480233B4201D0234251D16306D5
:102290000CD572B6FEF73CFA301D1021FEF7A8FEF1
:1022A000FEF756FA62B640239F432F60FEF790FA7E
:1022B0004046FEF7A5F80CBC90469946F8BD72B6AC
:1022C000FEF726FA696A301CC9B2FFF741FAFEF739
:1022D0003FFA62B6D6E772B6FEF71AFA8021301DD1
:1022E0008900FEF785FEFEF733FA62B6C8E72307DA
:1022F000DB0FDB019946E30703D54A4620231A4347
:102300009146A30703D54A4640231A4391466307E3
:1023100004D580234A465B001A43914672B6FEF705
:10232000F7F9301D4946FEF763FEFEF711FA62B673
:10233000A4E772B6FEF7ECF9301C3030FEF780FFF0
:10234000002805DB80B22885FEF702FA62B69EE718
:10235000301D0821FEF74CFEC0233A1C9A4340234F
:1023600013432B60F0E7C046940A0020C046C046E5
:1023700010B5054C0021201C044AFFF7B9F9044BA5
:102380006367044BA36710BD940A00205122000824
:1023900000380140006CDC02C046C046C046C04662
:1023A00070B5061C0C1E28D0337A012B17D0B06FE5
:1023B0002168FDF70DFFA268756F4023134380B2BB
:1023C000E268A8816B6001231343AB6062682E232F
:1023D000FF3313432B6001235B422B6270BD084B1C
:1023E0009E42E4D1074B80229969D2010A439A6147
:1023F0001B20C021FEF76CF8D9E7034CD4E7C04698
:10240000940A00200010024040330008C046C04635
:1024100008B5FFF7F5FA08BDC046C046C046C0463D
:102420007047C046C046C046C046C046C046C046CB
:102430000EB400B582B003AA08CA191C019200F0BC
:102440004FFA02B008BC03B01847C046C046C046A9
:1024500008B5002904DD0549054AFFF7E9FF08BD75
:10246000044B0549DA68FFF7E3FFF8E7E0330008BB
:10247000EC3300085C090020F4330008C046C04675
:1024800010B5041C82B0002905DD1849184AFFF771
:10249000CFFF02B010BD1749174AFFF7C9FF201C34
:1024A0001649174AFFF7C4FF201C1649164AFFF7C2
:1024B000BFFF201C1549164AFFF7BAFF201C15491B
:1024C000154AFFF7B5FF201C1449154AFFF7B0FF66
:1024D000201C1449144AFFF7ABFF144B201C009337
:1024E0001349144A144BFFF7A3FFD2E7E033000867
:1024F000FC330008043400081834000828340008AD
:102500003C3400088434000898340008A0340008E3
:10251000B4340008C0340008D4340008EC34000897
:1025200000350008383500084C3500088C350008A7
:10253000643500087C35000888350008C046C04670
:1025400070B5041C0D1C002817D028600E4E201CEE
:10255000311C00F05DFE2418201C311C00F028FE08
:1025600000280ED0431C2B60002303702378002B1F
:1025700001D1002070BD201CFCE70C68002CE5D1C7
:10258000F7E72860F2E7C04698350008C046C04625
:10259000014B1B607047C046100B0020C046C04670
:1025A00010B5041C72B6FEF773F800210348FEF75D
:1025B0001FFD201CFEF73CFB10BDC046100B002089
:1025C00000B583B00090034B0020FEF791FB03B0F1
:1025D00000BDC04691260008C046C046C046C04661
:1025E000F0B5474680B4013A82B06D465218041CDB
:1025F0000F1C0E1C073590462368201C5B68291CA5
:1026000001229847002819D0297804292DD00829BB
:1026100019D00D292FD01F29EED94645ECD22268BA
:10262000201C926890472B78201C33702368291C4B
:102630005B680122013698470028E5D1012002B0ED
:1026400004BC9046F0BDBE42D6D02368201C9B68D7
:102650009847236820219B68201C98472368297885
:102660009B68201C9847013EC6E7201C0649FFF7DF
:10267000DFFE0120E3E7201C0449FFF7D9FE002319
:1026800033700020DBE7C0469C3500084835000861
:10269000F0B556465F4644464D46F0B44268634B3B
:1026A00006689B699346624A97B09A61301C6149FB
:1026B000FFF7BEFE604B614A98469246301C414689
:1026C000FFF7B6FE301C06A94022FFF789FF00285D
:1026D00030D1694606A8FFF733FF6946071C002082
:1026E000002401ADFFF72CFF00280AD0042C1AD0DB
:1026F000A300E850694600200134FFF721FF0028BD
:10270000F4D1A300E850002FD8D0381C514600F077
:1027100027FD00281DD1002C10D0301C48495246FE
:10272000FFF786FECAE7301C4649FFF781FE00230B
:102730002B61C3E7301C4449FFF77AFE0020FFF706
:102740002FFF002017B03CBC90469946A246AB46EE
:10275000F0BD381C3D4900F003FD002807D1301CB6
:10276000002C1CD03649394AFFF762FEA6E7384BE9
:1027700018689946002806D13AE0082399444A4649
:102780001068002834D0391C00F0EAFC0028F4D18D
:102790004A465368301C211C2A1C98478EE72D4955
:1027A000FFF746FE2A4C2268002A0BD02A4D083437
:1027B000301C291C0834FFF73BFE231C083B1A6819
:1027C000002AF5D15B46002B0DD05B461A68002A23
:1027D00009D0214D5C46301C291C0834FFF728FE27
:1027E0002268002AF7D1301C1C49FFF721FE65E75B
:1027F0005B46002B10D0186800280DD0D94605E0A4
:10280000082399444A461068002805D0391C00F076
:10281000A7FC0028F4D1BBE7301C11493A1CFFF794
:1028200007FE301C0F49FFF703FE47E76C09002045
:10283000A0350008A8350008C0350008EC350008B0
:10284000E0330008D4350008C8350008F435000826
:1028500000080020FC350008143600084835000840
:10286000183600081C360008C046C046C046C046A0
:10287000F0B5454690460B2257464E468246914655
:10288000D144E0B40E1C0F1C4D46301C4146FDF7F0
:10289000E3FC0C1C3034392C00DD0734013DE4B27C
:1028A000301C41462C70FDF793FC4146061C381C39
:1028B000FDF78EFC071EE8D14A465046531BC3184D
:1028C00001E06C780135047001309842F9D11CBCEC
:1028D00090469946A246F0BDC046C046C046C04696
:1028E000F0B55F46564644464D46F0B489B00C1CE0
:1028F00069461531071C05A88346081A161C019164
:1029000003902178651C00290AD025290FD03B6847
:102910002C1C9B68381C98472178651C0029F4D131
:1029200009B03CBC90469946A246AB46F0BD6278E1
:102930002D2A00D1D5E0002002902E2A00D1B7E048
:1029400020218846302A00D1B2E02C1C002506E068
:1029500033780436AA0055196D002278ED18131C3F
:10296000303BDBB20134092BF4D92A2AF0D0002005
:1029700000902E2A00D1A0E0DF2313404C2B00D181
:102980008FE0131C443BDBB2342B00D983E06A4850
:102990009B00C3589F460A22316858460436FFF709
:1029A00067FF5946411A8946DA464B46ED1AEB4312
:1029B0000298DB171D4000284BD16D42002D10D02E
:1029C00051460B782D2B00D193E0231C44469846AA
:1029D0003B68381C9B68211C01359847002DF7D1B6
:1029E00044463B68381C1B6851464A46984788E76E
:1029F0000822D1E7316858460436002900DA8AE017
:102A00000A22CCE73268301D9246002A00D189E0C4
:102A1000009A002A6AD051460B78002B00D184E03E
:102A2000009A5346111C514401E08B4203D00133FC
:102A30001A78002AF9D15146591A89464B46ED1A9F
:102A4000EB43061C02982022DB1790461D4000280D
:102A5000B3D03B68381C1B6851464A469847002D46
:102A600000D14EE7231C444698463B68381C9B68BF
:102A7000211C013D9847002DF7D1444641E73368BA
:102A800003985A4620211370814604368846DA4658
:102A90008BE7102280E703985B461A708146DA467E
:102AA00083E72378002B00D16BE701341A1C68E719
:102AB00030236A789846013547E7002105E03378EE
:102AC00004368A005118490059180134631E1A78D7
:102AD000131C303BDBB2092BF3D92A2AEFD000912B
:102AE0004AE70123A51CA278029326E7134B009323
:102AF00091E74246302A00D067E701239A443B68B9
:102B0000381C9B682D2198470120231C40424446D5
:102B1000814498465CE72D2303706846494215308E
:102B20000A223CE706498A4672E700212022061C59
:102B30008946904639E7C04630360008FF7F0000DE
:102B400010370008C046C046C046C046C046C04612
:102B5000274B70B50224DC6004245C620824DC632B
:102B6000902010240022C00517215C6540262024F7
:102B70008425186099609861196218639963986454
:102B8000196518669966DC6698675A601A615A6119
:102B9000DA619A62DA625A631A645A64DA649A658C
:102BA000DA655A661A675A67DA675E5188255A519C
:102BB0008C255A519025585194255A519825595190
:102BC00080249C2519515C51A0241A51A4241A5127
:102BD000A8241851AC201A50B02019508020400071
:102BE000B4215850B8215A50BC215A5070BDC0462B
:102BF000180B0020C046C046C046C046C046C0466E
:102C000008B50378303BDBB2072B0DD80E4A9B008A
:102C10009B58FF2B08D0042906D80122101C88409D
:102C2000011C1720084201D1002008BD58000749A7
:102C3000C318DB005858CB1859688A40111C03226E
:102C4000FFF726F9F0E7C04620370008180B0020F0
:102C500003780020303BDBB2072B05D8034A9B00EA
:102C60009858FF38431E98417047C04620370008E7
:102C70000278FF23303AD2B2072A02D8044B9200DE
:102C8000D3585A00D318034ADB00D318D8687047CA
:102C900020370008180B0020C046C046C046C0467A
:102CA0007047C046C046C046C046C046C046C04643
:102CB00010B5141C114A82B001918A4219D0104BF0
:102CC000196862181A6072B6FDF722FD0D48826815
:102CD000002A04DDFDF73CFD62B602B010BD0A4BD0
:102CE0000022DA60012101AA5A609C60FEF750F8C8
:102CF000F0E7064B196862181A60E4E7E40B00205D
:102D0000E00B002034080020F40B0020DC0B002036
:102D10000EB400B582B004AA044805490192FFF739
:102D2000DFFD02B008BC03B01847C046940A00207B
:102D300040370008C046C046C046C046C046C046F0
:102D400008B502480249FFF7E3FF08BD940A0020D6
:102D500040370008C046C046C046C046C046C046D0
:102D600010B50B480B49FFF7D3FF0B4C0021201C7B
:102D7000FEF716FC09490A4A0823201CFEF720FC2E
:102D80003220FDF745FF0020FDF772FF10BDC04661
:102D9000940A002040370008DC09002018080020B1
:102DA000E40B0020C046C046C046C046C046C046F0
:102DB0000EB400B582B003AA08CA191C0192FFF72D
:102DC0008FFD02B008BC03B01847C046C046C046DD
:102DD0007047C046C046C046C046C046C046C04612
:102DE00008B50249FFF7E4FF08BDC04650370008A8
:102DF00008B50249FFF7DCFF08BDC04650370008A0
:102E000008B50249FFF7D4FF08BDC0465037000897
:102E100008B50249FFF7CCFF08BDC046503700088F
:102E200008B50249FFF7C4FF08BDC0465037000887
:102E300008B50249FFF7BCFF08BDC046503700087F
:102E400008B50249FFF7B4FF08BDC0465037000877
:102E500008B50249FFF7ACFF08BDC046503700086F
:102E600010B5041C052B1BD010DD162B06D0172B1C
:102E700003D113681B78002B1AD010BD13681B7880
:102E80002D2BFAD11249FFF793FFF6E7042BF4D16B
:102E900013681B78002BF0D10E49FFF789FFECE790
:102EA00013681B78002BE8D00B49FFF781FFE4E79C
:102EB0000A49FFF77DFF201C0949FFF779FF201C15
:102EC0000849FFF775FF201C0749FFF771FFD4E79A
:102ED000843700085C37000870370008983700080E
:102EE000A0370008AC370008B8370008C046C04615
:102EF000436B10B5041C002B07D0FFF721FF201CEB
:102F00000021FEF78DF8012010BD0020FCE7C0462F
:102F100070B5124D2B68002B19DD114E306800285A
:102F200019D0002407E02B680134A3420FDDA30071
:102F3000F05800280DD0FFF7DBFF0028F3D0A300E6
:102F40000022F2502B68201C013B2B6070BDFF203B
:102F5000FCE7201CFAE70020F8E7C046740E0020CA
:102F600088130020C046C046C046C046C046C04682
:102F7000F8B5564644465F464D46F0B40423161C49
:102F80008046FFF76DFF33681A78002A0AD05B7815
:102F90006F2B6AD0632B0AD03CBC90469946A24660
:102FA000AB46F8BD40463649FFF702FFF4E7354B24
:102FB0009A46524601231370334B344D99464A4684
:102FC000002313602B607368581C5B78002BE3D0E0
:102FD0002F4A00230127012493461CE07368042133
:102FE000D819FFF70DFE7268D019FFF741FE4B4666
:102FF0001A68131C034083421ED02B6810434A46B4
:103000001060012152465380726801341019027811
:10301000271C002A14D0013304212B60FFF718FE6F
:103020000028DBD12B685946013B40462B60FFF757
:10303000BFFE2B680021E5E72B68013B2B60DDE735
:103040000129A9D140461349FFF7B2FEFFF760FFFF
:10305000041EFF2C0ED000230F4840210F4AFDF71D
:103060006FFE0F4BA400E05096E7064A00239246FD
:103070001370A1E740460B49FFF79AFE8CE7C04664
:103080005C37000818080020D80B0020140B002023
:10309000C4370008D8370008680E0020612D0008EA
:1030A00088130020E8370008C046C046C046C04626
:1030B0000C4B70B500220C4C0C4D061C1A605A606B
:1030C0009A60DA60201CFDF7ABFEA368002BF9DDE7
:1030D000301C291CFFF76CFE201C0021FDF770FE40
:1030E000F0E7C046F40B002034080020FC3700084D
:1030F000084B70B59B69084A8025AD00074C9A6162
:103100002E1C6683FA20FDF783FD2583FA20FDF748
:103110007FFDF6E76C090020203800080008004811
:10312000094B70B59B69094A80256D00084C9A616E
:103130002E1CFA2066834000FDF76AFDFA202583E5
:103140004000FDF765FDF4E76C0900202C3800080D
:1031500000080048C046C046C046C046C046C046FB
:10316000114BF0B51E68032500230AE0CA5CB718AE
:103170007F782F40012F12D0A41A13D10133002AD7
:1031800010D0C25CB4186778141C2F40012FEDD109
:10319000CA5C2034B7187F782F40012FECD1203241
:1031A000A41AEBD0201CF0BD400800200000000055
:1031B00070B50478061C002C21D00D78002D18D095
:1031C000A54211D00B1C01E094420CD001331A78B7
:1031D000002AF9D101363478002CEFD11D78002077
:1031E000002D04D170BD251C0020002DFAD0301C0C
:1031F000F8E7013634780B1C002CDFD1EEE7002015
:10320000F0E7C046000000000000000000000000E1
:1032100070B50478002C14D00E78002E11D0051C47
:10322000B44209D00B1C01E0944205D001331A7856
:10323000002AF9D1281A70BD01352C78002CEFD165
:10324000F8E70020F7E7C04600000000000000009B
:1032500069646C65000000000000000000000000D0
:103260005356233100000000535623320000000063
:10327000535623330000000053562334000000004F
:10328000535623350000000053562336000000003B
:103290005356233700000000535623380000000027
:1032A00053562339000000005356233130000000EC
:1032B00053562331310000000000000000000000E0
:1032C0006D61696E0016C011040448080C101418D2
:1032D000001C1D1E1F200000000000000000000058
:1032E0009116000871160008D1160008B1160008E2
:1032F000C1160008A1160008811600086116000812
:103300000800024004000240000009001C000240C6
:103310000400024004010A003000024004000240A0
:1033200008020A0044000240040002400C030B00A3
:10333000580002400400024010040B00000000008E
:1033400000960000000000000040000000000000A7
:103350000000002800000000000000FC54555565E6
:10336000FFFF00000000000000000000000000005F
:1033700000000000F003000055555555FFFF000008
:103380000000000000000000000005000000000038
:1033900000000FF055555005FFFC00000000000034
:1033A000000000000000000000000000000000001D
:1033B00055555555FFFF00000000000000000000BB
:1033C00000000000000000000000000050555555AE
:1033D000FFFF0000000000000000000000000000EF
:1033E00055736167653A2025730D0A00737973740C
:1033F000696D6500256C750D0A000000696E666FC9
:10340000000000004B65726E656C3A202020202081
:10341000202025730D0A0000322E372E30756E7372
:103420007461626C65000000436F6D70696C657259
:103430003A202020202025730D0A00004743432016
:10344000342E382E33203230313331313239202886
:1034500072656C6561736529205B41524D2F656D06
:103460006265646465642D345F382D6272616E63D9
:1034700068207265766973696F6E20323035363434
:10348000315D0000417263686974656374757265CB
:103490003A2025730D0A000041524D76362D4D001D
:1034A000436F72652056617269616E743A202573AC
:1034B0000D0A0000436F727465782D4D30000000D6
:1034C000506F727420496E666F3A20202020257359
:1034D0000D0A0000507265656D7074696F6E20741E
:1034E00068726F756768204E4D490000506C6174BA
:1034F000666F726D3A202020202025730D0A00008F
:1035000053544D33324630353178782F463036318A
:10351000787820456E747279204C6576656C204D04
:10352000656469756D2044656E736974792064659E
:103530007669636573000000426F6172643A20200F
:1035400020202020202025730D0A000053542053F2
:10355000544D333246302D446973636F766572790A
:10356000000000004275696C642074696D653A2042
:1035700020202573257325730D0A000041707220E9
:103580003133203230313400202D200031373A32AF
:10359000353A303500000000200900005E4400008C
:1035A0007368656C6C0000000D0A43686962694FBE
:1035B000532F5254205368656C6C0D0A00000000B4
:1035C00063683E20000000000D0A6C6F676F757421
:1035D00000000000746F6F206D616E79206172676A
:1035E000756D656E74730D0A00000000657869746E
:1035F0000000000068656C7000000000436F6D6D96
:10360000616E64733A2068656C7020657869742017
:10361000000000002573200025730000203F0D0AE4
:10362000000000000000000000000000000000009A
:10363000F4290008962A0008962A0008962A00080D
:10364000962A0008F4290008962A0008962A0008FD
:10365000962A0008962A0008962A0008F0290008F1
:10366000962A0008962A0008962A0008962A00083A
:10367000962A000896290008962A0008962A00082B
:10368000922A0008962A0008962A0008962A00081E
:10369000962A0008962A0008962A0008962A00080A
:1036A000962A0008962A0008962A00087E2A000812
:1036B000F4290008962A0008962A0008962A00088D
:1036C000962A0008F4290008962A0008962A00087D
:1036D000962A0008962A0008962A0008F029000871
:1036E000962A0008962A0008962A0008042A00084C
:1036F000962A000896290008962A0008962A0008AB
:10370000922A0008000000000000000000000000F5
:10371000286E756C6C29000000000000000000009D
:103720000000000001000000020000000300000093
:103730000400000005000000060000000700000073
:1037400048656C6C6F576F726C640000000000007D
:1037500048656C6C6F20576F726C64006164632005
:103760007374617475732073656C6563746564004C
:103770006461632073657475702063686F73656E30
:103780000000000055415254207365747570206329
:10379000686F73656E0000006E616D653A00000031
:1037A0002C70617373776F72643A00002C737461CC
:1037B0007475733A000000002C6164647265737361
:1037C0003A0000006572722070696E206E6F74207E
:1037D000666F756E640A00007468726561642063C8
:1037E0007265617465640A0072616E206F7574742D
:1037F0006120746872656164730A000073656D61AD
:1038000070686F7265206F6B0000000000000000A0
:10381000940A00208038000800000000000000002A
:10382000626C696E6B65723200000000626C696EDA
:103830006B6572310000000074656D70000000005F
:10384000766F6C746167650062617474657279008B
:10385000626C7565746F6F746800000070776D003E
:103860007370690069326300646174650000000070
:1038700061646300646163000000000000000000F8
:1038800038380008D12D000840380008E12D000824
:1038900048380008F12D000850380008212E000893
:1038A0005C380008412E000860380008112E00081E
:1038B00064380008312E000868380008512E0008CE
:1038C00070380008712F000874380008012E0008B5
:1038D00000000000000000000000000000000000E8
:1038E00000202020202020202020282828282820D0
:1038F00020202020202020202020202020202020C8
:10390000208810101010101010101010101010102F
:10391000100404040404040404040410101010101F
:1039200010104141414141410101010101010101E9
:10393000010101010101010101010101101010103B
:1039400010104242424242420202020202020202BB
:10395000020202020202020202020202101010100F
:103960002000000000000000000000000000000037
:103970000000000000000000000000000000000047
:103980000000000000000000000000000000000037
:103990000000000000000000000000000000000027
:1039A0000000000000000000000000000000000017
:1039B0000000000000000000000000000000000007
:1039C00000000000000000000000000000000000F7
:1039D00000000000000000000000000000000000E7
:0439E00000000000E3
:1039E800FC33000881240008EC3300085124000847
:1039F800000000000000000001000100B12C0008D8
:103A0800A12C0008000000000000000003000000D6
:103A180002000000340800203408002001000000E3
:043A2800E03800087A
:04000005080002A14C
:00000001FF
